:020000040800F2
:10000000206F00204D0300080D3500088F2C0008DC
:10001000E13400084F060008C15E0008000000003F
:100020000000000000000000000000008D02000839
:10003000D907000800000000E9020008353C00086C
:1000400067030008670300086703000867030008E8
:1000500067030008670300086703000867030008D8
:1000600067030008670300086703000867030008C8
:1000700067030008670300086703000867030008B8
:10008000F506000867030008670300086703000817
:100090006703000867030008670300086703000898
:1000A0006703000867030008670300086703000888
:1000B0006703000867030008670300086703000878
:1000C0006703000867030008670300086703000868
:1000D00067030008B5430008C14300086703000830
:1000E0006703000867030008670300086703000848
:1000F00067030008053D0008670300086703000860
:100100006703000867030008670300086703000827
:100110006703000867030008670300086703000817
:100120006703000867030008010700086703000869
:1001300067030008670300086703000867030008F7
:10014000670300086703000867030008113500080B
:1001500067030008670300086703000867030008D7
:1001600067030008670300086703000867030008C7
:100170006703000867030008670300080000000029
:1001800067030008670300086703000867030008A7
:100190006703000867030008670300086703000897
:1001A00067030008670300086703000800F002F80F
:1001B00000F05CF80AA090E8000C82448344AAF1A5
:1001C0000107DA4501D100F051F8AFF2090EBAE8A3
:1001D0000F0013F0010F18BFFB1A43F0010318477B
:1001E000A0A10000C0A100000A444FF0000C10F8CC
:1001F000013B13F0070408BF10F8014B1D1108BFA5
:1002000010F8015B641E05D010F8016B641E01F844
:10021000016BF9D113F0080F1EBF10F8014BAD1C94
:100220000C1B09D16D1E58BF01F801CBFAD505E0B2
:1002300014F8016B01F8016B6D1EF9D59142D6D30C
:10024000704700000023002400250026103A28BF34
:1002500078C1FBD8520728BF30C148BF0B60704738
:100260001FB509F06CFB1FBD10B510BD00F0BAF949
:100270001146FFF7F5FF07F038FD00F0D8F903B499
:10028000FFF7F2FF03BC00F0DBF900002C4B19680C
:100290000868B0E8F04F80F30988BFF36F8F4FF024
:1002A000000080F3118870470000000008480068D3
:1002B000006880F308884FF0000080F3148862B66D
:1002C00061B6BFF34F8FBFF36F8F00DF00BF00BF7A
:1002D00008ED00E0DFF80C00016841F470010160F6
:1002E000704700BF88ED00E0EFF30980BFF36F8F28
:1002F000134B1A681EF0100F08BF20ED108A20E97A
:10030000F04F106009B44FF0500080F31188BFF334
:100310004F8FBFF36F8F08F04FFA4FF0000080F35C
:10032000118809BC19680868B0E8F04F1EF0100F7A
:1003300008BFB0EC108A80F30988BFF36F8F704755
:10034000400A0020EFF3058070470000094880470D
:1003500009480047FEE7FEE7FEE7FEE7FEE7FEE7A7
:10036000FEE7FEE7FEE7FEE704480549054A064BBF
:1003700070470000F53C0008AD010008206900202E
:10038000206F0020206B0020206B002053EA020C1D
:1003900000F069802DE9F04B4FF00006002B1FBFE5
:1003A000B3FA83F503FA05F424FA05F65E4012BFAA
:1003B0001643B2FA82F502FA05F4C5F120051EBF14
:1003C00022FA05FC44EA0C04203556EA044C4FEAB4
:1003D000144418BF641C4FF000084FF0000990420D
:1003E00071EB030C39D3002919BFB1FA81F701FA77
:1003F00007F6B0FA80F700FA07F6C7F120071EBF2C
:1004000020FA07FC46EA0C062037B6FBF4FCA7EB03
:100410000507103F07F01F0BCBF120060CFA0BFB72
:100420002CFA06F644BFB3460026202FA4BF5E4632
:100430004FF0000B5BEA060C08BF4FF0010B19EB05
:100440000B09ABFB027C48EB0608C01B06FB02CC89
:100450000BFB03CC71EB0C01C1E70B460246414696
:100460004846BDE8F08B13B54FF000004FF0000197
:10047000AFF30080BDE81C407047032A40F2308093
:1004800010F0030C00F0158011F8013BBCF1020FD5
:10049000624498BF11F801CB00F8013B38BF11F856
:1004A000013BA2F1040298BF00F801CB38BF00F86D
:1004B000013B11F0030300F02580083AC0F00880EA
:1004C00051F8043B083A51F804CBA0E80810F5E7CE
:1004D000121D5CBF51F8043B40F8043BAFF30080B1
:1004E000D20724BF11F8013B11F801CB48BF11F826
:1004F000012B24BF00F8013B00F801CB48BF00F8F6
:10050000012B704710B5203AC0F00B80B1E81850AD
:10051000203AA0E81850B1E81850A0E81850BFF4ED
:10052000F5AF5FEA027C24BFB1E81850A0E818508C
:1005300044BF18C918C0BDE810405FEA827C24BFE0
:1005400051F8043B40F8043B08BF7047D20728BF6E
:1005500031F8023B48BF11F8012B28BF20F8023BBD
:1005600048BF00F8012B70474FF0000200B513465A
:1005700094469646203922BFA0E80C50A0E80C50C3
:10058000B1F12001BFF4F7AF090728BFA0E80C5074
:1005900048BF0CC05DF804EB890028BF40F8042B6D
:1005A00008BF704748BF20F8022B11F0804F18BFDA
:1005B00000F8012B704770477047704710B500F086
:1005C00009F8006810BD10B5044600F003F8046097
:1005D00010BD000000487047BC680020004870470C
:1005E000BC6800207546FFF7F9FFAE460500694676
:1005F000534620F00700854618B020B5FFF7B4FE3B
:10060000BDE820404FF000064FF000074FF0000813
:100610004FF0000B21F00701AC46ACE8C009ACE894
:10062000C009ACE8C009ACE8C0098D46704710B5F8
:100630000446AFF300802046BDE81040FFF71FBE20
:1006400001491820ABBEFEE7260002007047FEE716
:100650000020704702480021018041800846704711
:100660001E0B002010B500220449054804F094F840
:100670000449034804F083F8002010BDB85F00204F
:10068000DC560020B85D002070B50B6814490A885C
:100690004C88A24206D30A884C88121BA2F2FF1291
:1006A000524203E04A880C88121B521E93420DD816
:1006B00000220C4C08E0855C0E88A5550D886D1C49
:1006C000C5F308050D80521C9A42F4D30649074829
:1006D00004F055F8054804F02BF8002070BD000028
:1006E0001E0B0020B85B0020B85D0020DC56002007
:1006F00000207047014800F071BB0000B4160020D4
:10070000014800F06BBB000054160020016818235C
:10071000CAB2103AB2FBF3F2054B6FF30901032A98
:100720009B5CC36500D9091D8165084670470000C0
:10073000989A000810B5014600208B698A6A4FF02C
:10074000C07453B1B3F5005F15D072B1012A0CD05B
:10075000022A0AD0032A09D104E01AB1012A06D0DC
:10076000022A03D1C96AC90100D5012010BDC96A96
:10077000A142FAD010BD002AF7D0012AF2D0022AF5
:10078000F3D0032AF3D010BD70B505465FF0000426
:10079000C4EBC40005EB80100E4A0021083007F0BE
:1007A0009BFA641CE4B2042CF2D30024C4EBC40012
:1007B00005EB8010083002F0B1FF641CE4B2042C99
:1007C000F4D302E0642007F087FB28780828F9D0EA
:1007D00070BD0000E409002070470000F0B5064637
:1007E000F1B04FF4E0610830FFF7BEFE002030703A
:1007F00004464FF4E0773A461A496846FFF782FE0E
:10080000C4EBC400651C06EB80108DF800503A461E
:1008100069460830FFF776FEECB2042CEBD30025D6
:10082000B5F10107C5EBC50006EB80100446017A5F
:10083000303007EB4101C9B200F018F808B100F000
:1008400013F8207A4006010E04F1D00000F00EF8F3
:1008500008B100F009F86D1CEDB2042DE2D371B0BF
:10086000F0BD0000B89C000872B6FEE710B580F835
:10087000811004460184002060849FED0C0A04F17D
:10088000400184ED0C0A84ED0D0A84ED0B0A84ED21
:100890000A0A84ED090A204603F066F9002803D10C
:1008A00094ED1E0A84ED260A10BD00000000000031
:1008B00090F881200284418490ED210A00F14001EA
:1008C00080ED0C0A90ED220A80ED0D0A90ED230ACE
:1008D00080ED0B0A90ED240A80ED0A0A90ED250ABE
:1008E00080ED090A03F040B990F82020012A07D0D2
:1008F000022A05D0416A41F48021416201207047FB
:10090000006842690A43426100207047F0B590F8E0
:1009100020500468A468012D05D0022D03D0416A3F
:1009200041F480214DE014F0406F01D1E50045D540
:10093000C4F301640125A5401D608D684FF4C073A8
:100940009DB1CE6835434E6845EAC605066803EB9F
:100950000417F5514FF4C275076805EB04150E69CD
:100960007E51097D012905D009E00E88CD6845EA50
:100970004655EBE701684E5946F480764E511179A1
:10098000D2F805504FF4C67641EA0521056806EB1A
:100990000416A9511178D2F801204FF4C47541EA28
:1009A0000221026805EB04155151006803EB0411A4
:1009B000425842F0010242500020F0BD416A41F429
:1009C000001141620120F0BD10B590F82020012AED
:1009D00007D0022A05D0416A41F4802141620120FA
:1009E00010BD3B48D0F8002242F00102C0F80022BE
:1009F000D0F8002222F47C52C0F80022D0F8002265
:100A00004B6A42EA0322C0F800220A7D02F01F036B
:100A100001229A40D0F81C329343C0F81C32CB69B3
:100A2000B3B9D0F80C329343C0F80C328C894B68C0
:100A300064F31F434C6900EBC404C4F840320C89D2
:100A40000B6864F31F434C6900EBC404C4F84432E0
:100A5000CB69012B16D1D0F80C321343C0F80C32FD
:100A60000C884B6864F31F434C6900EBC404C4F862
:100A700040320C89CB6864F31F434C6900EBC4041B
:100A8000C4F844328B69002BD0F804320ED01343E3
:100A9000C0F804320B69002BD0F8143208D013438D
:100AA000C0F81432096A012904D008E09343EFE743
:100AB0009343F5E7D0F81C121143C0F81C12D0F88C
:100AC000001221F00101C0F80012002010BD00004A
:100AD0000064004070B5040003D094F8200010B109
:100AE00004E0012070BD204600F082F82068016813
:100AF00041F00101016000F0DDFB0546052604E040
:100B000000F0D8FB401B0A2811D820684068C007B5
:100B1000F6D02068016821F00201016000F0CAFBF4
:100B200005460BE000F0C6FB401B0A2806D9606AA8
:100B300040F40030606284F82060D2E720684068AA
:100B40008007EFD4207E0128206801683DD021F085
:100B500080010160607E01282068016838D021F0A2
:100B600040010160A07E01282068016833D021F097
:100B700020010160E07E0128206801682ED041F04C
:100B800010010160207F01282068016829D021F030
:100B900008010160607F01282068016824D021F0ED
:100BA00004010160D4E902010843D4E904121143AD
:100BB00008436168491E08432168C86100206062DB
:100BC000012084F82000002070BD41F08001C0E7C2
:100BD00041F04001C5E741F02001CAE721F01001D2
:100BE000CFE741F00801D4E741F00401D9E7000064
:100BF000F0B587B0044614216846FFF7B5FC2E4BCC
:100C00002E48DFF8B0E01968D4F800C02B4A03255D
:100C10000226092710300024491CF4451AD1196016
:100C2000012907D1016841F000710160006800F0FE
:100C300000700590106840F0080010601068CDE961
:100C4000005600F00800CDE9047069461C48CDE963
:100C500002452BE0DFF86CE0F44529D1D0F800C064
:100C60004CF0806CC0F800C0D0F800C001290CF036
:100C7000806CCDF814C0196007D1016841F0007193
:100C80000160006800F000700590106840F00200FC
:100C90001060106802AB00F00200059042F22000E4
:100CA000CDE9000683E8B0006946074800F0E2F9A4
:100CB00007B0F0BD00640040100000203038024052
:100CC000000C0240006800400004024070B5044679
:100CD00090F82000012804D0606A40F4002060628F
:100CE00018E0022084F820002068016821F001014A
:100CF000016000F0DFFA05460EE000BF00F0DAFA0E
:100D0000401B0A2808D9606A40F400306062052060
:100D100084F82000012070BD20684068C007EDD134
:100D2000606270BD2DE9F0410446876D00F0C2FAA3
:100D3000064694F835000025022806D0802060651C
:100D400084F834500120BDE8F0812068016821F06A
:100D5000160101602068416921F080014161206C29
:100D600008B9A06C20B12068016821F00801016079
:100D70002068016821F0010101600CE000F09AFA9E
:100D8000801B052807D920206065032084F83500E2
:100D900084F83450D7E720680068C007EED194F893
:100DA0005C103F208840B860012084F8350084F84A
:100DB00034500020C7E790F83510022903D0802175
:100DC000416501207047052180F8351000680168F1
:100DD00021F0010101600020704700002DE9F84377
:100DE00004464FF00009CDF8009063484FF41651C7
:100DF000A56D0068B0FBF1F72E6894F85C10082030
:100E000000FA01F131420FD021680A6852070BD570
:100E10000A6822F004020A6094F85C108840A86016
:100E2000606D40F00100606594F85C104FF00108BF
:100E300008FA01F0304208D021684969090604D552
:100E4000A860606D40F00200606594F85C100420BA
:100E50008840304208D021680968890704D5A86015
:100E6000606D40F00400606594F85C1010208840CC
:100E7000304218D021680968090714D5A860206895
:100E80000168490304D50068000308D5A16C07E098
:100E90000168C90503D4016821F008010160216CD3
:100EA00009B12046884794F85C10202088403042E1
:100EB00031D021680968C9062DD5A86094F835009D
:100EC00005282068016806D0490347D5006800035B
:100ED0001DD4616C1CE021F016010160206841699D
:100EE00021F080014161206C08B9A06C20B120681C
:100EF000016821F00801016094F85C103F208840EF
:100F0000A86084F8358084F83490216D1FE0E16B8F
:100F100009B120468847606D00282BD0606DC0075E
:100F200014D0052084F835002068016821F0010103
:100F300001600098401C0090B84203D82068006807
:100F4000C007F6D184F8358084F83490E16C00292C
:100F500010D001B02046BDE8F04308470168C9053C
:100F6000D5D4016821F01001016084F8358084F83F
:100F70003490CCE7BDE8F883200000202DE9F04153
:100F8000044600F097F906465CB1022084F835006B
:100F9000002584F834502068016821F001010160C7
:100FA0000DE00120BDE8F08100F084F9801B0528E8
:100FB00005D920206065032084F83500F2E7206819
:100FC0000068C007F0D12268116820480140D4E9C8
:100FD00001031843D4E903363343184363691843C4
:100FE000A3691843E3691843236A18430843616AF5
:100FF000042903D1D4E90B13194308431060206876
:101000004069666A20F0070130460E430127042834
:101010000CD1A06A0643E06A40B12046FFF78AFB84
:1010200020B14020606584F83570BAE720684661D9
:101030002046FFF76BFB94F85C203F2191408160D4
:10104000656584F835700020ACE700003F8010F043
:1010500070B5044600F02EF90546601C02D0044825
:101060000078044400F026F9401BA042FAD370BD7A
:10107000140000202DE9F84FDFF8F8A10022012428
:1010800003254FF00F090AF1040BAAF1040E00BF6B
:101090000B6804FA02F63340B34270D10F7907F0BF
:1010A0000307012F01D0022F16D187684FEA4208AB
:1010B00005FA08FC27EA0C07D1F80CC00CFA08FC6A
:1010C0004CEA070CC0F808C04768B7430E79C6F36E
:1010D000001696403E4346600E79F643B6070AD0A6
:1010E000C7684FEA420C05FA0CF6B7438E6806FA59
:1010F0000CF63E43C6600E7906F00306022E10D1B0
:10110000D60800EB8608D8F8206057074FEAD76C5E
:1011100009FA0CF7BE430F6907FA0CF73743C8F812
:10112000207006684FEA420C05FA0CF7BE430F79AF
:1011300007F0030707FA0CF7374307604E6816F409
:10114000403F1CD04C4E376847F4804737603668C4
:1011500022F0030706F480460096484E07EB060C83
:10116000DCF8086897073F0F09FA07F826EA08062F
:10117000DFF80C81404503D14FF0000841E072E0F8
:10118000DFF80081404502D14FF0010839E0DFF877
:10119000F880404502D14FF0020832E0DFF8EC80E1
:1011A000404502D14FF003082BE0DFF8E4804045D2
:1011B00002D14FF0040824E0DFF8D880404502D186
:1011C0004FF005081DE0DFF8D080404502D14FF018
:1011D000060816E0DFF8C480404502D14FF007084A
:1011E0000FE0DFF8BC80404502D14FF0080808E06E
:1011F000DFF8B080404502D14FF0090801E04FF020
:101200000A0808FA07F848EA0608CCF80888DAF865
:1012100000605746D1F804C09E435FEACC2C00D54D
:101220001E433E60DBF800605F46D1F804C09E4379
:101230005FEA8C2C00D51E433E60DEF800607746E6
:10124000D1F804C09E435FEA8C3C00D51E433E604B
:10125000084F083F3E68D1F804C09E435FEACC3C8B
:1012600000D51E433E60521C102AFFF411AFBDE8AA
:10127000F88F0000083C0140443802400030014033
:10128000000002400004024000080240000C02403E
:10129000001002400014024000180240001C0240EE
:1012A00000200240002402400AB181617047090415
:1012B000FBE7000001488068704700001400002030
:1012C0000248816802781144816070471400002050
:1012D0000B4810B5016841F400710160016841F4E8
:1012E00080610160016841F480710160032000F0B9
:1012F0009FF8052000F006F800F050F8002010BD1F
:10130000003C024030B505461F4887B00024016804
:1013100041F480710160006806A900F480700090BB
:1013200001A800F04DFE0498A8B100F06FFE400047
:101330001649174AB0FBF1F11648491E026040F207
:10134000E732C0E90324C0E90114846101F066F8C2
:10135000040003D015E000F059FEE9E70D4801F064
:101360008BF804000DD12D2000F034F8102D07D299
:10137000002229462D2000F03BF80748056000E0D8
:10138000012407B0204630BD4038024040420F00E3
:101390000020004014170020180000200C4882B0E4
:1013A000016841F480410160006800F480400090D1
:1013B0000748001F016841F0805101600068002269
:1013C00000F0805000900F21901E02B000F010B885
:1013D00044380240002809DB00F01F02012191403F
:1013E0004009800000F1E020C0F8001170470000C3
:1013F000F0B40E4B1B680C46C3F30223C3F1070580
:10140000042D00D90425191D072901D2002300E06D
:10141000DB1E012606FA05F1491E214099409E4037
:10142000761E16403143F0BC04F0FCBE0CED00E02B
:10143000064900F0070208684FF6FF03184040EA2B
:101440000220034A10430860704700000CED00E0E2
:101450000000FA0570470068416200207047F0B54F
:101460000368586A39B19C6A4FF4827600EB1444E1
:1014700000204D1E0AE040EA024098620FE006EBB1
:101480008007DF59401C04EB1744C0B2A842F6D3D2
:1014900044EA02404FF4807202EB81015850002070
:1014A000F0BDD0F8E00403F062BC01EBC10200EB38
:1014B0008202D0F8E004126A03F0B3BB01EBC10270
:1014C00000EB8202D0F8E004D2F8602203F005BC01
:1014D000D0F8E00403F04DBC0A0601F00F0101EB67
:1014E000C10100EB810101D5143101E001F5157155
:1014F000006804F033BB70B504460B0601F00F0022
:1015000000EBC00104EB81014FF001024FF0000538
:1015100002D54A75143103E081F8555201F5157171
:10152000087094F89404012808D084F89424206862
:1015300004F02EF884F89454002070BD022070BD91
:1015400070B5044601F00F002279904201D90120C4
:1015500070BD0B0601F00F0101EBC10104EB81012D
:101560004FF001024FF0000502D54A75143103E037
:1015700081F8555201F515718D70087094F8940436
:10158000012808D084F89424206804F073F984F8C2
:101590009454002070BD022070BD01F00F0101EBDA
:1015A000C10100EB8100D0F8680270472DE9F041DD
:1015B00004460F0601F00F0000EBC00104EB8101AF
:1015C0004FF001064FF0000502D54E75143103E0CF
:1015D00081F8555201F51571C2F30A0208708A604C
:1015E0000B714A7802B14883022B00D14D7194F8F7
:1015F0009404012809D084F89464206803F016FF4D
:10160000284684F89454BDE8F0810220FBE710B529
:1016100001F00F0404EBC40100EB8101C1E9982340
:101620000023C1F8683281F8553281F85442837939
:1016300001F51571012B00D1CA618279006804F0AF
:1016400071F9002010BD70B504460D4601F00F0081
:101650002179884201D9012070BD29064FF000068A
:101660004FF0010206D500EBC00104EB81014A7581
:10167000143107E005EBC50104EB810181F85562E7
:1016800001F515718A70087094F89404012807D048
:1016900084F89424206804F019F9280702D007E0A0
:1016A000022070BDA17904F29C42206804F0B6F8D3
:1016B00084F89464002070BD10B501F00F0404EBB1
:1016C000C40100EB8101C1E9082300238B620123DF
:1016D0004B7501F8144F8379012B00D1CA618279CF
:1016E000006804F01FF9002010BD00002DE9FC5F28
:1016F00005680446284604F0CDFA00287DD120680C
:1017000004F0F4FA002878D0D5F80808C0F30D20CA
:10171000C4F8D404206804F0E9FA800704D52068EE
:10172000416901F002014161206804F0DFFAC1065D
:1017300004F29C40009034D52068816921F01001AA
:1017400081612F6A07F00F0000EBC00004EB8006F8
:10175000C7F3434006F51576022802D0062811D0BB
:101760001AE047F6F070074216D0C7F30A12174680
:101770002846F16804F0BEFAF0683844F0607069F9
:10178000384408E008222846009904F0B3FA70694A
:10179000C7F30A11084470612068816941F01001A3
:1017A0008161206804F0A2FA00034FF0080B4FF0AB
:1017B000000A4FF001097CD50026206804F075FA74
:1017C000074674E0F80770D0F1B2206804F086FA9A
:1017D0008046C00707D005EB4611C1F8089B31468B
:1017E000204601F0E3FE5FEA087024D505EB4611C0
:1017F000C1F808BB2068016C00E023E200EB461052
:101800000191D0F8082BFB4B994205D9110403D55F
:101810004FF40041C0F8081B204600F0F6FAF549E5
:101820000198884207D9A079012804D120680121B4
:10183000009A03F0F3FF5FEAC86004D505EB461198
:101840001020C1F8080B5FEA88701DD56869000692
:1018500005D5D5F8040840F48061C5F8041806EBF6
:10186000C60004EB800090F8571200F515700129AE
:1018700005D180F803A0F1B2204600F0E9F905EBAC
:1018800046110220C1F8080B5FEA886004D505EB19
:1018900046102021C0F8081B5FEA884005D505EBFB
:1018A00046104FF40051C0F8081B7F08761C002F2B
:1018B00088D1206804F01AFA40036ED5206804F03D
:1018C000EDF90746002666E0F80762D0F1B220681D
:1018D00004F0F2F98046C00723D006F00F01D5F8D6
:1018E000342809FA01F18A43C5F8342805EB46117A
:1018F000C1F80899A07901280FD106EBC60004EBC6
:101900008000D0E907211144016236B9606A20B92C
:1019100020680121009A03F081FFF1B22046FFF711
:10192000C4FD5FEA087003D505EB4611C1F808B99C
:101930005FEAC86004D505EB46111020C1F808091C
:101940005FEA486004D505EB46104021C0F808194D
:101950005FEA887016D53146284604F070F906EB28
:10196000C60004EB8000C17D1430012905D180F848
:1019700003A0F1B2204600F067F905EB4611022002
:10198000C1F808095FEA086003D53146204601F036
:1019900073FE7F08761C002F96D1206804F0A6F90C
:1019A000002811DAD5F8040820F00101C5F8041860
:1019B00094F8CC0401282BD0204600F00BFA2068C4
:1019C000416901F000414161206804F08FF9000590
:1019D0000BD5D5F80808C00702D0204600F03EFA23
:1019E0002068416901F400614161206804F07EF9DA
:1019F000C00467D5D5F8040820F00100C5F8040834
:101A00001021206804F01BF900214FF67F3220E0FE
:101A100084F8CCA400212046FFF71CFDCFE700BFCF
:101A200005EB4110C0F80829D0F8003923F4001361
:101A3000C0F80039C0F8082BD0F8003B23F400139D
:101A4000C0F8003BD0F8003B43F00063C0F8003B17
:101A5000491C20798842E3D8D5F81C0840F00111D0
:101A6000C5F81C18E07B002828460DD0D0F8840863
:101A700040F00B01C5F88418D5F8440840F00B017C
:101A80002846C5F844180DE0D0F8140842F22B019E
:101A90000843C5F81408D5F8100840F00B01284693
:101AA000C5F81018D0F8000820F4FE61C5F8001839
:101AB000A1792068009A03F0B1FE2068416901F421
:101AC00080514161206804F011F9800415D5206827
:101AD00003F0ECFC206804F0D0F8E07100F090FA1C
:101AE0000146E279206804F063F9204600F05CF9D1
:101AF0002068416901F400514161206804F0F6F862
:101B0000000707D5204600F069F92068416901F017
:101B100008014161206804F0E9F8000616D5A869BB
:101B200020F08001A96101260DE000BF06EBC60090
:101B300004EB800090F85702012803D1F1B220464F
:101B4000FFF7CAFC761C2079B042EFD8206804F079
:101B5000CDF8C0021FD501264F4614E005EB461014
:101B6000D0F8000906EBC60104EB81010A7E012AC8
:101B700008D1002806DACF75F0B240F08001204687
:101B8000FFF7AAFC761C2079B042E7D820684169AB
:101B900001F480114161206804F0A8F8800234D576
:101BA00001204A4629E000BF05EB4011D1F8001B97
:101BB00000EBC00304EB830393F85862012E1BD1A2
:101BC000002919DA94F8D464C1F3004106F0010643
:101BD0008E4211D183F85722A96941F08003AB618D
:101BE0006969090608D4D5F8040840F40070C5F8FE
:101BF000040805E00A30544F401C21798142D3D8B3
:101C00002068416901F400114161206804F06EF818
:101C1000400007D52046FFF744FC2068416901F0E9
:101C200080414161206804F061F840070AD52068CE
:101C30004568680702D52046FFF74AFC20684168DE
:101C400029434160BDE8FC9FD0F8E00403F0E3B80D
:101C5000D0F8E00403F0F3B8F8B5040005D094F828
:101C600095042668002510B106E00120F8BD84F82F
:101C70009454204600F056F8032084F89504B6F1F9
:101C8000A04F00D1A571206803F0C2FD207C8DF823
:101C9000000094E80F0003F017FC0226B8BB0021F7
:101CA000206804F046F890BB002001270DE000BF3B
:101CB00000EBC00104EB81014F750875C8850D76F6
:101CC000CD610D62401CC0B24D6221798142EFD8D6
:101CD000002011E000EBC00104EB810181F85552B6
:101CE00081F8540281F85852C1F85C52C1F8605230
:101CF000401CC0B2C1F8645221798142EAD8207CEC
:101D00008DF8000094E80F0003F0C4FC10B184F8D3
:101D10009564AAE7657484F89574206803F0ACFCB8
:101D20000020F8BD10B586B0044614216846FEF7C1
:101D30001BFC2068B0F1A04F2FD119480021026888
:101D400042F001020260006800F0010005904FF4CB
:101D5000C05000900220CDE90101032003900A2029
:101D6000049069460F48FFF785F90D48001D01688A
:101D700041F0800101600A481430016841F480415B
:101D800001600068002200F4804005900F2143208C
:101D9000FFF72EFB4320FFF71DFB06B010BD000030
:101DA000303802400000024070B50446C079012579
:101DB00070B1022801D0FEF757FD2946D4F8E0049F
:101DC00003F0ACF8D4F8E004BDE8704003F060B86C
:101DD0000025F2E7D0F8E00403F089B8D0F8E00479
:101DE00003F08FB810B5044690F8940401280AD087
:101DF000012084F894046174206803F0C8FF002077
:101E000084F8940410BD022010BDD0F8E02400F244
:101E10009C41104603F08EB810B50446006894F853
:101E20009414012909D0012184F89414C168490649
:101E300009D5617B012902D005E0022010BD816B2C
:101E400041F480318163206803F0D7FE206803F0FD
:101E500005FC002084F8940410BD000010B5044671
:101E6000D0F8E00403F0A8F82068D0F8001E41F094
:101E70000101C0F8001EE07A002804D00248016881
:101E800041F00601016010BD10ED00E02DE9F047C2
:101E90000E46050065D0DFF81481D8F80000F7B2CF
:101EA00000F00F00B04207D288F80070D8F80000A8
:101EB00000F00F00B04254D128683D4C810712D584
:101EC000400703D5206840F4E050206028780007E0
:101ED00003D5206840F4604020602068A96820F0A5
:101EE000F000084320602878C0072DD0304968688A
:101EF0000839012812D0022813D0032811D009680C
:101F0000890700292DDA216821F0030101432160AE
:101F1000FFF7D0F9814641F2883A0EE0096889035B
:101F2000EFE709688901ECE7FFF7C4F9A0EB0901C5
:101F3000514502D90320BDE8F0872068696800F0A8
:101F40000C00B0EB810FEFD1D8F80010404601F043
:101F50000F01B14207D90770006800F00F00B042CE
:101F600001D00120E7E72878400705D52068E96817
:101F700020F4E050084320602878000706D5206848
:101F8000296920F4604040EAC100206000F05EF85A
:101F90002168084AC1F30311515CC8400649086032
:101FA00006480068FFF7AEF90020C4E7003C024095
:101FB00008380240A09A00082000002018000020E5
:101FC0000F2202600C4A136803F003034360136896
:101FD00003F0F0038360136803F4E053C3601268F6
:101FE0004FF4E05303EAD20202610448006800F0B3
:101FF0000F0008607047000008380240003C0240B3
:10200000014800687047000020000020044805498E
:1020100000680968044AC1F38221515CC8407047D6
:102020002000002008380240B09A00080448054902
:1020300000680968044AC1F34231515CC8407047E6
:102040002000002008380240B09A0008154810B55A
:10205000006810F00C02144813D04110042A0FD06D
:10206000082A0ED10F4C241F2268236802F03F0279
:102070005B0207D52068C0F38810A0FB010106E0D1
:10208000084610BD2168C1F38811A1FB000100239F
:10209000FEF77CF92168C1F30141491C4900B0FBFE
:1020A000F1F010BD083802400024F4002DE9F84F8B
:1020B00004006ED02078DFF84C93C007A9F1040526
:1020C0004AD009F104000168C1F38101012908D057
:1020D0000068C0F3810002280AD1D9F8000040024C
:1020E00006D52868800337D560680028E1D033E042
:1020F0006068B0F5803F10D0B0F5A02F286810D0F0
:1021000020F480302860286820F4802028606068EF
:10211000A8B1FFF7CFF806460DE0286840F48030FC
:10212000F4E740F480202860F7E700BFFFF7C2F82B
:10213000801B642873D828688003F7D50CE0FFF76C
:10214000B9F8064605E000BFFFF7B4F8801B642825
:10215000F0D828688003F7D42078DFF8AC828007B5
:102160004FF0000A3ED5A748001D016811F00C0F82
:1021700008D00068C0F3810002280BD1D9F8000014
:10218000400207D42868800716D5E068012800D1EE
:1021900012E033E1E068B8B10120C8F80000FFF7B1
:1021A00089F8064605E000BFFFF784F8801B022887
:1021B000C0D828688007F7D52868216920F0F80082
:1021C00040EAC10028600DE0C8F800A0FFF772F8EF
:1021D000064604E0FFF76EF8801B02281FD8286827
:1021E0008007F7D42078000722D5864F8748616999
:1021F000703771B101210160FFF75CF8064604E019
:10220000FFF758F8801B022809D838688007F7D5EF
:102210000EE0C0F800A0FFF74DF8064605E082E0AA
:10222000FFF748F8801B02287DD838688007F7D46C
:102230002078400768D5DFF8CCB100270BF13C0BC4
:10224000DBF80000C0000BD4DBF8001041F0805137
:10225000CBF80010DBF80000012700F08050009060
:102260006B4E3068C00510D4306840F48070306028
:10227000FFF720F8009005E0FFF71CF80099401ADE
:10228000022850D83068C005F6D55E4EA0686C367E
:1022900001280FD00528306810D020F001003060F0
:1022A000306820F004003060A068B8B1FFF702F891
:1022B00000900FE0306840F00100F4E740F00400C7
:1022C0003060F7E7FEF7F6FF0099411A41F28830D7
:1022D000814266D830688007F4D50EE0FEF7EAFF49
:1022E000009007E0FEF7E6FF0099411A41F28830BE
:1022F000814256D830688007F4D42FB1DBF8001043
:1023000021F08051CBF80010A069C8B33D49091DE8
:102310000968C1F3810102294AD00228504607D03A
:10232000C8F8600000E03CE0FEF7C4FF04463BE074
:102330004746C8F86000FEF7BDFF064605E000BF4F
:10234000FEF7B8FF801B02282BD828688001F7D43D
:10235000D4E907010843A16A2E4A490802EB01416A
:10236000626A41EA8211084394F82C1040EA016144
:10237000C9F8001001203866FEF79CFF044606E00D
:102380003EE000BFFEF796FF001B022809D8286830
:102390008001F7D534E000BFFEF78CFF001B022858
:1023A00002D90320BDE8F88F28688001F4D427E023
:1023B0000128F7D0D9F80000E26900F480019142C9
:1023C0001CD1226A00F03F01914217D147F6C0713B
:1023D000626A0140B1EB821F10D1A26A4FF0FF3355
:1023E00000F4403103EB5202B1EB024F06D194F8F6
:1023F0002C1000F07060B0EB016F01D00120D1E72C
:102400000020CFE70438024000004742800E4742D8
:10241000007000400000FFFF7047704710B50400D7
:1024200003D094F83D0010B107E0012010BD00205A
:1024300084F83C00204600F01EF8022084F83D009D
:10244000211D206801F064FC012084F8460084F816
:102450003E0084F83F0084F8400084F8410084F88E
:10246000420084F8430084F8440084F8450084F86E
:102470003D00002010BD704790F83D10012901D0AB
:1024800001207047022180F83D100168CA6842F0BF
:102490000102CA6000681149884214D0B0F1804F2F
:1024A00011D00F4988420ED00E4988420BD00E49F8
:1024B000884208D00D49884205D00D49884202D093
:1024C0000C49884204D1816801F00701062903D034
:1024D000016841F0010101600020704700000140E7
:1024E0000004004000080040000C004000040140CF
:1024F000004001400018004070472DE9F0410446BB
:102500000068C66805694FF00007A90713D5B10731
:1025100011D5F91E016101202077206880698007AC
:10252000204602D0FFF7E8FF04E000F07EF82046E6
:1025300000F07CF82777680716D5700714D5216856
:102540006FF004000861022020772068806910F491
:10255000407F204602D0FFF7CFFF04E000F065F88F
:10256000204600F063F82777280715D5300713D5E4
:1025700021686FF008000861042020772068C06996
:102580008007204602D0FFF7B7FF04E000F04DF8C7
:10259000204600F04BF82777E80616D5F00614D54C
:1025A00021686FF010000861082020772068C0695A
:1025B00010F4407F204602D0FFF79EFF04E000F0B9
:1025C00034F8204600F032F82777E80708D0F00703
:1025D00006D021686FF001000861204600F028F85D
:1025E000280608D5300606D521686FF080000861FE
:1025F0002046FFF711FF680608D5700606D521684A
:102600006FF040000861204600F01CF8A8060AD5CB
:10261000B00608D521686FF0200008612046BDE8AB
:10262000F041FFF7FABEBDE8F08170477047000047
:1026300000680349884201D1FEF742BE704700009E
:102640000020004070472DE9F84F044690F8420002
:10265000DDF828901F4615460E46202802D002209D
:10266000BDE8F88FF6B1EDB14FF00008C4F8448032
:10267000222184F8421001212163C4F83480FEF73E
:1026800019FEA5858246E585A0684FF4805B584514
:1026900001D1206940B135460026A7F800804FF0EF
:1026A00020083AE00120DBE70025F6E72068016812
:1026B000C9060AD5016841680091398829B102200C
:1026C000606384F842800020CAE70168890618D553
:1026D00025B1A168594528D031B107E04068C0F361
:1026E000080026F8020B06E02169F1B1406800F00D
:1026F0007F0005F8010B3888401C3880E08D401EB3
:10270000E085B9F1FF3F08D0FEF7D4FDA0EB0A0148
:1027100049450CD8B9F1000F09D0E08D0028C5D18A
:10272000A08DE18D401A3880CBE74068E1E784F85E
:102730004280032094E7704770470000F8B50168B5
:1027400004460868CA684B6910F00F0F4FF0000587
:1027500059D003F0010602F49077374365D0C107E2
:1027600005D0D10503D5616C41F0010161644107D9
:1027700005D5D90703D0616C41F00201616481077E
:1027800005D5D90703D0616C41F0040161640107EC
:1027900007D502F02001314303D0616C41F00801FC
:1027A0006164616C00293AD0800604D5900602D598
:1027B000204601F0C3FC20684069616CC0F38010C2
:1027C000090700D460B3204601F091FC20684069FD
:1027D000400621D52068143050E8001F21F0400148
:1027E00040E80012002AF5D1E06BA8B172490165FA
:1027F000E06BFEF7E0FA002811D0E06B016D01B04C
:10280000BDE8F040084783060FD593060DD5204656
:10281000BDE8F84001F092BC2046FFF78DFFF8BDFF
:102820002046FFF789FF6564F8BD266B2023012E43
:102830007ED1C6067CD5D6067AD508684868009051
:1028400048694FF0020640064DD5E26B10684068BB
:102850004FF480770004000C3AD0A18D814237D923
:10286000E085D069B8422DD020680C3050E8001FB8
:1028700021F4807140E80012002AF5D1206814305C
:1028800050E8001F21F0010140E80012002AF5D1B4
:102890002068143050E8001F21F0400140E8001289
:1028A000002AF5D184F84230256320680C3050E8C6
:1028B000001F21F0100140E80012002AF5D1E06B62
:1028C000FEF730FA6663A08DE18D401A81B206E012
:1028D000A18D8142A8D1D069B842A5D166632046B6
:1028E000FFF729FFF8BDA08DE18D401A81B2E08D80
:1028F0000028F7D00029F5D020680C3050E8002FD0
:1029000022F4907240E80027002FF5D1206814309F
:1029100050E8002F22F0010240E80027002FF5D1F7
:1029200084F84230256320680C3050E8002F00E026
:1029300006E022F0100240E80023002BF3D1CDE79F
:1029400005062BD5150629D594F841002128C9D1B3
:10295000A068B0F5805F01D12069B0B1206A411C48
:102960002162216800784860E08C401E0004000C61
:10297000E084B7D12068C16821F08001C16020687F
:10298000C16841F04001C160F8BD206A0088C0F311
:1029900008004860206A801C2062E5E74006F3D505
:1029A0005006F1D5CA68204622F04002CA6084F879
:1029B000413000F06BF9F8BDE140000870B504004B
:1029C00004D094F84100002510B106E0012070BD4C
:1029D00084F84050204600F023F8242084F8410079
:1029E0002068C16821F40051C160204601F008FC54
:1029F0002068016921F4904101612068416921F05A
:102A00002A0141612068C16841F40051C1606564D8
:102A1000202084F8410084F842006563002070BDE6
:102A20002DE9F04F87B0064614216846FDF79CFD5E
:102A30005548DFF850810222D6F800C000245249E0
:102A4000143803230725DFF844B197064FF4806953
:102A50004FF4807AC44535D1D1F800C04CF0100C49
:102A6000C1F800C0096801F010010591016841F04A
:102A7000010101600068694600F0010005905802FC
:102A80008DE81500CDE903355846FEF7F3FA414DC0
:102A90003F482860C5E90174C5E903496C61C5E98F
:102AA000064A2C6228466C62FEF768FA08B1FDF708
:102AB000DBFEF563002205212520AE63FEF798FCBE
:102AC00025203BE0DFF8D080C4453CD12E49091FCA
:102AD000D1F800C04CF4003CC1F800C0096801F412
:102AE00000310591016841F001010160006869460B
:102AF00000F0010005900C208DE81500CDE90335AC
:102B00005846FEF7B7FA234D244860352860C5E9DA
:102B10000174C5E903496C61C5E9064A2C6228467F
:102B20006C62FEF72BFA08B1FDF79EFEF5630022FA
:102B300005212620AE63FEF75BFC2620FEF74AFC4B
:102B400007B0BDE8F08F164DAC45F9D10D6845F0E2
:102B500020050D60096801F020010591016841F030
:102B6000040101600068694600F004000590C0207F
:102B70008DE815000820CDE903300A48FEF77AFAFF
:102B8000DEE700000010014044380240000002402F
:102B90004064024054160020004400408860024017
:102BA000001401400008024090F84230202B01D070
:102BB0000220704721B11AB10023036301F0A6BBC4
:102BC00001207047074910B588420AD106480078AD
:102BD00000F09CFFBDE81040012203490148FFF7C7
:102BE000E3BF10BDC4150020000000202DE9F8430C
:102BF000044690F84100984616460D46202802D01B
:102C00000220BDE8F88385B17EB1002060642120F8
:102C100084F84100FEF74EFBA6848146E684A06856
:102C20002027B0F5805F02D003E00120E9E72069AA
:102C300010B12E4600250EE000260CE08021204633
:102C400001F07FFBA8B9C6B116F8010B21684860F6
:102C5000E08C401EE084E08C4B464FF00002CDF843
:102C600000800028EAD14FF04001204601F069FBC6
:102C700040B184F841700320C3E735F8020BC0F37C
:102C80000800E3E784F841700020BAE77047FEE7E8
:102C90002DE9F047644E654F0446002505EB4500DD
:102CA00000EBC50007EBC00006EB451120222830E1
:102CB000FDF728FC6D1CEDB2032DEFD304F10800E5
:102CC0005A4A0021814605F007F804F5E470574A96
:102CD0000021804605F000F804F56270534A002197
:102CE000074604F0F9FF04F5A960504A00210646A2
:102CF00004F0F2FF0EE00025C5EBC50004EB8010E8
:102D0000083004F07FFF6D1CEDB2032DF4D90220D2
:102D100005F0E2F894F895010028ECD094F85503FA
:102D20000028E8D094F815050028E4D094F8D506DA
:102D30000028E0D04FF4967005F0CEF83B4A012110
:102D400058321546484604F0C7FF2A46012140463E
:102D500004F0C2FF2A460121384604F0BDFF2A468E
:102D60000121304604F0B8FF0EE00025C5EBC50098
:102D700004EB8010083004F045FF6D1CEDB2032D0C
:102D8000F4D9022005F0A8F894F895010028ECD0B9
:102D900094F855030028E8D094F815050028E4D0ED
:102DA00094F8D5060028E0D04FF4FA7005F094F8B6
:102DB0001E4A0221B0321546484604F08DFF2A46CD
:102DC0000221404604F088FF2A460221384604F0DA
:102DD00083FF2A460221304604F07EFF0EE00025E4
:102DE000C5EBC50004EB8010083004F00BFF6D1C30
:102DF000EDB2032DF4D9012005F06EF894F8950199
:102E00000028ECD094F855030028E8D094F8150574
:102E10000028E4D094F8D5060028E0D0BDE8F047BB
:102E20004FF47A7005F058B8F8A000087C0700202D
:102E3000F0B500230A24302537261F4611E000BFD5
:102E4000B4EB107F02D905EB107C01E006EB107C9F
:102E500001F813C001EB430C00015B1C8CF80170FE
:102E6000DBB29342ECD3F0BD2DE9F047814E824FA7
:102E70000446002505EB450000EBC50007EBC0004C
:102E800006EB451120222830FDF73CFB6D1CEDB20E
:102E9000042DEFD304F10800774A0021824604F0A4
:102EA0001BFF04F5E470744A0021814604F014FF0E
:102EB00004F56270704A0021804604F00DFF04F5AD
:102EC000A9606D4A0021074604F006FF0EE00025C8
:102ED000C5EBC50004EB8010083004F093FE6D1CB8
:102EE000EDB2042DF4D3022004F0F6FF94F895011E
:102EF0000028ECD094F855030028E8D094F8150584
:102F00000028E4D094F8D5060028E0D04FF47A7673
:102F1000304604F0E1FF584A012158321546504628
:102F200004F0DAFE2A460121484604F0D5FE2A467E
:102F30000121404604F0D0FE2A460121384604F023
:102F4000CBFE0FE05FF00005C5EBC50004EB801081
:102F5000083004F057FE6D1CEDB2042DF4D30220AE
:102F600004F0BAFF94F895010028EBD094F85503CB
:102F70000028E7D094F815050028E3D094F8D5068A
:102F80000028DFD0C82004F0A7FF3B4A0221B0325E
:102F90001546504604F0A0FE2A460221484604F099
:102FA0009BFE2A460221404604F096FE2A46022154
:102FB000384604F091FE0FE05FF00005C5EBC50058
:102FC00004EB8010083004F01DFE6D1CEDB2042DE2
:102FD000F4D3022004F080FF94F895010028EBD090
:102FE00094F855030028E7D094F815050028E3D09D
:102FF00094F8D5060028DFD0642004F06DFF1F4A46
:1030000003211546504604F067FE2A460321484630
:1030100004F062FE2A460321404604F05DFE2A4683
:103020000321384604F058FE0EE00025C5EBC5002C
:1030300004EB8010083004F0E5FD6D1CEDB2042DAA
:10304000F4D3022004F048FF94F895010028ECD056
:1030500094F855030028E8D094F815050028E4D02A
:1030600094F8D5060028E0D03046BDE8F04704F0DB
:1030700033BF000078A000081C06002024070020B1
:103080002DE9F05F634E644F0446002505EB4500D3
:1030900000EBC50007EBC00006EB451120222830ED
:1030A000FDF730FA6D1CEDB2042DEFD304F10800EA
:1030B000594A0021834604F00FFE574A04F5E47094
:1030C000583215460121824604F006FE04F562706E
:1030D000514A0021814604F0FFFD04F5A9602A460B
:1030E0000121804604F0F8FD4B4E06F1B00706F5CD
:1030F00084760FE05FF00005C5EBC50004EB80109F
:10310000083004F07FFD012004F0E6FE6D1CEDB2F6
:10311000032DF1D994F895010028EBD094F85503CC
:103120000028E7D094F815050028E3D094F8D506D8
:103130000028DFD068E032460321584604F0CCFD79
:103140003A460221504604F0C7FD32460321484664
:1031500004F0C2FD3A460221404604F0BDFD0FE0F6
:103160005FF00005C5EBC50004EB8010083004F0EB
:1031700049FD6D1CEDB2032DF4D9012004F0ACFE25
:1031800094F895010028EBD094F855030028E7D077
:1031900094F815050028E3D094F8D5060028DFD070
:1031A0003A460221584604F097FD32460321504624
:1031B00004F092FD3A460221484604F08DFD324665
:1031C0000321404604F088FD0EE00025C5EBC50054
:1031D00004EB8010083004F015FD6D1CEDB2032DDA
:1031E000F4D9012004F078FE94F895010028ECD081
:1031F00094F855030028E8D094F815050028E4D089
:1032000094F8D5060028E0D02078042893D0BDE8B3
:10321000F09F0000F89F0008BC0400200F4810B584
:103220000D4901600321416000214FF410228160AB
:10323000C0E903124FF400124261017641768176B3
:10324000C17601774177FDF745FC002803D0BDE842
:103250001040FDF709BB10BD006400402C15002094
:103260000F4810B50D4901600321416000214FF462
:1032700010228160C0E903124FF40012426101760E
:1032800041768176C17601774177FDF723FC0028EE
:1032900003D0BDE81040FDF7E7BA10BD006800405C
:1032A00054150020114808B5016841F4001101606F
:1032B000016801F400110091016841F4800101608E
:1032C0000068002200F48000009005211020FEF725
:1032D0008FF81020FEF77EF8002205213A20FEF735
:1032E00087F8BDE808403A20FEF774B8303802404D
:1032F00010B596B01C2211496846FDF703F900216C
:10330000684604F001FE0E4C0C491C2260601C3122
:1033100007A8FDF7F7F8002107A804F0F5FD074915
:10332000A0601C2238310EA8FDF7ECF800210EA891
:1033300004F0EAFDE06016B010BD0000449A0008F9
:103340000000002070B586B014216846FDF70CF926
:103350001E480024016841F080010160016801F00D
:1033600080010591016841F001010160016801F0EF
:1033700001010591016841F002010160016801F05D
:1033800002010591016841F004010160016801F04A
:1033900004010591016841F00801016000680C4ECC
:1033A00000F008004FF48075059000222946304651
:1033B000FDF77AFF01200095CDE90104694630460A
:1033C0000394FDF757FE06B070BD00003038024090
:1033D000000002400C4810B50A4901600B494160E9
:1033E000002181600C22C160C0E904128161C161C9
:1033F000FFF7E4FA002803D0BDE81040FDF734BA27
:1034000010BD0000001001407C15002000093D00A7
:103410000E4810B50C4901600D4941604FF48051D0
:10342000816000214FF48062C0E903120C22C0E9E0
:103430000521C161FFF7C2FA002803D0BDE81040A2
:10344000FDF712BA10BD000000440040C415002072
:10345000A08601000C4810B50A4901604FF4E13123
:103460004160002181600C22C160C0E904128161C9
:10347000C161FFF7A3FA002803D0BDE81040FDF7B3
:10348000F3B910BD001401400C16002010B5002245
:103490000F49104801F0A0FB08B1FDF7E5F90E490E
:1034A0000C4801F0B5FD08B1FDF7DEF90B490948FC
:1034B00001F05AF908B1FDF7D7F9064801F02CFEE2
:1034C000002803D0BDE81040FDF7CEB910BD0000C4
:1034D000D00A0020DC560020900B0020240B002096
:1034E000FEE7000000B587B0002001900290CDE912
:1034F000030250200A46009006AB69460248FDF7D9
:1035000005FA07B000BD000054150020FEE70000DA
:103510000148FEF7EBB80000D86300201E499FED7C
:103520001F0A1F4A372828D03D2825D131F97A3F74
:1035300000EE903AB1F90200B1F90410F8EEE00A99
:1035400020EE801ADFED170A21EE201A82ED001A14
:1035500001EE100AB8EEC11A21EE001A21EE201A6F
:1035600082ED011A01EE101AB8EEC11A21EE000A1E
:1035700020EE200A82ED020A7047B1F9720000EED7
:10358000900AF8EEE00A20EE800ADFED070A20EE4E
:10359000200A82ED050A7047BC5500200000003863
:1035A000B4170020000034430000FA442DE9F04134
:1035B00003680D4604461E6C03EB4511D1F8080B59
:1035C00094F806E04FF400474FF0200C04F29C42C0
:1035D000BEF1010F09D0DFF898E0764539D1020439
:1035E00032D500BFC1F8087B3FE0224B5FEA007E86
:1035F00004D59E4239D90004F4D436E05FEA806EE7
:1036000002D5C1F808CB30E010F0280F2DD19E4232
:1036100001D90004E6D405EBC50004EB8000D1F825
:10362000101BD0F87432C1F31201591AC0F8681295
:1036300000F51570ADB903691BB1C2681144C160D2
:103640000FE0012120680AE080060AD5C1F808CB06
:1036500007E035B9D4F8640218B90021184602F021
:10366000DDF8E9B22046FDF729FF0020BDE8F08132
:103670000A31544F0A30544F2DE9F84F0E4601EBF2
:10368000C60100EB810481460568D4E909101434B1
:10369000884202D90120BDE8F88F081AA16881424A
:1036A00000D20846C01C870805EB46181BE000BF87
:1036B000A0EB010AA068504500D282460AF103003F
:1036C000870899F8060000901FFA8AF3F2B228469C
:1036D000E16802F0E1FBE16801EB0A00E06061698A
:1036E00001EB0A006061D8F8180980B2B84205D32E
:1036F000D4E90401814201D20028D9D1D4E90401DE
:10370000884208D806F00F0101208840D5F8341807
:103710008143C5F834180020BDE7000010B5044609
:103720002DED088B90ED6C0A80ED010A90ED6D0A8D
:1037300080ED020A006906F091F841EC100B9FED54
:10374000B3ABB0EE4A1AF0EE6A1A03F08DF9B0EEA0
:10375000409AF0EE609AE06806F080F841EC100BB9
:10376000B0EE4A1AF0EE6A1A03F07EF9B0EE408A23
:10377000F0EE608AA06806F071F841EC100BB0EE34
:103780004A1AF0EE6A1A03F06FF9B0EE40BAF0EEA2
:1037900060BA606806F062F841EC100BB0EE4A1AAD
:1037A000F0EE6A1A03F060F9B0EE401AF0EE601A1B
:1037B00053EC1B2B51EC110B05F0E0FA53EC182BDA
:1037C00005F0DCFA53EC192B05F05EFF05F0A4FAC6
:1037D000E061A06806F042F841EC100BB0EE4A1A26
:1037E000F0EE6A1A03F040F9B0EE408AF0EE608A1B
:1037F000606806F033F841EC100BB0EE4A1AF0EEB8
:103800006A1A03F031F953EC182B51EC100B05F048
:10381000B5FA05F081FA00EE100A03F04DFFD4ED81
:10382000030AB0EE009A94ED071A60EE890A60EE82
:10383000200A81EE200A10EE100A06F00FF841EC83
:10384000100B02F001FDB0EE40BAF0EE60BA606815
:1038500006F004F841EC180BA06805F0FFFF41ECFE
:10386000100BB0EE481AF0EE681A03F005F8B0EE4F
:10387000401AF0EE601A53EC1B2B51EC110B05F0C3
:1038800003FF05F049FA6061606805F0E7FF41EC6D
:10389000180BA06805F0E2FF41EC100BB0EE481ADF
:1038A000F0EE681A02F0E8FFB0EE408AF0EE608AAF
:1038B000A06805F0D3FF41EC100BB0EE4A1AF0EE11
:1038C0006A1A03F0D1F8B0EE40BAF0EE60BA606860
:1038D00005F0C4FF41EC100BB0EE4A1AF0EE6A1A84
:1038E00003F0C2F8B0EE401AF0EE601A53EC1B2B56
:1038F00051EC110B05F042FA05F00EFA00EE100A39
:1039000003F0DAFED4ED030A94ED071A60EE890A9B
:1039100060EE200A81EE200A10EE100A05F09EFFEC
:1039200041EC100B02F090FCB0EE401AF0EE601A81
:1039300053EC182B51EC110B05F020FA05F0ECF9C3
:1039400000EE900ADFED331AC4ED060A20789FEDF1
:10395000320A9FED321A01280AD002280DD003281E
:10396000DFED2F1A9FED2F1A0CD004281BD02CE06E
:1039700094ED302A72EE211A08E094ED302A72EEAE
:10398000611A14E094ED302A72EE611A94ED052A62
:1039900042EE001AC4ED2D1AD4ED581A31EE811AF8
:1039A00000EEC01A0FE094ED302A72EE211A94ED69
:1039B000052A42EE401AC4ED2D1AD4ED581A31EE04
:1039C000C11A00EE801A84ED551A94ED5D1A01219A
:1039D00084ED2B1AD4ED5E0A04F12800C4ED2C0A04
:1039E00094ED600A84ED2E0A84ED531AC4ED540A56
:1039F00084ED560AFCF75CFFBDEC088B04F1C800AF
:103A00000121BDE81040FCF753BF0000000000009A
:103A100000000040B69E5A415C8FCA40ED278D41A0
:103A20006CD30E40F0280642034804F0C1FC0A2083
:103A300004F052FAF8E70000D00B002010B5044C57
:103A4000A078002803D000F005F80021A17010BD77
:103A50003C0A00202B48B0F80110C1F30A0200F123
:103A600019010A808278D308C27843EA4213C3F36B
:103A70000A034B800379920942EA8303427943EABD
:103A80008223C3F30A038B805308827943EAC2136B
:103A9000C3F30A03CB801309C27943EA0213C3F3C9
:103AA0000A030B81037AD20942EA4303427A43EACA
:103AB0004223C3F30A034B819308827A43EA8213B9
:103AC000C3F30A038B81C37A520942EAC302CA8153
:103AD0008289C2F30A020A82427B837BD20842EACD
:103AE0004312C2F30A024A8207490022CA70C07D0B
:103AF000420701D5012002E0000701D50320C8706C
:103B0000C8787047751700203C0A002070B5144C27
:103B100000221449237801254BB163785B1CDBB28A
:103B20006370C8546078182809D3012008E00F2872
:103B3000F8D12570A27062700870FF20087600200E
:103B40002378184209D02270087E30B9054919221D
:103B500001F11900FCF791FCA570A07870BD000080
:103B60003C0A00205C1700202DE9FC41054600209E
:103B7000ADF804000C46284604F0DCF801221D4F85
:103B8000160231463846FDF78FFB01223146384692
:103B9000FDF78AFB0A23112229461748FFF726F86A
:103BA000002231463846FDF77FFB00223146384679
:103BB000FDF77AFB0A20009001AB102221460E4847
:103BC000FEF741FDBDF8040010B1102809D102E054
:103BD0000320BDE8FC812078FD2802D16078EE2822
:103BE00001D00120F5E701202062204603F074FF98
:103BF0000020EEE7000002407C15002001784078AC
:103C000041EA002070470000FFF740FC03F0C8FFC6
:103C1000012206490648FEF7C7FF4FF47A7400BF39
:103C200002F090F9204604F057F9F9E7000000206F
:103C3000C415002010B5502080F31188BFF34F8FBA
:103C4000BFF36F8F04F094FF18B104494FF0805018
:103C50000860002080F3118810BD000004ED00E032
:103C600030B593B030216846FCF77EFC14210CA8D7
:103C7000FCF77AFC1D480025016841F08051016085
:103C8000006800F0805011901948016841F44041EB
:103C900001600068022400F440401190012000906F
:103CA000000401908001CDE9064004200890A8207E
:103CB000CDE9090407200B906846FEF7F7F908B133
:103CC00072B6FEE70CA90F2081E831004FF4A05036
:103CD0000F904FF48050109005210CA8FEF7D6F8F5
:103CE000002801D072B6FEE713B030BD4038024064
:103CF000007000400248016841F4700101607047A3
:103D000088ED00E00148FEF7F8BB00001417002022
:103D1000F0B50268274B284D284E294F294C4FF00B
:103D2000804C984209D0604507D0A84205D0B042E7
:103D300003D0B84201D0A04204D122F0700E4A68EC
:103D400042EA0E0298421BD0604519D0A84217D013
:103D5000B04215D0B84213D0A04211D01A4DA8429B
:103D60000ED01A4DA8420BD0194DA84208D0194DBB
:103D7000A84205D0184DA84202D0184DA84203D140
:103D800022F44075CA682A434D6922F080022A4312
:103D90008D68C5620D688562984201D0A04201D14C
:103DA00009690163016841F0040101600121416179
:103DB0000260F0BD00000140000400400008004027
:103DC000000C00400004014000400140004401405C
:103DD0000048014000180040001C00400020004046
:103DE0002DE9FF5FBC4EBD4F0446002505EB4500A5
:103DF00000EBC50007EBC00006EB45112022283080
:103E0000FCF780FB6D1CEDB2082DEFD3B348227890
:103E100004F5E471019104F5A961009100F51A71AE
:103E20000391583900F1580500F1B00700F5847688
:103E300004F1080904F5627800F5B07B00F5DC7A3E
:103E40000291022A16D0032A7ED10246002101984F
:103E500003F042FF2A460121009803F03DFF32465D
:103E60000321484603F038FF3A460221404603F05A
:103E700033FFB3E02A460121019803F02DFF974A52
:103E80000021009803F028FF3A460221484603F03B
:103E900023FF32460321404603F01EFF0EE00025BB
:103EA000C5EBC50004EB8010083003F0ABFE012029
:103EB00004F012F86D1CEDB2032DF1D994F89501C0
:103EC0000028ECD094F855030028E8D094F81505A4
:103ED0000028E4D094F8D5060028E0D06AE0072155
:103EE000039A019803F0F8FE0621029A009803F065
:103EF000F3FE5A460421484603F0EEFE52460521E1
:103F0000404603F0E9FE0FE05FF00005C5EBC50099
:103F100004EB8010083003F075FE6D1CEDB2032D2C
:103F2000F4D9012003F0D8FF94F895010028EBD0D4
:103F300094F855030028E7D094F815050028E3D03D
:103F400094F8D506002800E037E0DDD05246052180
:103F5000019803F0C1FE5A460421009803F0BCFE0C
:103F600006214846029A03F0B7FE07214046039A0D
:103F700003F0B2FE0EE00025C5EBC50004EB801097
:103F8000083003F03FFE6D1CEDB2032DF4D9012083
:103F900003F0A2FF94F895010028ECD094F85503A3
:103FA0000028E8D094F815050028E4D094F8D50648
:103FB0000028E0D02078022891D0BDE8FF9F00259E
:103FC000C5EBC50004EB8010083003F01BFE012098
:103FD00003F082FF6D1CEDB2032DF1D994F8950129
:103FE0000028ECD094F855030028E8D094F8150583
:103FF0000028E4D094F8D5060028E0D068E0DDE998
:104000000102062103F068FE0721039A009803F0DD
:1040100063FE52460521484603F05EFE5A460421DF
:10402000404603F059FE0FE05FF00005C5EBC50008
:1040300004EB8010083003F0E5FD6D1CEDB2032D9C
:10404000F4D9012003F048FF94F895010028EBD043
:1040500094F855030028E7D094F815050028E3D01C
:1040600094F8D5060028DFD05A460421019803F0C1
:1040700033FE52460521009803F02EFE07214846E4
:10408000039A03F029FE06214046029A03F024FE1B
:104090000EE00025C5EBC50004EB8010083003F0EE
:1040A000B1FD6D1CEDB2032DF4D9012003F014FF16
:1040B00094F895010028ECD094F855030028E8D036
:1040C00094F815050028E4D094F8D5060028E0D02F
:1040D0002078032893D070E7F89E0008FC010020A8
:1040E00010B5806B0021C185FEF726FB10BD01686D
:1040F0000C3151E8002F22F4907241E80023002B8C
:10410000F5D10168143151E8002F22F0010241E895
:104110000023002BF5D1016B012909D101680C3175
:1041200051E8002F22F0100241E80023002BF5D1C6
:10413000202180F8421000210163704708B590F8F3
:104140004210222901D0022008BD82684FF480531A
:104150009A4201D1016921B1816A9A421BD04AB1C8
:104160000AE00268816A5268C2F308020A80816A22
:10417000891C08E0026972B10268526802F07F028D
:104180000A70816A491C8162C18D491E0904090CAB
:10419000C18503D01BE002685268F1E70168CA6874
:1041A00022F02002CA600168CA6822F48072CA60E4
:1041B00001684A6922F001024A61202180F8421018
:1041C00000214163026B012A03D0FEF7FBFC0020B3
:1041D00008BD016301680C3151E8002F22F0100284
:1041E00041E80023002BF5D101680A68D20602D508
:1041F0000A6849680091818DFEF79DFAE7E70000A3
:1042000070B5044600680169E26821F44051114329
:1042100001612169A068E2690843616911430843AB
:104220002168CA6849F20C639A430243CA60206855
:104230004169A26921F4407111434161314920680B
:10424000884202D03049884202D1FDF7EFFE01E0FA
:10425000FDF7DCFEE2690023192164253226B2F560
:10426000004F626828D0A0FB0101930F9200FCF779
:104270008DF80146B0FBF5F06FF01802504301EBEA
:10428000800006EB0010B0FBF5F000F0F002B1FB8F
:10429000F5F002EB0012B1FBF5F06FF01803584394
:1042A00001EB800006EB0010B0FBF5F000F00F0012
:1042B00021681044886070BDA0FB010192185B4129
:1042C000FCF764F80146B0FBF5F00201B1FBF5F034
:1042D0006FF01803584301EB800006EBC000B0FB01
:1042E000F5F000F0F80002EB4002B1FBF5F05843A6
:1042F00001EB800006EBC000B0FBF5F000F007001A
:10430000D6E7000000100140001401408162828560
:10431000C28500214164222180F84210016921B147
:104320000168CA6842F48072CA6001684A6942F052
:1043300001024A610068C16841F02001C1600020AB
:1043400070472DE9F843984617460D460446089EE7
:1043500024E0701C22D0FCF7ADFFA0EB0800B042B7
:104360001AD8CEB12068C168490717D5802D15D05D
:10437000402D13D00168C94309070FD401680025F7
:10438000406800902046FFF7B2FE0820606484F881
:1043900040500120BDE8F8830320FBE72068006857
:1043A00035EA000004D00020B842D2D00020F1E766
:1043B0000120F9E70148FEF7C1B900007C15002093
:1043C0000148FEF7BBB90000C41500202DE9F041FB
:1043D0000C46D0F8D412D0F8C82200EB8101D1F8F5
:1043E000C01229B304F00F0606EB860300EB830529
:1043F00000276B694BB106EBC60602EB8602D26959
:10440000B3FBF2F602FB1632A2B1C1F81472D0F877
:10441000D42200EB8200D0F8C40203692BB1D1F89A
:104420000802224601F5047198470020BDE8F0819A
:104430000320FBE700231A4621466F6100F0C9FD07
:10444000F3E770B50546D0F8D40205EB8000D0F84C
:10445000C04294B1284600F09BFCC4F80C02D5F889
:10446000D412D4F8040205EB8101D1F8C412CA6851
:1044700004F503719047002070BD032070BD00005B
:1044800070B5234D0446297800F0C2FB2878002639
:1044900000F00F0000EB800004EB800080F8236048
:1044A0006978204600F0B4FB687800F00F0000EB5C
:1044B000800004EB800080F86361A978204600F05A
:1044C000A7FBA87800F00F0000EB800004EB800051
:1044D00080F82360C661D4F8D40204EB8000D0F8E1
:1044E000C01299B1D0F8C40240688047D4F8D40211
:1044F00004EB8000D0F8C00200F092FFD4F8D402A0
:1045000004EB8000C0F8C062C4F8BC62002070BD3B
:104510003C0B002010B5D0F8D41200EB8100D0F88D
:10452000C04284B1D0F8C41259B194F80002FF28F7
:1045300007D08B6894F8012221469847FF2084F821
:104540000002002010BD032010BD00000A210180E0
:1045500000487047400B002070B5064682210C4889
:1045600000F0D9FA05460121094800F0D4FA0446C2
:104570008121074800F0CFFA0DB11021A971402127
:1045800004B1A18000B1818043203080004870BD1B
:104590004C0B002070B5064682210D4800F0BBFA96
:1045A000054601210A4800F0B6FA04468121084870
:1045B00000F0B1FA0DB11021A9714FF4007104B1EE
:1045C000A18000B1818043203080014870BD00008F
:1045D0004C0B002070B5064682210C4800F09BFA77
:1045E00005460121094800F096FA04468121074852
:1045F00000F091FA0DB11021A971402104B1A18000
:1046000000B1818043203080004870BD4C0B0020F9
:104610002DE9F04704464FF40775284600F002FFE5
:1046200006004FF0000865D02946FBF79DFFD4F83F
:10463000D4023E4D04EB80004FF01009C0F8C06278
:10464000C4F8BC62207C4FF4007A0127E8B3402311
:1046500002222978204600F006FC2878402300F04A
:104660000F0000EB800004EB800080F82370022232
:104670006978204600F0F7FB6878082300F00F0007
:1046800000EB800004EB8000032280F86371A978BE
:10469000204601F00F0101EB810104EB8101C1F81B
:1046A0001C90A97800F0DFFBA87800F00F0000EB69
:1046B000800004EB800080F82370C6F80482D4F8F0
:1046C000D402474604EB800000E01BE0D0F8C402AF
:1046D00006F50176006880473761776132687AB104
:1046E000207C00B340236978204600F0C8FB0020FE
:1046F000BDE8F087D4F8D41204EB8101C1F8C08280
:104700000220F5E7534602222978204600F0ABFB51
:104710002878534600F00F0000EB800004EB800087
:1047200080F82370A3E75346DDE700003C0B002030
:1047300010B5D0F8D41200EB8101D1F8C01259B1F4
:10474000027C084C002AD1F8042207D0402361786B
:1047500000F095FB002010BD032010BD4FF4007346
:10476000F5E700003C0B002039B1D0F8D42200EB73
:104770008200C0F8C4120020704703207047D0F8B0
:10478000D42200EB8200D0F8C00218B1C0F80412A5
:104790000020704703207047D0F8D43200EB83002C
:1047A000D0F8C00228B1C0F81022C0F808120020CA
:1047B0007047032070472DE9FC410646D0F8D4022B
:1047C0000C4606EB80000021D0F8C0728DF8001076
:1047D000ADF804100D4637B1217811F060022FD0EA
:1047E000202A4BD102E00320BDE8FC81E288F2B12F
:1047F00009060DD5D0F8C40263783946D0F808C050
:104800001846E047E288072A00D9072239462DE0FA
:10481000607887F80002E088402800D34020C2B2C8
:1048200087F801223946304600F058F82BE0D0F8DE
:10483000C40263780022866821461846B04722E009
:10484000607830B101281ED00A2809D00B2815D174
:1048500010E096F89C02032810D1022201A905E07D
:1048600096F89C02032809D101226946304600F0DF
:1048700051F808E096F89C02032804D021463046FF
:1048800000F021F803252846AEE710B5D0F8B8228D
:1048900000245268904700B10324204610BD002038
:1048A000704700207047134610B50A46002100F0FB
:1048B000E6FA002010BD134610B50A46002100F0AC
:1048C00088FB002010BD10B50446802100F062FB7B
:1048D0002046BDE81040002100F05CBB10B503236A
:1048E000C0F89432C0F85421C0F858211346C0F8DB
:1048F00064110A46002100F0C2FA002010BD10B574
:104900000521C0F8941200231A46194600F0B7FAA0
:10491000002010BD10B50223C0F8943242618261BC
:10492000134641620A46002100F053FB002010BDEF
:1049300010B50421C0F8941200231A46194600F05D
:1049400048FB002010BD000010B50A46024903A034
:1049500000F00FF9004810BDB8590020434443202F
:10496000436F6E6669670000122008800048704738
:10497000F00A002010B50A46024903A000F0F9F839
:10498000004810BDB859002043444320496E746567
:10499000726661636500000004200880004870476B
:1049A000EC0A002010B50A46024903A000F0E1F825
:1049B000004810BDB859002053544D6963726F65AB
:1049C0006C656374726F6E696373000010B50A469C
:1049D000024903A000F0CDF8004810BDB8590020EE
:1049E00053544D3332205669727475616C20436F95
:1049F0006D506F727400000010B51A2008800A48CC
:104A00000168001D0468001D0068081809D008220C
:104A10000649FEF70DFA0549042210312046FEF73B
:104A200007FA0248801E10BD107AFF1F060B0020F7
:104A3000F8B504460020ADF8000048880D46010A8C
:104A400008295FD2DFE801F05E0409175E5E3C458D
:104A5000D4F8B412207C0A6819E0207C02260028D1
:104A6000D4F8B80205D0C16A684688470146467046
:104A700039E0816AF8E7C0B2062843D2DFE800F0E7
:104A8000030A1014181CD4F8B402426805E0694601
:104A900090471CE0D4F8B402826892B3207CF6E719
:104AA000D4F8B402C268F8E7D4F8B4020269F4E7B3
:104AB000D4F8B4024269F0E7D4F8B4028269ECE7B2
:104AC000207CF0B9D4F8B802416B684688470146AB
:104AD00009E0207CA8B9D4F8B802016B6846884781
:104AE000014607204870EA888AB1BDF8000040B14D
:104AF000824200D90246ADF800202046FFF70AFFA7
:104B0000F8BDFFE729462046FFF7DDFEF8E720461F
:104B1000FFF70EFFF4E778B50E46428801780025CE
:104B200004468A4212D9ADF800100AE0694600F046
:104B300019F84178052904D181780546B14205D09C
:104B400000256188BDF800209142EFD8284678BD45
:104B50000146002002E0401CC0B2491C0A78002A2D
:104B6000F9D170470A8803781A440A80017808440A
:104B7000704770B516460D46002820D00446FFF752
:104B8000E7FF022101EB40014FF40070814204D89D
:104B90002046FFF7DDFF4000801C30803078287011
:104BA000032068700220002206E02954401CC0B295
:104BB0002A54401CC0B2641C21780029F5D170BD74
:104BC00001004FF0000004D0012901D0022901D0DA
:104BD000032070470120704778B10023C0F8B83235
:104BE000C0F8C432C0F8D03209B1C0F8B412012103
:104BF00080F89C12027000F0CFB80320704710B507
:104C0000D0F8C802FCF79CFCBDE81040FFF7D8BF05
:104C100010B5D0F8C802FCF76EFCBDE81040FFF7F5
:104C2000CFBF70B50446002521B194F89C0203283B
:104C300046D050E0D4F8941204F11400022939D17E
:104C4000818942688A420AD9511A41608289016980
:104C50001144016142682046FFF72DFE0FE09142AA
:104C600014D10068884211D3D4F8981288420DD22A
:104C7000002211462046FFF71EFEC4F8985200237A
:104C80001A461946204600F0FAF813E094F89C0200
:104C9000032808D1D4F8B802C16821B1C4F8D452AD
:104CA000C168204688478021204600F073F92046DD
:104CB000FFF725FE94F8A00268B184F8A0520AE03C
:104CC000D4F8B802426932B1C4F8D45242692046DD
:104CD0009047002800D1002070BD10B50446002286
:104CE00021B194F89C02032834D03EE0D4F8941209
:104CF00004F5AA70032938D1818943688B420ED903
:104D0000591A4160828901691144016142688089B0
:104D1000824200D802462046FFF7C5FD25E094F800
:104D2000AA0210F01F0003D0012802D0022800D0F0
:104D3000002294F89C02032808D1D4F8B802016933
:104D400021B1C4F8D4220169204688472046FFF7E4
:104D5000EFFD0AE0D4F8B802836933B1C4F8D42275
:104D6000826920469047002800D1002010BD002015
:104D7000704710B50024012180F89C12D0F8B822A9
:104D800022B152680179904700B10324204610BD3A
:104D9000D0F8C802FCF701BC10B5017839BB154941
:104DA0000222C1F8E004C0F8C8124FF0A040086029
:104DB00004200871CA71002088714A728872C87212
:104DC00008738873C8730846FCF746FF08B1FBF701
:104DD0004BFD80210748FCF73EFB4022002105489F
:104DE000FCF73DFB802201210248FCF738FB002044
:104DF00010BD0000D86300200A0601F07F01D0F842
:104E0000C80201EBC10100EB810001D5807D704734
:104E100090F85602704710B5D0F8D42200EB820209
:104E2000D2F8B82222B190F89C32032B02D004E0D1
:104E3000032010BD126A02B19047002010BD10B5CA
:104E4000D0F8D42200EB8202D2F8B82222B190F836
:104E50009C32032B02D004E0032010BD526A02B141
:104E60009047002010BD10B51C461346D0F8C8026C
:104E70002246FCF79BFBBDE81040FFF7A1BE10B532
:104E8000D0F8C802FCF7C3FBBDE81040FFF798BE9E
:104E90002DE9F04100260125044680F89C52C4F813
:104EA00094626660C4F8A46280F8A062D0F8B80288
:104EB00030B1426822B100212046904700B103265C
:104EC0000022402311462046FFF7CDFF402784F8FB
:104ED0006351A4F860713B46002280212046FFF711
:104EE000C2FF84F8235027843046BDE8F08190F853
:104EF0009C12042903D190F89D1280F89C12002086
:104F0000704710B590F89C12032905D1D0F8B8125B
:104F100011B1C96901B18847002010BD017400209A
:104F2000704710B5D0F8C802FCF75CFFBDE8104030
:104F3000FFF746BE70B5044600F2AA20054600F011
:104F400051F80120C4F89402B4F8B002C4F89802F1
:104F500094F8AA0210F01F010AD001290ED00229EC
:104F600012D000F080012046BDE8704000F012B879
:104F700029462046BDE8704000F0D0B829462046BA
:104F8000BDE8704000F013BA29462046BDE87040E5
:104F900000F05AB910B5D0F8C802FCF754FBBDE8D0
:104FA0001040FFF70DBE10B5D0F8C802FCF734FF73
:104FB000BDE81040FFF704BE90F89C12042903D00E
:104FC00090F89C1280F89D12042180F89C12002019
:104FD000704710B5D0F8C802FCF76EFBBDE8104072
:104FE000FFF7EEBD70B5054611F8010B2870087883
:104FF00068704C1C2046FEF701FE6880A41C204609
:10500000FEF7FCFDA880A01CFEF7F8FDE88070BD4F
:1050100038B504460020ADF80000A1B1C4F8B812BC
:10502000D4F8D40204EB8000D0F8B802C16A19B1F8
:1050300068468847C4F8D002D4F8D802401CC4F8A7
:10504000D802002038BD032038BD02460020D2F827
:10505000B832002B02D01B6810461847704700007A
:105060002DE9F04188462B4E8978002504463170A1
:10507000012906D941462046FFF725FC0320BDE85B
:10508000F08194F89C02022702280CD003281DD03E
:1050900041462046FFF717FC31782046FFF7F5FB25
:1050A00003252846EBE789B320466160FFF7CDFF73
:1050B000050004D041462046FFF705FC1DE02046D0
:1050C000FFF736FC032084F89C02EAE7C1B1606870
:1050D00088421BD0C1B22046FFF7D7FB317820466B
:1050E0006160FFF7B2FF050010D041462046FFF790
:1050F000EAFB21792046FFF7C8FB84F89C72D0E7D1
:1051000084F89C7220466160FFF7BFFB2046FFF7E2
:105110000FFCC6E7380B0020FFF745BF2DE9F04133
:105120000A78002512F060020CD0202A01D0402A13
:105130007DD1D0F8D42200EB8202D2F8B822926856
:10514000904731E04B78002201260A2B6FD2DFE82E
:1051500003F041666E586E08056E2D29FFF768FC56
:1051600067E004468888D8B9C888C8B948888028C4
:1051700016D200F07F0794F89C02032810D084F820
:105180009E7239462046FFF7CCFE2046FFF7D0FB43
:105190001FB1022084F89C024BE084F89C6248E036
:1051A000204644E0FFF75CFF054642E0CB88012B38
:1051B0003DD190F89C32012B04D0022B02D0032B5E
:1051C00035D104E08260012200F1080116E00122DD
:1051D000011D13E090F89C22012A03D0022A01D07D
:1051E000032A24D1CA88022A21D1C660D0F8A41289
:1051F00009B10321C160022200F10C01FFF78AFB13
:1052000017E04A88012A02D0022A03D00FE0C0F832
:10521000A46216E08988090A80F8A01211E090F8CB
:105220009C32012B08D0022B06D0032B04D0FFF7B1
:105230004AFB2846BDE8F08149880129F9D1C0F828
:10524000A422FFF775FBF4E72DE9F0410546087845
:105250000C790E464FF0000810F060000BD02028AB
:1052600001D040286BD121462846FFF718FBFF28C4
:1052700000D0D8B398E07078C8B3012824D00328B0
:105280005DD195F89C02022802D0032857D10CE08A
:10529000002C54D0802C52D021462846FFF77AFEAD
:1052A00080212846FFF776FE7EE0708840B93CB149
:1052B000802C05D0C88818B921462846FFF76AFE19
:1052C0002846FFF735FB6FE095F89C020228DFD0F7
:1052D000032866D1708888BB600603D02146284623
:1052E000FFF78DFC2846FFF723FBBCE700E00AE050
:1052F000C5F8D402D5F8B8028268FAB1314628461A
:105300009047804650E095F89C020027022802D082
:10531000032846D114E00CB1802C42D1200604F0C1
:105320007F0000EB800005EB800101D5143101E026
:1053300001F5AA71022201F80E7F2EE034E030E080
:10534000200604F00F0000EB800005EB80000AD57A
:1053500090F8230028B304F07F0000EB800005EBF9
:10536000800614360AE090F86301D0B104F07F00A3
:1053700000EB800005EB800606F5AA764CB1802C88
:1053800007D021462846FFF737FD10B10120B07342
:1053900000E0B773022206F10E012846FFF7BAFAC1
:1053A00002E02846FFF78FFA4046BDE8F08170B56D
:1053B0000546087800240E4610F0600003D020282F
:1053C00001D0402827D195F89C02012803D002285B
:1053D00001D003281FD1B088C1B201291AD8C1B2A7
:1053E0002846FFF75EFAFF280CD058B9D5F8B81256
:1053F0008A683AB1C5F8D4028A683146284690478F
:10540000044600E00324F088204307D12846FFF734
:105410008FFA03E031462846FFF755FA204670BD63
:105420007047000000487047B861002070B50A78E6
:10543000012302F00F054E78AB401B4CD0F81C58EE
:10544000012E17D045EA0343C0F81C3800EB421088
:10545000D0F8002B12040BD4D0F8002B0B8909795B
:10546000C3F30A031A4344EA81410A43C0F8002BFC
:10547000002070BD9BB21D43C0F81C5800EB4210C9
:10548000D0F800391B04F3D4D0F800390D8909791C
:10549000C5F30A0589042B4341EA82510B43234398
:1054A000C0F80039E4E7000000800010D0F80019CF
:1054B0006FF30A01C0F80019D0F8041841F48071A4
:1054C000C0F804180020704770B50D460446C2F3BA
:1054D000072104981E4601291BD0E06840F04000D7
:1054E000E060204600F032F8C6F307210029A16BE6
:1054F00026D021F48031A163C5F30741012907D1EA
:10550000A16841F00601A160A16841F02001A160FD
:1055100070BDA16B21F48031A163E1680A4A11409A
:10552000E160E16821F44011E160C0B2012803D1DB
:10553000E06840F48010E060204600F007F8DBE708
:1055400041F48031D7E70000BFFFBDFF08B500215F
:1055500000914FF07061009A521C00928A4210D85C
:105560000269002AF7DA0A220092521E0092FCD148
:10557000026942F001020261009A521C00928A42C2
:1055800001D9032008BD0269D207F5D1002008BD6A
:1055900030B54C780A78012300EB4212012C2CD054
:1055A000D2F8004B002C0BDAD2F8004B44F0006428
:1055B000C2F8004BD2F8004B44F08044C2F8004BD4
:1055C000D0F83C580C7804F00F0403FA04F425EAF0
:1055D0000444C0F83C48D0F81C48097801F00F0199
:1055E0008B4024EA0341C0F81C18D2F8000B19497B
:1055F0000840C2F8000B002030BDD2F80049002C52
:105600000BDAD2F8004944F00064C2F80049D2F83D
:10561000004944F08044C2F80049D0F83C480D7875
:1056200005F00F0503FA05F5ADB2AC43C0F83C48F0
:10563000D0F81C48097801F00F018B4099B28C43D7
:10564000C0F81C48D2F8000903490840C2F8000914
:10565000D1E700000078F3EF007833ECD0F8001EBB
:1056600021F00301C0F8001ED0F8041821F0020157
:10567000C0F8041800207047D0F8001E21F0030184
:10568000C0F8001ED0F8041841F00201C0F8041858
:10569000002070472DE9F04F00250E4604461746BE
:1056A0002846294604EB8002C2F80411401C0F284A
:1056B000F8D3C3F307405FEA0009204616D0806B99
:1056C00020F40012A263A06B40F40022A2630846FB
:1056D00088462146C4F8000EC7F30720012817D0DA
:1056E0000846D1F8001841F0030118E0D0F804088A
:1056F00040F00202C4F80428A06B40F40012A26338
:10570000A06B20F40022A263A06B20F48022DDE7CE
:10571000300E0846D1F8001801D041F00101C0F860
:105720000018102100F08BFA00B10125204600F08E
:105730006AFA00B101254046C4F81088C4F81488FC
:10574000C4F81C8800214FF0006B4FF0904E4FF6CC
:105750007F3AF2B215E000BF04EB4113D3F800C961
:10576000BCF1000F06DA11B1C3F800E904E0C4F897
:1057700000B901E0C3F80009C3F81009C3F808A98B
:10578000491C8A42E8D8002115E000BF04EB411310
:10579000D3F800CBBCF1000F06DA11B1C3F800EB6F
:1057A00004E0C4F800BB01E0C3F8000BC3F8100B21
:1057B000C3F808AB491C8A42E8D8D4F8101821F481
:1057C0008072C4F81028A0616FF080406061C6F359
:1057D000074018B9A06940F01000A061A0690A490B
:1057E0000843A061C7F3074018B1A06940F0080062
:1057F000A061B9F1010F03D1A06904490843A06178
:105800002846BDE8F08F000000383C8004000040CE
:10581000816821F0010181600020704710B5036CA0
:10582000134CA34203D9D0F8003B002B1EDB00230E
:10583000C0F8103BD0F8103B43F40023C0F8103BF5
:10584000D0F8103B43F01803C0F8103BD0F8103BE1
:1058500043F0C043C0F8103B012907D1C0F8142B16
:10586000D0F8001B41F08021C0F8001B002010BDC3
:105870000A30544F4A780B78012A00EB43100BD0C2
:10588000D0F8002B22F40012C0F8002B097903296C
:1058900014D0022912D017E0D0F8002922F4001207
:1058A000C0F800290979032901D002290CD1D0F8C8
:1058B000001941F08051C0F8001905E0D0F8001B34
:1058C00041F08051C0F8001B002070470A784B78E7
:1058D000D1B200EB4110012B12D0D0F8001B0029EF
:1058E00006DB2AB1D0F8001B21F08041C0F8001B74
:1058F000D0F8001B41F40011C0F8001B00207047D5
:10590000D0F80019002906DB2AB1D0F8001921F0DF
:105910008041C0F80019D0F8001941F40011C0F816
:105920000019EBE7F8B50C784F788B4DE3B26FF0C8
:10593000604600EB4313012F29D0D3F8107B6FF39F
:105940001207C3F8107BD3F8107B2F40C3F8107BED
:10595000002C7DD00D69002D7BD08C6825446D1EF8
:10596000B5FBF4F5ADB26C430C62D3F8104B06EA0C
:10597000C5452C43C3F8104BD3F8104B0D6AC5F343
:1059800012052C43C3F8104B012A70D0CBE00F69ED
:10599000EFB1D3F810796FF31207C3F81079D3F889
:1059A00010792F40C3F810790CB30F698D682F441C
:1059B0007F1EB7FBF5F5D3F81079ADB206EAC54600
:1059C0003743C3F810790E79012E1CD02AE0D3F8A2
:1059D00010692E40C3F81069D3F8105945F400251A
:1059E000C3F81059D3F810596FF3120520E00E696F
:1059F0008D68AE4200D90D61D0F8105945F40026EB
:105A0000C0F810690EE0D3F8106926F0C046C3F85C
:105A10001069D3F810694FF0C04707EA45752E4367
:105A2000C3F81069D3F810590E69C6F3120635434E
:105A3000C3F81059012A1BD000EB4413D3F80049D6
:105A400044F00444C3F800490C79012C31D001E042
:105A500044E057E00A695AB3D0F83428097801F0D5
:105A60000F03012199400A43C0F8342871E056E041
:105A7000CA691AB100EB4413C3F814290979012942
:105A80000ED1D0F80818C90500EB4411D1F800294F
:105A900002D442F0005201E042F08052C1F80029E5
:105AA00000EB4410D0F8001941F00441C0F800198F
:105AB0004FE0D0F80848E405D3F8004902D444F098
:105AC000005401E044F08054C3F8004900920A8A6F
:105AD00093B20A78C96800F0DFF93AE00C690CB1BA
