:020000040800F2
:1000000078D700208102000825500008C947000861
:10001000F54F0008170F0008CD870008000000000A
:10002000000000000000000000000000C101000806
:100030008D120008000000001D020008E1540008B5
:100040009B0200089B0200089B0200089B0200081C
:100050009B0200089B0200089B0200089B0200080C
:100060009B0200089B0200089B0200089B020008FC
:100070009B0200089B0200089B0200089B020008EC
:100080009B0200089B0200089B0200089B020008DC
:100090009B0200089B0200089B0200089B020008CC
:1000A0009B0200089B0200089B0200089B020008BC
:1000B0009B0200089B0200089B0200089B020008AC
:1000C0009B0200089B0200089B0200089B0200089C
:1000D0009B020008395F0008495F00089B02000886
:1000E0009B0200089B0200089B0200089B0200087C
:1000F0009B020008DD5500089B020008D110000893
:100100009B0200089B0200089B0200089B0200085B
:100110009B0200089B0200089B0200089B0200084B
:100120009B0200089B020008E11000089B020008E7
:100130009B0200089B0200089B0200089B0200082B
:100140001D0F00089B0200089B02000829500008B0
:100150009B0200089B020008F1100008595F00088C
:100160009B0200089B0200089B0200089B020008FB
:100170009B0200089B0200089B0200080000000090
:100180009B0200089B0200089B0200089B020008DB
:100190009B0200089B0200089B0200089B020008CB
:1001A0009B0200089B0200089B020008DFF80CD0AD
:1001B00000F0C6FB00480047F1C8000878D70020CF
:1001C0002C4B19680868B0E8F04F80F30988BFF33A
:1001D0006F8F4FF0000080F311887047000000001F
:1001E00008480068006880F308884FF0000080F33A
:1001F000148862B661B6BFF34F8FBFF36F8F00DF15
:1002000000BF00BF08ED00E0DFF80C00016841F41A
:1002100070010160704700BF88ED00E0EFF30980D6
:10022000BFF36F8F134B1A681EF0100F08BF20ED3D
:10023000108A20E9F04F106009B44FF0500080F3AD
:100240001188BFF34F8FBFF36F8F0DF045FD4FF057
:10025000000080F3118809BC19680868B0E8F04F05
:100260001EF0100F08BFB0EC108A80F30988BFF3AE
:100270006F8F704730000020EFF30580704700005B
:100280000648804706480047FEE7FEE7FEE7FEE730
:10029000FEE7FEE7FEE7FEE7FEE7FEE7C9550008DA
:1002A000AD0100082DE9F05F0546002092469B460F
:1002B00088460646814640241BE02846414647467C
:1002C000224600F0B1F953465A46C01A914110D364
:1002D00011461846224600F098F92D1A67EB0108DE
:1002E0004F4622460120002100F08FF917EB00094C
:1002F0004E41201EA4F10104DFDC484631462A4667
:100300004346BDE8F09F40EA01039B0703D009E0A4
:1003100008C9121F08C0042AFAD203E011F8013BF1
:1003200000F8013B521EF9D27047D2B201E000F84A
:10033000012B491EFBD270470022F6E710B5134689
:100340000A4604461946FFF7F0FF204610BD2DE986
:10035000FE4F804681EA0300C00F0C46009021F05A
:10036000004123F00045B8EB0200A94105D2404608
:10037000214690461C460B46024623F0004010439F
:1003800047D0270DC7F30A00C3F30A510290401A61
:10039000019040286BDAC3F3130040F4801B0098EF
:1003A000924620B10023D2EB030A63EB0B0B0198BA
:1003B0005946C0F14002504600F027F906460D4666
:1003C00050465946019A00F03FF910EB0800614190
:1003D000002487EA115284EAE7731A4340D0009A56
:1003E00062B3019A012A4FEA075215DC001B61EB48
:1003F00002014FF0004202EA0752CDE90042001C20
:1004000041F5801132462B4600F083F903B0BDE878
:10041000F08F40462146F9E7001B61EB0201001C0A
:1004200041F5801300185B412018A2F5001747EB37
:10043000030140EAD570B6196D4111E06D084FEA2D
:10044000360645EAC0754FEA0752001B61EB020110
:10045000001C41F5801149084FEA30000019514154
:1004600032462B4603B0BDE8F04F00F043B9009888
:10047000012240000023D0EB020263EBE0730098FE
:1004800021464FEAE074B8EB000061EB0401E9E7B4
:1004900083F000435BE781F0004158E72DE9FE4F10
:1004A00081EA030404F0004421F0004100944FF07D
:1004B000000B23F0004350EA01045ED052EA03042B
:1004C0005BD0C3F30A54C1F30A552C44A4F2F334AD
:1004D0000194A0FB0254C1F3130141F48011C3F352
:1004E000130343F4801301FB024400FB034E840A10
:1004F000970A44EA815447EA8357A4FB07680295A8
:100500008D0A05FB07854FEA932C04FB0C54270545
:10051000029D4FEA065847EA1637B5EB08056EEB21
:10052000070C870E920E47EA811742EA8312A7FB57
:100530000201B6EB0B0164EB00042B0D43EA0C3314
:100540005E1844EB1C50DA465146E7FB0201C5F346
:1005500013044FEA0B3343EA14534FEA0432019C6D
:1005600043EA0603A4F10C040294009CCDE900B414
:1005700000F0CFF803B0BDE8F08F00200146F9E7A6
:1005800000F0004230F000400AD0C10D01F560716A
:10059000C0F3160042EA0151C208400711437047F8
:1005A00000200146704701F0004330B421F00041C3
:1005B00050EA010206D00A0DA2F56072C1F31301E0
:1005C000002A02DC30BC00207047440F44EAC1041A
:1005D000C100E01830BC00EBC25000F054B830B598
:1005E0000B46014600202022012409E021FA02F5F1
:1005F0009D4205D303FA02F5491B04FA02F528448B
:10060000151EA2F10102F1DC30BD202A04DB203AE4
:1006100000FA02F1002070479140C2F1200320FA55
:1006200003F3194390407047202A04DB203A21FA53
:1006300002F00021704721FA02F3D040C2F12002FB
:100640009140084319467047202A06DBCB17203A11
:1006500041FA02F043EAE07306E041FA02F3D040C7
:10066000C2F1200291400843194670477CB500232F
:10067000CDE900330546684600F08FF96946284603
:100680000AF01AFC7CBD0029A8BF7047401C490035
:1006900008BF20F00100704710B4B0FA80FC00FAE7
:1006A0000CF050EA010404BF10BC704749B1CCF112
:1006B000200421FA04F411FA0CF118BF012121439E
:1006C0000843A3EB0C01CB1D4FEA00614FEA102059
:1006D00042BF002010BC704700EBC35010440029FB
:1006E000A4BF10BC7047401C490008BF20F00100A7
:1006F00010BC704710B5141E73F1000408DA401CDA
:1007000041F1000192185B411A4301D120F0010030
:1007100010BD2DE9F04D92469B4611B1B1FA81F220
:1007200002E0B0FA80F220329046FFF76EFF0446F6
:100730000F4640EA0A0041EA0B0153465A46084375
:1007400013D0114653EA010019D0C8F140025046B7
:10075000FFF76AFF05460E46504659464246FFF7E8
:1007600054FF084305D0012004E020463946BDE887
:10077000F08D0020054346EAE0762C4337430A9883
:100780006305E40AA0EB08000022FD0A44EA47548E
:100790000A3002D500200146E9E701051019694138
:1007A000DDE9084500196941BDE8F04DA2E72DE9F2
:1007B000F04D81EA030404F0004B21F0004514469B
:1007C0004FF0000A23F0004150EA050220D054EA1D
:1007D00001021DD0C5F30A570246C5F31303C1F346
:1007E0001300C1F30A5640F4801543F48013A7EBBD
:1007F0000608101BD64608F2FD3873EB050002D33D
:1008000008F1010801E092185B41B8F1000F03DA2A
:1008100000200146BDE8F08D00204FF4801106460F
:1008200084460EE0171B73EB050705D3121B63EB21
:10083000050306434CEA010C49084FEA30009218C0
:100840005B4150EA0107EDD152EA030012D082EA7F
:10085000040083EA0501084305D0101BAB4106D212
:100860000122002306E000224FF0004302E06FF077
:10087000010253101AEB06004CEB085110EB0A0072
:1008800041EB0B01BDE8F04DFFF734BF70B521F02F
:10089000004303430CD0C1F30A550024D5EB0405F3
:1008A00064EB0403D617AD1AB34102DB0020014606
:1008B00070BD201841EB025170BD0EB5C10F80EA2A
:1008C000E0700844CA07002140F233438DE80E006F
:1008D0000A460B46FFF71DFF03B000BDC1F30A52E5
:1008E000C1F3130140F2FF3341F480119A4202DA5E
:1008F00000200146704740F233439A42A2F233424D
:1009000002DC5242FFF790BEFFF77FBE30B5041EF7
:1009100071F1000404DB4FF00044404264EB01013C
:10092000141E73F1000405DB1C464FF000435242D5
:1009300063EB0403994208BF904230BD002070472A
:10094000064C074D06E0E06840F0010394E807001C
:1009500098471034AC42F6D3FFF72CFC3005010861
:10096000500501080FB4002300B589B00CA900910F
:100970000B996FF00042CB601E4B06931E4B079302
:100980000423CDE901321D4A089202466B4600203D
:1009900000F03AF909B05DF814FB70B586B0064670
:1009A0004FF0FF300091CDE90101002015460C46C3
:1009B00004903246694604A8FFF7D4FF0246049823
:1009C000211825B108B1084600E0204628600498A7
:1009D00000280DD0002A02DD0098884208D0081BAC
:1009E0000094CDE901043246694604A8FFF7BAFF36
:1009F00006B070BD410E00085F0E0008D50A000861
:100A00002DE9F04D00231A461B1A8A4103DB002012
:100A10000146BDE8F08DC1F30A52C1F3130141F460
:100A200080154FF0000BD10702D100186D41521E06
:100A30000027044640F2FF11384601EB620A3E46A9
:100A40008046024600204FF48011FFF7EDFDC219E9
:100A50007141BB1846EB0100B4EB030C75EB000CC5
:100A600004D3E41A65EB000517460E46241908F175
:100A700001006D4180463428E3DDF91946EB06009C
:100A8000091BA84103D24FF0FF32134601E00022B8
:100A900013461BEB070046EB0A51BDE8F04DFFF78C
:100AA00029BE000030B5041E71F1000404DB4FF0D4
:100AB0000044404264EB0101141E73F1000405DBA5
:100AC0001C464FF00043524263EB04038B4208BFC5
:100AD000824230BDC0B24FF4F05100F0D1B90000F5
:100AE0002DE9FF4F087883B09946FF2805D0491CAF
:100AF0002D2804D00024002008E000200BE0012471
:100B0000F9E700EB800003EB4000491C0B78FF2B5A
:100B1000F7D104B1404200230293147819461D46D0
:100B20002D2C01D02B2C04D1521C2D2C13D00024A1
:100B30000294AA461478FF2C0FD00A25A3FB05784F
:100B400001FB05814FF0000C03FB0C11521CE31953
:100B50004AEB0101EEE70124EAE7814453EA010090
:100B600002D019F5C87F06DA03980021C0E9001108
:100B700007B0BDE8F08F0025AE4E2F46DFF8B882F3
:100B8000184600F091F9CDE90001B9F1000002DA50
:100B9000C9F1000400E004460023A74A1AEB030B46
:100BA00042EB045A12E0E00707D02A4633463846A3
:100BB0004146FFF773FC074688462A4633461046EF
:100BC0001946FFF76BFC05460E466410002CEAD16F
:100BD000DDE90001B9F1000F5A46534606DAFFF786
:100BE000E6FD3A464346FFF7E2FD05E0FFF756FC17
:100BF0003A464346FFF752FC029A0AB181F000419F
:100C0000039AC2E90001B3E72DE9FF4F1F468DB0FB
:100C1000D7E901464FF0FF382E2045464FF0000936
:100C20000B90B9696D1C0E988847396A82468847CF
:100C30000028F6D1BAF1FF3F0AD024F4D064002E88
:100C400011DDBAF12B0F08D0BAF12D0F0BD102E054
:100C5000404611B08DE744F48064B9696D1C0E986C
:100C600088478246761E6946600501D52D2000E042
:100C70002B208DF8000001F1010B0DF1200809E097
:100C8000B9696D1C0E98884782460F9844F4007429
:100C9000761E0560002E02DDBAF1300FF0D00B9900
:100CA0008A453ED144F0800406E00F99681CA9F102
:100CB000010944F400740860B9696D1C761E0E9831
:100CC000884782463028F0D02BE00B998A4505D121
:100CD000200603D444F08004761E18E050460AF043
:100CE00077FA08B30DF11301761E44F400748B45B6
:100CF00008D2AAF130000BF8010B200607D5A9F1A4
:100D0000010003E0200602D409F101008146A0059C
:100D100002D50F99681C0860B9696D1C0E98884748
:100D20008246002ED1DC53E0002E51DDBAF1650F72
:100D300002D0BAF1450F4BD1A00549D5B9696D1C58
:100D400024F44074761E0E9888478246002E0CDDEF
:100D50002B2804D0BAF12D0F07D144F48074B9695F
:100D60006D1C0E9888478246761EE00501D52D2120
:100D700000E02B2108F8011BCDF82C8021E00DF1BB
:100D80002901761E44F4007488450CD2AAF1300083
:100D900010F0FF0088F8000002D10B99884509D9AE
:100DA00008F1010806E0E00501D5244801E042F21F
:100DB0000F708146B9696D1C0E98884782460F985E
:100DC0000560002E04DD50460AF002FA0028D6D154
:100DD000F9690E988847FF208BF8000088F800001A
:100DE0000020069007904B466A4608A906A8FFF720
:100DF00077FEA00502D46FF001002AE714F0240F5B
:100E00000AD0E00714D1DDE906123868031D3B6003
:100E10000068C0E900120BE0DDE90601FFF7C3FB43
:100E20000146E00704D13868021D3A60006801609D
:100E300028460EE7000014400000F03FF1D8FFFF05
:100E4000426842B1016811F8013B23B1521EC0E96A
:100E50000012184670470121C160881E7047426821
:100E60005AB1C368016843B983688B4205D0491EF3
:100E7000521CC0E90012002070474FF0FF3070474D
:100E80007F2801D9002208E0064A02EB5002C00781
:100E9000127800D1120902F00F02012090400840A0
:100EA00070470000C00401080EB540F233420292C0
:100EB0000022CDE900221346FFF72BFC03B000BD52
:100EC00070B58C1810F8015B15F0070301D110F80C
:100ED000013B2A1106D110F8012B03E010F8016B39
:100EE00001F8016B5B1EF9D12B0705D40023521EBC
:100EF0000DD401F8013BFAE710F8013BCB1A921C24
:100F000003E013F8015B01F8015B521EF9D5A14221
:100F1000D8D3002070BD00BFFEE7000010B5024826
:100F200000F0C7FC10BD0000C40F00200346042BD6
:100F300015D007DC7BB1012B0ED0022B0DD0032B7B
:100F400012D10BE0202B0BD0212B0AD0222B09D061
:100F5000232B09D107E008E007E006E005E004E004
:100F600003E002E001E000E000BF00BF00207047A6
:100F700000200249088002490880704718010020BB
:100F80001A01002010B500220449054805F085FA31
:100F90000449034805F072FA002010BD20CA002061
:100FA00044C1002020C8002070B504460D46064903
:100FB00020460CF0D7FE0549054805F05FFA0448C5
:100FC00005F028FA002070BDC001002020C80020D4
:100FD00044C1002010B503460C460021084610BD50
:100FE0002DE9F84F07460C4690464FF00009CA46D7
:100FF00000250026A346A01D00900425A7F150005F
:1010000010283AD2DFE800F01608190F1E2326290F
:101010002C2F3239393939354FF0340903254FF047
:10102000400A01262BE04FF03D0903254FF02E0A20
:10103000012624E04FF0300921E04FF037094FF04E
:1010400003081CE04FF03A094FF0030817E04FF097
:10105000410914E04FF0450911E04FF049090EE055
:101060004FF04D090BE04FF0510908E04FF05509E2
:1010700005E01448D0F8009001E0BDE8F88F00BF0B
:10108000B8F1030F01D1032500265DB16A000E49B6
:1010900001EB49005946FFF736F9294648460B4A05
:1010A000126890475EB17200074901EB4A0000994F
:1010B000FFF729F931465046044A1268904700BFAD
:1010C000DBE70000C400002004BF0020B0000020C7
:1010D00010B5024800F036FF10BD00000C110020D2
:1010E00010B5024800F02EFF10BD00006C1100206A
:1010F00010B5024800F026FF10BD0000CC11002002
:101100000146087810381823B0FBF3F20848805CD9
:10111000C865032A05D908686FF30900001D8865B2
:1011200003E008686FF309008865886D7047000068
:1011300040E80008014600208A6A8B69CBB932B1C9
:10114000012A0DD0022A03D0032A10D10EE000BFDD
:10115000CB6A03F08073B3F1807F00D1012007E0F8
:10116000CB6AB3F1C07F00D1012001E000E000BFF5
:1011700034E08B69B3F5005F1AD132B1012A07D090
:10118000022A03D0032A11D10AE000BF01200EE099
:10119000CB6A03F08073B3F1807F00D1012006E0B9
:1011A000CB6AB3F1C07F00D1012000E000BF15E0A1
:1011B00032B1012A05D0022A04D0032A0CD103E05F
:1011C00000BF00BF012008E0CB6A03F08073B3F1D9
:1011D000807F00D1012000E000BF00BF7047000009
:1011E0007FB50546002426E004EBC401214A02EB4A
:1011F0000110214B214A0021F7EE000AB7EE000A48
:101200000AF0FCFB9FED1E0A04EBC400194901EB38
:10121000001080ED1C0A9FED1B0A04EBC40001EBDB
:10122000001080ED1D0A04EBC40001EB00104DF826
:101230002400601CC4B2042CD6DB6A46124928463E
:101240000AF010FD00240BE004EB440101EB8412D2
:1012500005F1080101EBC2000BF0FCFD601CC4B2FB
:10126000042CF1DB02E064200BF026FD287808282E
:10127000F9D07FBD345F0020B8FA0008F8FA000802
:1012800000000000AE873E4318FB000870470000D6
:1012900030B5ADF5077D04464FF4066104F1080052
:1012A000FFF74AF80020207004F500600021C166B5
:1012B0000167416714217830FFF73EF8002518E0F8
:1012C0004FF4067227496846FFF71DF8681CC0B244
:1012D0008DF8000005EB450101EB851204F10801D2
:1012E00001EBC2004FF406726946FFF70CF8681C68
:1012F000C5B2042DE4DB00252FE005EB450202EB2F
:10130000851304F1080212F833200123C3EB4202D3
:10131000D1B205EB450202EB851304F1080202EBA2
:10132000C30202F1380000F067F805EB450202EB5A
:10133000851304F1080212F833205206110E05EB52
:10134000450202EB851304F1080202EBC30202F12D
:10135000E00000F051F8681CC5B2042DCDDB0DF59E
:10136000077D30BD60EA000872B600BFFEE770B5C9
:1013700004460D4694F881002084658494ED210A8A
:1013800084ED0C0A94ED220A84ED0D0A94ED260AF0
:1013900084ED0B0A94ED270A84ED0A0A94ED280ADD
:1013A00084ED090A04F14001204604F01BF870BDE9
:1013B00070B504460D4694F881002084658494ED50
:1013C000210A84ED0C0A94ED220A84ED0D0A94EDB5
:1013D000260A84ED0B0A94ED270A84ED0A0A9FED94
:1013E000050A84ED090A04F14001204603F0FAFFE2
:1013F00070BD00000000000070B504460D4684F882
:1014000081502584002060849FED110A84ED0C0A30
:101410009FED0F0A84ED0D0A9FED0D0A84ED0B0A76
:101420009FED0B0A84ED0A0A9FED090A84ED090A73
:1014300004F14001204603F0D5FF06460EB13046C8
:1014400070BD94ED1E0A84ED290A0020F8E7000023
:101450000000000070B50A480468001D0568001D02
:101460000668344454B108220649204603F058FA6D
:10147000042204491031284603F052FA70BD0000DE
:10148000107AFF1FFE00002010B5024692F82030AF
:10149000012B01D0022B06D1106840690843146863
:1014A0006061002010BD506A40F48020506201202D
:1014B000F8E7F0B504460D461E4694F82070206803
:1014C0008368A86800B900E000BF012F01D0022F97
:1014D0007DD103F0806030B903F0006018B903F0EB
:1014E000805000287ED0C3F3016101208840306025
:1014F000A86860B9B5F800C0E86840EA4C5C2068AC
:1015000000F5C07000EB0110C0F800C00FE0D5E995
:1015100001C040EACC00D5F80CC040EA0C00D4F879
:1015200000C00CF5C07C0CEB011CCCF80000D5F819
:1015300010C0206800F5C07000EB0110C0F804C0B6
:10154000287D01280ED1206800F5C07000EB011045
:10155000406840F4807C206800F5C07000EB01100A
:10156000C0F804C0D079000692F806C040EA0C40EA
:1015700092F805C040EA0C2092F804C040EA0C0042
:10158000D4F800C00CF5C07C0CEB011CCCF80C00AE
:10159000D078000692F802C040EA0C4092F801C0F0
:1015A00040EA0C2092F800C040EA0C00D4F800C0D9
:1015B0000CF5C07C0CEB011CCCF80800206800F591
:1015C000C07000EB0110006840F0010C01E00FE07A
:1015D00008E0206800F5C07000EB0110C0F800C002
:1015E0000020F0BD606A40F4001060620120F8E75E
:1015F000606A40F4802060620120F2E7F0B50446A2
:101600000A4694F82050012D01D0022D7ED1424986
:1016100001F50071086840F001000860086820F4D6
:101620007C5008600868566A40EA06200860107D11
:1016300000F01F06012000FA06F3C8699843C8614C
:10164000A1F50071D069C8B9D1F80C029843C1F86E
:101650000C02908880B2968940EA064601F5107027
:10166000576940F83760108880B2168940EA06460C
:1016700001F51070576900EBC7004660D06901287A
:1016800019D1D1F80C021843C1F80C02908880B22D
:10169000168840EA064601F51070576940F8376031
:1016A000908980B2168940EA064601F510705769A4
:1016B00000EBC7004660906928B9D1F8040298434E
:1016C000C1F8040204E0D1F804021843C1F804028E
:1016D000106928B9D1F814029843C1F8140204E043
:1016E000D1F814021843C1F81402106A012804D179
:1016F000D1F81C021843C1F81C02D1F8000220F0F6
:101700000100C1F800020020F0BDFFE7606A40F46C
:10171000802060620120F7E700640040704770B5E8
:10172000044694F82050012D01D0022D7DD151B9ED
:101730002068C06800F0030080B9606A40F40010BF
:101740006062012070BD2068006900F0030028B9C4
:10175000606A40F4001060620120F3E7206800F541
:10176000D87000EB0110006800F0040090609068F1
:1017700040B9206800F5D87000EB01100068400DFA
:10178000106007E0206800F5D87000EB01100068D9
:10179000C0085060206800F5D87000EB01100068A8
:1017A00000F00200D060206800F5D87000EB011056
:1017B000406800F00F00082802D30820106108E0FC
:1017C000206800F5D87000EB0110406800F00F00B1
:1017D0001061206800F5D87000EB0110406800F43B
:1017E0007F40000A9061206800F5D87000EB01107E
:1017F0004068000C5061206800F5D87000EB0110C3
:1018000080681870206800F5D87000EB01108068BF
:1018100000F47F40000A5870206800F5D87000EB93
:101820000110806800F47F0000E03CE0000C98703C
:10183000206800F5D87000EB01108068000ED870A9
:10184000206800F5D87000EB0110C068187120689E
:1018500000F5D87000EB0110C06800F47F40000A6A
:101860005871206800F5D87000EB0110C06800F4D2
:101870007F00000C9871206800F5D87000EB011013
:10188000C068000ED87131B92068C06840F02000EF
:101890002668F06005E02068006940F020002668B6
:1018A000306100204EE7606A40F4802060620120D1
:1018B00048E72DE9F05F0446002520684669206866
:1018C000D0F80490206887682068D0F80CA02068C1
:1018D000D0F810B02068D0F8188006F00100002879
:1018E00055D007F00100C0B101202168886007F0E1
:1018F000020018B1204600F0B4FA0EE007F0040030
:1019000010B145F4006508E007F0080010B145F497
:10191000805502E0204600F0A3FA07F48070C8B1B9
:101920004FF480702168886007F4007018B1204679
:1019300000F099FA0EE007F4806010B145F400550C
:1019400008E007F4006010B145F4804502E020464D
:1019500000F088FA07F48030C8B14FF48030216875
:10196000886007F4003018B1204600F07EFA0EE0DF
:1019700007F4802010B145F4004508E007F400208A
:1019800010B145F4803502E0204600F06DFA06F013
:10199000080038B10AF0100020B145F4007510209D
:1019A0002168C86006F0040040B10AF0080028B1C0
:1019B00008202168C860204600F006FA06F0020000
:1019C00038B12068C06800F0030010B1204600F074
:1019D000FDF906F0400038B10BF0100020B145F4DD
:1019E000806510202168086106F0200040B10BF0EE
:1019F000080028B1082021680861204600F0FEF99F
:101A000006F0100038B12068006900F0030010B142
:101A1000204600F0F4F906F4003040B109F010005F
:101A200028B1102021684860204600F0E9F906F44A
:101A3000803040B109F0080028B1082021684860D2
:101A4000204600F013FA06F4004088B309F00400C1
:101A500078B306F4807020B108F0010008B145F0B9
:101A6000010506F4007020B108F0020008B145F04D
:101A7000020506F4806020B108F0040008B145F0CA
:101A8000040506F40060A0B108F0700088B108F009
:101A90007000402817D006DC10280BD020280CD06E
:101AA000302819D10CE0502810D0602814D110E053
:101AB0001DE019E045F008050FE045F010050CE0C9
:101AC00045F0200509E045F0400506E045F08005B9
:101AD00003E045F4807500E000BF00BF2068806926
:101AE00020F07000216888610420216848602DB1D1
:101AF000606A284360622046FFF710FEBDE8F09F51
:101B000070B504460CB9012070BD94F8200010B9DE
:101B1000204600F0AFF82068006840F0010021681E
:101B2000086000F0C7FC05460DE000F0C3FC401B58
:101B30000A2808D9606A40F400306062052084F801
:101B400020000120E0E72068406800F00100002844
:101B5000EBD02068006820F002002168086000F0E7
:101B6000A9FC05460DE000F0A5FC401B0A2808D999
:101B7000606A40F400306062052084F82000012093
:101B8000C2E72068406800F002000028EBD1207E08
:101B9000012806D12068006840F0800021680860B4
:101BA00005E02068006820F0800021680860607E01
:101BB000012806D12068006840F0400021680860D4
:101BC00005E02068006820F0400021680860A07EE1
:101BD000012806D12068006840F0200021680860D4
:101BE00005E02068006820F0200021680860E07EA1
:101BF000012806D12068006820F0100021680860E4
:101C000005E02068006840F0100021680860207F2F
:101C1000012806D12068006840F0080021680860AB
:101C200005E02068006820F0080021680860607FF7
:101C3000012806D12068006840F00400216808608F
:101C400005E02068006820F0040021680860D4E9FD
:101C50000201084321690843616908436168491E1C
:101C600008432168C86100206062012084F82000D8
:101C7000002049E710B586B00446142101A8FEF7FC
:101C80005BFB4B492068884239D14A480068401CB8
:101C9000484908600846006801280FD100BF0020AD
:101CA00000904548006840F00070434908600846CD
:101CB000006800F00070009000BF00BF00BF00206F
:101CC00000903D481038006840F008003A4910394B
:101CD00008600846006800F00800009000BF00BFE0
:101CE0000320019002200290002003900320049022
:101CF0000920059001A9314800F0CEFA55E030499D
:101D00002068884251D100BF002000902A48006816
:101D100040F08060284908600846006800F0806054
:101D2000009000BF00BF23480068401C21490860A4
:101D30000846006801280FD100BF002000901E480F
:101D4000006840F000701C4908600846006800F018
:101D50000070009000BF00BF00BF00200090164838
:101D60001038006840F00200134910390860084636
:101D7000006800F00200009000BF00BF42F22000A7
:101D8000019002200290002003900320049009207B
:101D9000059001A90B4800F07FFA002205214020A0
:101DA00000F050FC402000F039FC06B010BD0000EF
:101DB000006400401800002040380240000C02403F
:101DC00000680040000402407047000010B504465F
:101DD000074884420AD1074B074A0021FFF79FFCBE
:101DE00020B90548017C034806F0B8FD10BD00008D
:101DF000C40F0020980000202C0D00207047704771
:101E0000704770B5044694F82000012822D10220C2
:101E100084F820002068006820F001002168086034
:101E200000F048FB05460DE000F044FB401B0A288B
:101E300008D9606A40F400306062052084F8200010
:101E4000012070BD2068406800F001000028EBD13F
:101E50006062F6E7606A40F4002060620120F0E70B
:101E6000704770477047704770477047704770B54C
:101E70000446A56D00F01EFB064694F835000228C6
:101E800008D08020606500BF002084F8340000BFC7
:101E9000012070BD2068006820F0160021680860ED
:101EA0002068406920F0800021684861206C08B9F2
:101EB000A06C28B12068006820F008002168086044
:101EC0002068006820F001002168086010E000F040
:101ED000F1FA801B05280BD920206065032084F8C7
:101EE000350000BF002084F8340000BF0320D0E795
:101EF0002068006800F001000028E8D194F85C1028
:101F00003F208840A860012084F8350000BF0020F1
:101F100084F8340000BF00BFBBE7014691F83500EC
:101F2000022803D08020486501207047052081F8F1
:101F300035000868006820F001000A681060002081
:101F4000F3E70000F8B50446002000908C480068D4
:101F50004FF41651B0FBF1F7A56D2E6894F85C10A4
:101F600008208840304098B12068006800F00400E4
:101F700070B12068006820F004002168086094F8BF
:101F80005C1008208840A860606D40F0010060652A
:101F900094F85C1001208840304068B120684069A6
:101FA00000F0800040B194F85C1001208840A860E7
:101FB000606D40F00200606594F85C100420884079
:101FC000304068B12068006800F0020040B194F829
:101FD0005C1004208840A860606D40F004006065DB
:101FE00094F85C1010208840304078B32068006876
:101FF00000F0080050B394F85C1010208840A860EE
:102000002068006800F4802080B12068006800F437
:10201000002028B9206CC8B12046216C884715E003
:10202000A06C98B12046A16C88470FE0206800683A
:1020300000F4807028B92068006820F0080021684A
:102040000860206C10B12046216C884794F85C1021
:10205000202088403040002865D02068006800F0CB
:10206000100000285FD094F85C1020208840A86001
:1020700094F83500052828D12068006820F0160063
:10208000216808602068406920F08000216848616C
:10209000206C08B9A06C28B12068006820F0080006
:1020A0002168086094F85C103F208840A8600120F7
:1020B00084F8350000BF002084F8340000BF206D94
:1020C00010B12046216D8847F8BD2068006800F4F3
:1020D000802080B12068006800F4002028B9606C7E
:1020E00010B12046616C88471DE0E06BD8B12046F6
:1020F000E16B884717E02068006800F4807068B9D9
:102100002068006820F0100021680860012084F831
:10211000350000BF002084F8340000BFE06B10B130
:102120002046E16B8847606D38B3606D00F00100B8
:10213000F0B1052084F835002068006820F0010027
:102140002168086000BF0098401C0090B84200D988
:1021500005E02068006800F001000028F3D100BF0E
:10216000012084F8350000BF002084F8340000BF4F
:10217000E06C10B12046E16C884700BFA4E7000086
:10218000280000202DE9F0410446002500F092F9D6
:10219000074614B90120BDE8F081606A00B100BFB4
:1021A000022084F8350000BF002084F8340000BF0E
:1021B0002068006820F00100216808600AE000F053
:1021C00079F9C01B052805D920206065032084F813
:1021D0003500E0E72068006800F001000028EED13B
:1021E0002068056821480540D4E901010843E168F9
:1021F00008432169084361690843A1690843E1690B
:102200000843216A08430543606A042803D1D4E9DE
:102210000B0108430543206805602068456925F0E7
:102220000705606A0543606A04280DD1A06A05436A
:10223000E06A48B12046FEF77DFF28B14020606586
:10224000012084F83500A6E7206845612046FEF7A6
:1022500057FF064694F85C103F208840B06000208D
:102260006065012084F83500002094E73F8010F07D
:1022700070B5044600F01EF906462546681C10B1EC
:1022800004480078054400BF00F014F9801BA84200
:10229000FAD370BD24000020F8B502460B46002595
:1022A000002400200021E0E0012606FA01F51E6866
:1022B00006EA0504AC4274D11E7906F00306012E2D
:1022C00004D01E7906F00306022E13D190684F0049
:1022D0000326BE40B0434F00DE68BE4030439060EE
:1022E000506801268E40B0431E79C6F300168E401A
:1022F000304350601E7906F00306032E09D0D068E3
:102300004F000326BE40B0434F009E68BE4030439E
:10231000D0601E7906F00306022E13D1CF0802F119
:10232000200656F827004E07F70E0F26BE40B04392
:102330004F07FF0E1E69BE403043CF0802F1200652
:1023400046F8270010684F000326BE40B0431E79B0
:1023500006F003064F00BE40304310605E6806F48E
:102360004036002E1DD000BF00260096414E366834
:1023700046F480463F4F3E603E46366806F480464F
:10238000009600BF00BF3C4E8F0856F827008E070E
:10239000370F0F26BE40B043384EB24202D100265E
:1023A0002EE061E0364EB24201D1012628E0354EE2
:1023B000B24201D1022623E0334EB24201D10326BC
:1023C0001EE0324EB24201D1042619E0304EB24234
:1023D00001D1052614E02F4EB24201D106260FE0AE
:1023E0002D4EB24201D107260AE02C4EB24201D155
:1023F000082605E02A4EB24201D1092600E00A264D
:102400008F073F0FBE4030431B4E8F0846F8270012
:10241000244E3068A0435E6806F4801606B120435F
:10242000204E3060361D3068A0435E6806F400160A
:1024300006B120431B4E361D30601A4E361F3068E1
:10244000A0435E6806F4003606B12043154E361FE1
:102450003060361F3068A0435E6806F4803606B1EF
:102460002043104E083E3060491C1029FFF41CAF79
:10247000F8BD000044380240083801400000024026
:102480000004024000080240000C0240001002401C
:102490000014024000180240001C024000200240CC
:1024A00000240240083C01400AB1816101E00B04B4
:1024B0008361704701480068704700001C000020DD
:1024C00003480068034909780844014908607047D7
:1024D0001C0000202400002010B50D48006840F4C6
:1024E00000700B4908600846006840F4806008608E
:1024F0000846006840F480700860032000F0E0F8AF
:102500000F2000F007F800F05FF8002010BD000079
:10251000003C02402DE9F04188B004460027B8464F
:1025200000BF002001902348006840F480702149DA
:1025300008600846006800F48070019000BF00BF8A
:1025400002A903A801F064F8069F1FB901F088F8FA
:10255000054602E001F084F845001748B5FBF0F0AD
:10256000A0F1010815481649086040F2E731144807
:10257000C160C0F80480002101618160816101F0C7
:1025800037FB064696B90E4801F066FB06466EB963
:102590002D2000F043F8102C07D2002221462D20D8
:1025A00000F050F80748046000E00126304608B00B
:1025B000BDE8F0814038024040420F00002000405A
:1025C0002C1200202000002008B500BF0020009041
:1025D0001148006840F480400F49086008460068D0
:1025E00000F48040009000BF00BF00BF00200090BA
:1025F000081F006840F08050091F08600846006806
:1026000000F08050009000BF00BF00220F21901EFC
:1026100000F018F808BD00004438024001460846A2
:1026200000280DDB00BF00BF00F01F0301229A400D
:1026300043099B0003F1E023C3F8002100BF00BF62
:1026400000BF70472DE9F05F80460D461646002713
:1026500006F028FA074639462A46334601F00700B5
:10266000C0F1070ABAF1040F02D94FF0040A01E0E1
:10267000C0F1070AD14600F1040ABAF1070F02D2ED
:102680004FF0000A01E0A0F1030AD4464FF0010A1E
:102690000AFA09FAAAF1010A0AEA020A0AFA0CFA83
:1026A0004FF0010B0BFA0CFBABF1010B0BEA030B28
:1026B0004AEA0B042146404606F0FCF9BDE8F09FCB
:1026C00000BF00F00702064B19684FF6FF031940E0
:1026D000044B0B4343EA0221014B196000BF7047D2
:1026E0000CED00E00000FA057047024610684162F8
:1026F00000207047F0B5034615461868446A21B9B2
:1027000044EA05401E68B06219E01868806A04EB6C
:102710001044002208E0186800F5827050F822008A
:1027200004EB1044501CC2B2481E9042F3D844EA55
:102730000547186800F582704E1E40F8267000208C
:10274000F0BD10B50446D4F8E00404F0A8FB10BDB9
:1027500070B504460D4605EBC50304F1140101EB09
:102760008301CA682946D4F8E00404F08BFA70BDEE
:1027700070B504460D4605EBC50304F5157101EB74
:102780008301CA682946D4F8E00404F003FB70BD55
:1027900010B50446D4F8E00404F084FB10BD2DE924
:1027A000F04104460D4605F08000802808D105F070
:1027B0000F0000EBC00104F1140000EB810607E0FC
:1027C00005F00F0000EBC00104F5157000EB810669
:1027D0003146206805F0BCFD07463846BDE8F0816B
:1027E00070B504460E4606F0800080280AD106F037
:1027F0000F0000EBC00104F1140000EB8105012083
:10280000687009E006F00F0000EBC00104F51570D8
:1028100000EB81050020687006F00F00287000BFF3
:1028200094F89404012801D1022070BD012084F89D
:10283000940400BF2946206805F018F900BF002065
:1028400084F8940400BF00BFEFE770B504460E465D
:1028500006F00F002179884201D9012070BD06F0F1
:10286000800080280AD106F00F0000EBC00104F1BF
:10287000140000EB81050120687009E006F00F00EC
:1028800000EBC00104F5157000EB810500206870B5
:102890000020A87006F00F00287000BF94F8940480
:1028A000012801D10220D9E7012084F8940400BF57
:1028B0002946206805F0D8FA00BF002084F8940467
:1028C00000BF00BFCAE7024601F00F0000EBC003E3
:1028D00002F5157000EB8300406970472DE9F04761
:1028E00005460E4690461F464FF0000906F0800050
:1028F00080280AD106F00F0000EBC00105F114009A
:1029000000EB81040120607009E006F00F0000EB8D
:10291000C00105F5157000EB81040020607006F021
:102920000F002070C8F30A00A0602771607808B11A
:1029300020786083022F01D10020607100BF95F8DC
:102940009404012802D10220BDE8F087012085F817
:10295000940400BF2146286804F094FF00BF0020C3
:1029600085F8940400BF4846EEE72DE9F04105469E
:102970000E461746984606F00F0000EBC00105F51D
:10298000157000EB8104E760C4F8108000206061DE
:10299000607006F00F002070A879012800D1E7616F
:1029A000AA792146286805F0F3FA0020BDE8F081F5
:1029B00070B504460D4605F00F002179884201D913
:1029C000012070BD05F0800080280AD105F00F00BD
:1029D00000EBC00104F1140000EB810601207070CF
:1029E00007E005EBC50104F5157000EB810600203A
:1029F00070700120B07005F00F00307000BF94F8C7
:102A00009404012801D10220DBE7012084F894041A
:102A100000BF3146206805F06EFA05F00F0028B9B6
:102A2000A17904F29C42206805F0E6F900BF00207D
:102A300084F8940400BF00BFC3E72DE9F0410546C8
:102A40000E461746984606F00F0000EBC00105F150
:102A5000140000EB8104E760C4F81080002060617E
:102A60000120607006F00F002070A879012800D1C5
:102A7000E761AA792146286805F08AFA0020BDE8B6
:102A8000F0812DE9FE4F0446D4F800B05E46206880
:102A900005F040FD002874D1206805F07AFD08B9E2
:102AA000BDE8FE8F40F608008059C0F30D20C4F841
:102AB000D404206805F06DFD00F00200022805D165
:102AC0002068406900F0020021684861206805F034
:102AD00060FD00F01000102845D12068806920F0CA
:102AE000100021688861DBF8209009F00F0000EBEE
:102AF000C00104F5157000EB810AC9F343400228B8
:102B00001AD147F6F07009EA000030B3C9F30A128F
:102B10005846DAF80C1005F041FDC9F30A11DAF84D
:102B20000C000844CAF80C00C9F30A11DAF81400C2
:102B30000844CAF8140010E0C9F3434006280CD139
:102B4000082204F29C41584605F028FDC9F30A11F9
:102B5000DAF814000844CAF814002068806940F0CC
:102B6000100021688861206805F013FD00F4002042
:102B7000B0F5002F7BD10025206805F0DAFC02902B
:102B800072E0E1E2029800F00100002868D0E9B2AA
:102B9000206805F0F1FC804608F0010048B10121F1
:102BA00006F5306000EB451081602946204602F0B2
:102BB000EFFA08F00800082809D1082106F530606E
:102BC00000EB451081602946204602F0AFFA08F07C
:102BD0001000102805D1102106F5306000EB4510DB
:102BE000816008F00200022824D1DBF8140000F014
:102BF0008000802807D140F60400805940F48061AD
:102C000040F60400815105EBC50104F5157000EB99
:102C1000810A9AF80300012806D100208AF80300EF
:102C2000E9B2204600F09BFA022106F5306000EB85
:102C30004510816008F02000202805D1202106F5EC
:102C4000306000EB4510816008F40050B0F5005F83
:102C500006D14FF4005106F5306000EB451081605D
:102C60006D1C029840080290029800288AD12068C2
:102C700005F08FFC00F48020B0F5802F7DD1206816
:102C800005F04DFC029000259AE0029800F001004A
:102C9000002873D0E9B2206805F055FC804608F0A2
:102CA0000100F0B305F00F0101208840019040F6CB
:102CB00034008159019821EA000040F6340188511E
:102CC000012106F5106000EB45108160A079012814
:102CD00024D105EBC50104F1140000EB810005EBE4
:102CE000C502C16804F1140000EB82008068014451
:102CF00005EBC50204F1140000EB8200C1606DB960
:102D000005EBC50104F1140000EB8100006928B94E
:102D100004F29C420121206805F06EF8E9B22046D9
:102D200000E001E0FFF714FD08F00800082805D1D5
:102D3000082106F5106000EB4510816008F01000D6
:102D4000102805D1102106F5106000EB45108160B8
:102D500008F04000402805D1402106F5106000EB46
:102D60004510816008F0020002281DD1294658460E
:102D700005F093FB05EBC50101E025E01CE004F143
:102D8000140000EB810A9AF80300012806D1002004
:102D90008AF80300E9B2204600F0D8F9022106F5CE
:102DA000106000EB4510816008F08000802803D19E
:102DB0002946204602F08EFA6D1C029840080290C7
:102DC000029800287FF461AF206805F0E2FB00F074
:102DD0000040B0F1004F1CD140F60400805920F0B3
:102DE000010140F60400815194F8CC04012807D178
:102DF000002084F8CC0400212046FFF775FC02E097
:102E0000204600F0D1FA2068406900F000402168B7
:102E10004861206805F0BDFB00F40060B0F5006F6C
:102E20000ED140F60800805900F0010010B1204694
:102E300000F012FB2068406900F4006021684861DE
:102E4000206805F0A6FB00F48050B0F5805F7ED1CD
:102E500040F60400805920F0010140F60400815141
:102E60001021206805F019FB002732E04FF67F3172
:102E700006F5106000EB4710816006F5106000EB6E
:102E80004710006820F4001106F5106000EB4710B1
:102E900001604FF67F3106F5306000EB471081602E
:102EA00006F5306000EB4710006820F4001106F5CD
:102EB000306000EB4710016006F5306000EB471012
:102EC000006840F0006106F5306000EB47100160DB
:102ED0007F1C2079B842C9D840F61C00805940F0C8
:102EE000011140F61C008151E07B70B1D6F88408D6
:102EF00040F00B01C6F8841840F64400805940F0B9
:102F00000B0140F6440081510FE040F61400805957
:102F100042F22B01084340F614018851081F8059E2
:102F200040F00B014FF401608151D6F8000820F405
:102F3000FE60C6F80008A17904F29C42206804F003
:102F40005BFF2068406900F48050216800E000E0E9
:102F50004861206805F01DFB00F40050B0F5005FEB
:102F600017D1206804F0F6FC206805F0C0FAE07183
:102F700000F070FB0090E2792068009905F090FB6A
:102F8000204600F0F9F92068406900F400502168FB
:102F90004861206805F0FDFA00F00800082808D113
:102FA000204600F008FA2068406900F00800216817
:102FB0004861206805F0EDFA00F08000802818D103
:102FC000DBF8180020F08000CBF8180001250DE098
:102FD00005EBC50104F5157000EB8100C0780128F0
:102FE00003D1E9B22046FFF7DAFB6D1C2079A84235
:102FF000EED8206805F0CDFA00F48010B0F5801FFF
:103000002DD1012522E006F5106000EB4510D0F827
:10301000009005EBC50104F1140000EB810000797C
:10302000012812D109F00040B0F1004F0DD101216B
:1030300005EBC50204F1140000EB8200C170E8B298
:1030400040F080012046FFF7AAFB6D1C2079A842C2
:10305000D9D82068406900F4801021684861206850
:1030600005F097FA00F40010B0F5001F44D10125D7
:1030700038E006F5306000EB4510D0F8009005EB25
:10308000C50104F5157000EB81000079012828D1F5
:1030900009F00040B0F1004F23D194F8D40400F0BF
:1030A0000100C9F3004188421BD1012105EBC50293
:1030B00004F5157000EB8200C170DBF8180040F0D9
:1030C0008000CBF81800DBF8140000F0800040B955
:1030D00040F60400805940F4007140F6040081512C
:1030E00003E06D1C2079A842C3D800BF2068406966
:1030F00000F4001021684861206805F04AFA00F0E9
:103100008040B0F1804F08D12046FFF71AFB2068BD
:10311000406900F0804021684861206805F039FA74
:1031200000F0040004280FD12068D0F8049009F0C2
:103130000400042802D12046FFF72AFB20684068DB
:1031400040EA09002168486000BFA9E470B5044660
:103150000D462946D4F8E00403F010FF70BD70B5A9
:1031600004460D462946D4F8E00403F02BFF70BD59
:10317000F8B504460CB90120F8BD266894F895040A
:1031800028B9002084F89404204600F0A1F8032018
:1031900084F89504B6F1A04F01D10021A1712068F7
:1031A00004F022FE207C8DF8000094E80F0004F06B
:1031B000E5FB20B1022084F895040120DCE7002122
:1031C000206805F01BFA20B1022084F89504012044
:1031D000D2E7002531E0012105EBC50204F114001E
:1031E00000EB8200417005EBC50104F1140000F80A
:1031F000215005EBC50100EB81004583002105EB63
:10320000C50204F1140000EB8200017105EBC50258
:1032100004F1140000EB8200816005EBC50204F1AB
:10322000140000EB8200C16005EBC50204F114003C
:1032300000EB82000161681CC5B22079A842CADC9B
:1032400000252AE0002105EBC50204F5157000EB0E
:103250008200417005EBC50104F5157000F821509E
:10326000002105EBC50200EB8200017105EBC502F0
:1032700004F5157000EB8200816005EBC50204F5D2
:10328000157000EB8200C16005EBC50204F51570F6
:1032900000EB82000161681CC5B22079A842D1DC34
:1032A000207C8DF8000094E80F0004F0A9FC20B108
:1032B000022084F8950401205EE70020607401205C
:1032C00084F89504206804F089FC002054E700008D
:1032D00010B586B00446142101A8FDF72DF820682A
:1032E000B0F1A04F42D100BF0020009020480068FC
:1032F00040F001001E4908600846006800F0010027
:10330000009000BF00BF4FF4C05001900220029017
:1033100000200390032004900A20059001A915487D
:10332000FEF7BAFF00BF1248001D006840F08000A1
:103330000F49091D086000BF002000900C481430A0
:10334000006840F480400A4914310860084600686B
:1033500000F48040009000BF00BF00BF00220F219A
:103360004320FFF76FF94320FFF758F906B010BD6F
:10337000303802400000024070B504460125E07973
:1033800008B9002506E0E079022801D1012501E015
:10339000FDF7EAFF2946D4F8E00403F0BDFED4F8B7
:1033A000E00403F063FE70BD10B50446D4F8E004F9
:1033B00003F093FE10BD10B50446D4F8E00403F00A
:1033C00097FE10BD70B504460D4600BF94F89404F6
:1033D000012801D1022070BD012084F8940400BFAF
:1033E00065742946206805F03DF900BF002084F887
:1033F000940400BF00BFEEE710B5044604F29C4100
:10340000D4F8E00403F09FFE10BD70B504462568B3
:1034100000BF94F89404012801D1022070BD01205E
:1034200084F8940400BFE86800F0400030B1607B8D
:10343000012803D1A86B40F48030A863206804F011
:10344000FDFF206804F0B8FB00BF002084F894045E
:1034500000BF00BFE2E7000010B50446D4F8E00466
:1034600003F0CEFE2068D0F8000E40F00100216885
:10347000C1F8000EE07A28B10348006840F0060069
:103480000149086010BD000010ED00E070B5044671
:103490000D460CB9012070BD5848006800F00F00BF
:1034A000A84209D255490D700846006800F00F0087
:1034B000A84201D00120EEE7207800F002000228A7
:1034C0001DD1207800F00400042805D14C48006884
:1034D00040F4E0504A490860207800F008000828CD
:1034E00005D14748006840F46040454908604448B9
:1034F000006820F0F000A168084341490860207886
:1035000000F00100A8B36068012807D13C480838E2
:103510000068C0F34040B8B90120BCE760680228E9
:1035200002D06068032807D1354808380068C0F326
:10353000406048B90120AEE7314808380068C0F360
:10354000400008B90120A6E72D48006820F00300DC
:10355000616808432A490860FEF7ACFF064609E0A7
:10356000FEF7A8FF801B41F28831884202D9032070
:1035700091E707E02248006800F00C006168B0EBBA
:10358000810FEDD11D48006800F00F00A84209D955
:103590001A490D700846006800F00F00A84201D0DB
:1035A000012078E7207800F00400042807D11448AF
:1035B000006820F4E050E168084311490860207871
:1035C00000F00800082808D10D48006820F4604089
:1035D000216940EAC1000A49086000F061F8084921
:1035E0000968C1F30311074A515CC84006490860E5
:1035F00006480068FEF78EFF00204CE7003C0240C2
:103600000838024048E80008280000202000002078
:103610000F2202600D4A126802F0030242600B4A58
:10362000126802F0F0028260084A126802F4E05266
:10363000C260064A126802F46042D2080261044A7B
:10364000126802F00F020A6070470000083802405A
:10365000003C02400148006870470000280000203C
:1036600000B5FFF7F7FF04490968C1F38221034A57
:10367000515CC84000BD00000838024058E800080E
:1036800000B5FFF7E7FF04490968C1F34231034A77
:10369000515CC84000BD00000838024058E80008EE
:1036A0002DE9F047002400250026A14625480068A2
:1036B00000F00C0020B1042805D008283AD105E01C
:1036C000DFF8849039E0DFF8849036E01D48001F71
:1036D000006800F03F041B48001F006800F48000F1
:1036E00078B11A481749091F0968C1F38811A0FB6E
:1036F00001700146224600233846FCF7D3FD0546FB
:103700000EE011480F49091F0968C1F38811A0FB99
:1037100001700146224600233846FCF7C3FD0546EA
:103720000848001F0068C0F30140401C4600B5FB7C
:10373000F6F902E0DFF8109000BF00BF4846BDE890
:10374000F0870000083802400024F40000127A00DC
:10375000F8B504460CB90120F8BD207800F001004E
:10376000002874D0F948006800F00C0004280DD03F
:10377000F648006800F00C00082813D1F348001F39
:10378000006800F48000B0F5800F0BD1EF480838D6
:103790000068C0F34040002859D06068002856D126
:1037A0000120D9E700BF6068B0F5803F08D1E74845
:1037B0000838006840F48030E449083908601EE0A9
:1037C0006068B0F5A02F0DD1E0480838006840F4DB
:1037D0008020DE49083908600846006840F48030DF
:1037E00008600CE0D9480838006820F48030D749D8
:1037F000083908600846006820F48020086000BF8F
:10380000606890B1FEF756FE054606E0FEF752FEF0
:10381000401B642801D903209EE7CC480838006883
:10382000C0F340400028F1D011E0FEF743FE05460A
:1038300006E0FEF73FFE401B642801D903208BE71A
:10384000C24808380068C0F340400028F1D1207811
:1038500000F0020002285FD1BC48006800F00C00B4
:1038600058B1BA48006800F00C0008281CD1B748CD
:10387000001F006800F48000B0B9B4480838006840
:10388000C0F3400020B1E068012801D0012063E7C7
:10389000AE480838006820F0F800216940EAC1000D
:1038A000AA490839086037E0E06800B30120A84958
:1038B0000860FEF7FFFD054606E0FEF7FBFD401B36
:1038C000022801D9032047E7A04808380068C0F360
:1038D00040000028F1D09D480838006820F0F8002A
:1038E000216940EAC10099490839086014E00020C4
:1038F00097490860FEF7DEFD054606E0FEF7DAFDB3
:10390000401B022801D9032026E7904808380068A8
:10391000C0F340000028F1D1207800F0080008280A
:103920002CD16069A8B101208A490860FEF7C2FD68
:10393000054606E0FEF7BEFD401B022801D9032024
:103940000AE782486C300068C0F340000028F1D0DC
:1039500014E000207F490860FEF7ACFD054606E054
:10396000FEF7A8FD401B022801D90320F4E67748A2
:103970006C300068C0F340000028F1D1207800F0DE
:103980000400042870D1002770483830006800F027
:10399000805090B900BF002000906C48383000681B
:1039A00040F080506949383108600846006800F0EE
:1039B0008050009000BF00BF01276748006800F4F6
:1039C0008070B0B96448006840F480706249086053
:1039D000FEF770FD054606E0FEF76CFD401B022871
:1039E00001D90320B8E65C48006800F48070002824
:1039F000F2D000BFA068012808D1544868300068A0
:103A000040F001005149683108601DE0A0680528B8
:103A10000DD14E486830006840F004004B496831D1
:103A200008600846006840F0010008600CE0474864
:103A30006830006820F00100444968310860084699
:103A4000006820F00400086000BFA068A8B1FEF77D
:103A500031FD054609E0FEF72DFD401B41F288319E
:103A6000884202D9032077E626E0384868300068AB
:103A7000C0F340000028EED013E0FEF71BFD054622
:103A800008E0FEF717FD401B41F28831884201D95A
:103A9000032061E62D4868300068C0F3400000282C
:103AA000EFD1012F07D129483830006820F080502D
:103AB00026493831086000BFA069002845D0234856
:103AC000006800F00C0008285DD0A069022845D1EC
:103AD00000201F490866FEF7EDFC054606E0FEF7EC
:103AE000E9FC401B022801D9032035E617480838B5
:103AF0000068C0F340600028F1D1D4E90701084311
:103B0000616A40EA81110122A06AC2EB500041EAD9
:103B100000412C20005D41EA00600C49091F08604B
:103B200001200B490866FEF7C5FC054606E0FEF7D6
:103B3000C1FC401B022801D903200DE603480838C8
:103B40000068C0F340600028F1D049E00838024026
:103B500000004742800E474200700040002021498B
:103B60000866FEF7A7FC054606E0FEF7A3FC401B2F
:103B7000022801D90320EFE51B480068C0F340602C
:103B80000028F2D12CE0A069012800D1E4E5164814
:103B9000001D0668A069012820D006F48001E069B4
:103BA00081421BD106F03F01206A814216D147F6BF
:103BB000C0703040616AB0EB811F0FD106F4403114
:103BC0000122A06AC2EB5000B1EB004F06D106F013
:103BD00070612C20005DB1EB006F01D00120BBE5CE
:103BE0000020B9E5000047420038024070477047A6
:103BF00010B504460CB9012010BD94F83D0028B959
:103C0000002084F83C00204600F025F8022084F8CB
:103C10003D00211D206801F0E9FC012084F84600E8
:103C200000BF84F83E0001213F200155402001558E
:103C30004120015500BF00BF012084F8420043200D
:103C40000155442001554520015500BF012084F84D
:103C50003D000020D0E77047014691F83D00012863
:103C600001D001207047022081F83D000868C0683B
:103C700040F001000B68D8601A4B086898421BD0CE
:103C80000868B0F1804F17D0174B0868984213D0DE
:103C9000164B086898420FD0154B086898420BD015
:103CA000144B0868984207D0134B0868984203D019
:103CB000124B086898420CD10868806800F007022F
:103CC000062A0CD00868006840F001000B681860F4
:103CD00005E00868006840F001000B6818600020EB
:103CE000C0E7000000000140000400400008004060
:103CF000000C00400004014000400140001800405A
:103D0000704770B504462068C5682068066906F0EB
:103D10000200022819D105F00200022815D1401F27
:103D200021680861012020772068806900F0030085
:103D300018B12046FFF7E4FF05E0204600F097F8B1
:103D4000204600F095F80020207706F004000428B3
:103D500019D105F00400042815D1C0432168086179
:103D6000022020772068806900F4407018B1204656
:103D7000FFF7C6FF05E0204600F079F8204600F086
:103D800077F80020207706F00800082819D105F000
:103D90000800082815D1C043216808610420207755
:103DA0002068C06900F0030018B12046FFF7A8FFA3
:103DB00005E0204600F05BF8204600F059F80020AE
:103DC000207706F01000102819D105F010001028F7
:103DD00015D1C04321680861082020772068C06998
:103DE00000F4407018B12046FFF78AFF05E0204636
:103DF00000F03DF8204600F03BF80020207706F068
:103E0000010048B105F0010030B16FF001002168F8
:103E10000861204600F02EF806F08000802809D1C5
:103E200005F08000802805D1C04321680861204644
:103E3000FFF7DCFE06F04000402809D105F0400005
:103E4000402805D1C04321680861204600F01EF8D3
:103E500006F02000202809D105F02000202805D1F7
:103E6000C043216808612046FFF7C1FE70BD70475E
:103E70007047000010B5044603492068884201D10C
:103E8000FEF71EFB10BD00000020004070472DE92A
:103E9000F84F04460F4690461D46DDF828A094F8DA
:103EA0004200202878D117B1B8F1000F02D10120CB
:103EB000BDE8F88F00206064222084F842000120D1
:103EC000206300206063FEF7F5FA8346A4F82C8097
:103ED000A4F82E80A068B0F5805F04D1206910B9E5
:103EE0000026B94602E03E464FF000090020288037
:103EF00053E02068006800F01000102813D100BFC4
:103F000000200090206800680090206840680090C1
:103F100000BF00BF288830B102206063202084F8F1
:103F200042000020C4E72068006800F0200020283C
:103F300021D146B920684068C0F30800A9F8000004
:103F400009F1020911E0A068B0F5805F03D0A06814
:103F500028B9206918B920684068307004E02068EA
:103F6000406800F07F003070761C2888401C288054
:103F7000E08D401EE0850AF1010070B1FEF79AFA6B
:103F8000A0EB0B00504502D8BAF1000F05D120205C
:103F900084F8420003208BE70BE0E08D0028A8D1D5
:103FA000A08DE18D401A2880202084F84200002056
:103FB0007EE702207CE7704738B504461448844207
:103FC00025D100BF00200090206800680090206884
:103FD0004068009000BF00BF00BF00200090206834
:103FE0000068009020684068009000BF00BF00BFDC
:103FF00000200090206800680090206840680090D1
:1040000000BF00BF06220349014800F055FB38BD40
:104010007C100020680A00202DE9F84F0446206833
:1040200005682068C668206847694FF00009CA46DD
:1040300005F00F09B9F1000F0AD105F0200038B1E1
:1040400006F0200020B1204601F04BFDBDE8F88FBE
:10405000B9F1000F7CD007F0010018B906F4907098
:10406000002875D005F0010030B106F4807018B159
:10407000606C40F00100606405F0040030B107F0AE
:10408000010018B1606C40F00200606405F00200AD
:1040900030B107F0010018B1606C40F004006064BA
:1040A00005F0080048B106F0200010B907F0010043
:1040B00018B1606C40F008006064606C002846D065
:1040C00005F0200028B106F0200010B1204601F0D4
:1040D00008FD20684069C0F3801A606C00F0080099
:1040E00010B9BAF1000F2DD0204601F0B4FC2068C1
:1040F000406900F04000402820D100BF00BF216887
:10410000143151E8001F21F040002168143141E8CA
:104110000002002AF3D100BFE06B50B17F48E16B91
:104120000865E06BFDF7F9FE88B1E06B016D88472B
:104130000DE02046FFF740FF09E009E02046FFF7C9
:104140003BFF04E02046FFF737FF002060647DE777
:10415000206B012878D105F01000002874D006F0FB
:1041600010000028FAD000BF0020009020680068EE
:10417000009020684068009000BF00BF2068406940
:1041800000F04000402870D1E06B006840681FFAE2
:1041900080F8B8F1000F58D0A08D404555DDA4F847
:1041A0002E80E06BC069B0F5807F43D000BF00BFB8
:1041B00021680C3151E8001F21F4807021680C3116
:1041C00041E80002002AF3D100BF00BF00BF216810
:1041D000143151E8001F21F001002168143141E839
:1041E0000002002AF3D100BF00BF00BF21681431D4
:1041F00051E8001F21F040002168143141E800021D
:10420000002AF3D100BF202084F842000020206360
:1042100000BF00BF21680C3151E8001F21F01000E1
:1042200021680C3141E80002002AF3D100BFE06BA5
:10423000FDF71DFE02206063A08DE28D801A81B221
:104240002046FFF7B8FE0EE052E0A08D40450AD1AF
:10425000E06BC069B0F5807F05D102206063A18D5D
:104260002046FFF7A8FEF1E6FFE7A08DE18D401A9A
:104270001FFA80F8E08DD0B3B8F1000F37D000BF3F
:1042800000BF21680C3151E8001F21F490702168B3
:104290000C3141E80002002AF3D100BF00BF00BF8B
:1042A0002168143151E8001F21F001002168143108
:1042B00041E80002002AF3D100BF202084F8420028
:1042C0000020206300BF00BF21680C3151E8001FAF
:1042D00021F0100021680C3141E80002002AF3D1DE
:1042E00000BF0220606341462046FFF764FEADE652
:1042F00005F0800030B106F0800018B1204601F0D2
:10430000A5FDA3E605F0400030B106F0400018B16D
:10431000204601F0D6FB99E600BF97E6455A000813
:1043200010B504460CB9012010BDA06900B100E031
:1043300000BF94F8410028B9002084F840002046CE
:1043400000F02AF8242084F841002068C06820F496
:1043500000502168C860204601F042FC20680069D6
:1043600020F49040216808612068406920F02A000C
:10437000216848612068C06840F400502168C86026
:1043800000206064202084F8410084F8420000206E
:10439000606300BFC8E7000010B586B00446142172
:1043A00001A8FBF7C9FFB749206888426AD100BF5E
:1043B00000200090B448006840F48010B2490860C2
:1043C0000846006800F48010009000BF00BF00BFE6
:1043D00000200090AC481038006840F00400AA4962
:1043E000103908600846006800F00400009000BF23
:1043F00000BF00BF002000900846006840F00800A1
:1044000008600846006800F00800009000BF00BF88
:104410008814019002200290002003900320049051
:104420000820059001A99948FDF736FF0420019066
:1044300002200290002003900320049008200590A1
:1044400001A99348FDF728FF9248934908604FF06F
:10445000006048604021904881600021C1604FF4B5
:1044600080610161002141618161C161016241623C
:10447000FDF788FE08B1FCF777FF00BF8648A06310
:104480008463FDE08549206888427ED100BF00201A
:1044900000907D48001D006840F010007A49091D19
:1044A00008600846006800F01000009000BF00BFE0
:1044B00000BF0020009074481038006840F00100F0
:1044C0007149103908600846006800F0010000904A
:1044D00000BF00BF4FF4C060019002200290002096
:1044E0000390032004900720059001A96C48FDF774
:1044F000D3FE6C486C4908604FF0006048600021B2
:1045000069488160C1604FF48061016100214161AF
:1045100081614FF48071C161002101624162FDF748
:1045200031FE08B1FCF720FF00BF5F48E063846301
:1045300000BF5C4878305D4908604FF0006048601B
:1045400040215A4881600021C1604FF480610161BF
:104550000021416181614FF48071C16100210162DC
:104560004162FDF70FFE08B1FCF7FEFE00BF4F48A9
:10457000A063846300BF002205212520FEF762F8B6
:104580002520FEF74BF87BE0FFE749492068884289
:1045900038D100BF002000903B48006840F4003054
:1045A000394908600846006800F40030009000BFF8
:1045B00000BF00BF0020009033481038006840F072
:1045C00001003149103908600846006800F0010018
:1045D000009000BF00BF0C2001900220029000203C
:1045E0000390032004900720059001A92C48FDF7B3
:1045F00053FE002205212620FEF724F82620FEF790
:104600000DF83DE02B492068884239D100BF0020D9
:1046100000901D48001D006840F020001A49091D47
:1046200008600846006800F02000009000BF00BF4E
:1046300000BF0020009014481038006840F00400CB
:104640001149103908600846006800F00400009025
:1046500000BF00BFC0200190022002900020039004
:10466000032004900820059001A90848FDF714FED6
:10467000002205214720FDF7E5FF4720FDF7CEFF8B
:1046800006B010BD00500040403802400008024013
:10469000000C0240B86002400C11002000100140E4
:1046A00000000240406402406C110020CC11002048
:1046B000004400400014014070B504460D46164603
:1046C00094F8420020280BD105B10EB9012070BD2D
:1046D0000020206332462946204601F097FBF6E78A
:1046E0000220F4E710B504460548844207D1054886
:1046F00009F04EFD062203490148FFF7DDFF10BD1A
:104700007C100020680A00202DE9F84F04460E4670
:10471000174699464FF0000A94F84100202850D1DE
:1047200006B117B90120BDE8F88F00206064212090
:1047300084F84100FDF7BEFE8246A784E784A068A6
:10474000B0F5805F04D1206910B90025B04602E0C1
:1047500035464FF000081EE05346002280212046D7
:10476000CDF8009001F0A2FB20B1202084F8410098
:104770000320D8E745B9B8F80000C0F30800216865
:10478000486008F1020803E02878216848606D1C41
:10479000E08C401EE084E08C0028DDD153460022EE
:1047A00040212046CDF8009001F080FB20B1202070
:1047B00084F841000320B6E7202084F8410000205F
:1047C000B1E70220AFE7704700BFFEE7F0B587B062
:1047D000064600252BE0002425E005EBC50707EB86
:1047E0004707DFF814C10CEB071704EBC40C07EB09
:1047F0000C10424F07EB8413414F07EB4412414F1B
:10480000395D414F07EB840797ED001AF0EE410A3E
:104810003E4F07EB840797ED001AB0EE410A07F010
:10482000EDF8601CC4B2032CD7DB681CC5B2042DA4
:10483000D1DB00200BE000EBC00101EB41012E4A6F
:1048400002EB011101AA42F82010411CC8B2042851
:10485000F1DB01AA2E49304607F004FA2D49304613
:1048600007F030FA4FF4967008F026FA00200CE0BA
:1048700000EBC00101EB41011F4A02EB0111903135
:1048800001AA42F82010411CC8B20428F0DB22A083
:104890000068069001AA06A9304607F0E3F91D4911
:1048A000304607F00FFA4FF4FA7008F005FA0020CE
:1048B0000DE000EBC00101EB41010F4A02EB0111D9
:1048C00001F5907101AA42F82010411CC8B20428D9
:1048D000EFDB12A00068059001AA05A9304607F099
:1048E000C1F90C49304607F0EDF94FF47A7008F041
:1048F000E3F907B0F0BD0000744F002050F8000845
:10490000F0F70008ECF70008E0F70008D4F700081B
:1049100010F90008FDBF00080101010102020202B6
:1049200030B50B46002100BF16E00A24B4EB107F1F
:1049300005D9302404EB107403F8114005E041243C
:1049400004EB10740A3C03F81140000100254C00F0
:10495000641C1D554C1CE1B29142E6DB30BD0000E9
:10496000F0B599B0064600252FE0002429E0574A0B
:1049700002EBC501564A02EB841001AA08F0E6F9E1
:1049800005EBC503534F07EB831304EBC40703EB9D
:104990000710514B03EB4412504B195D504B03EB86
:1049A000840393ED001AF0EE410A4E4B03EB8403AF
:1049B00093ED001AB0EE410A01AB07F01FF8601C3E
:1049C000C4B2042CD3DB681CC5B2042DCDDB00209F
:1049D00009E000EBC0013F4A02EB811111AA42F845
:1049E0002010411CC8B20428F3DB0020189011AA43
:1049F00018A9304607F036F93B49304607F062F90E
:104A00004FF47A7008F058F900200AE000EBC0017A
:104A1000304A02EB8111903111AA42F82010411C5A
:104A2000C8B20428F2DB31A00068179011AA17A9B8
:104A3000304607F017F92C49304607F043F9C820F3
:104A400008F03AF900200BE000EBC001214A02EB2C
:104A5000811101F5907111AA42F82010411CC8B2D1
:104A60000428F1DB22A00068169011AA16A930468E
:104A700007F0F8F81C49304607F024F9642008F0E4
:104A80001BF900200BE000EBC001124A02EB811180
:104A900001F5D87111AA42F82010411CC8B20428AF
:104AA000F1DB14A00068159011AA15A9304607F093
:104AB000D9F80D49304607F005F94FF47A7008F03F
:104AC000FBF80020307019B0F0BD0000B4F700080A
:104AD000B4F600087446002034F6000830F60008EA
:104AE00020F6000810F60008D1BD00080101010100
:104AF0000202020203030303F0B585B00646002557
:104B000029E0002423E005EBC507DFF85CC10CEBCE
:104B1000871704EBC40C07EB0C10544F07EB8413FE
:104B2000534F07EB4412534F395D534F07EB840744
:104B300097ED001AF0EE410A504F07EB840797ED0E
:104B4000001AB0EE410A06F059FF601CC4B2042CF2
:104B5000D9DB681CC5B2042DD3DB00208DF8000022
:104B600001208DF8010000208DF8020001208DF851
:104B7000030000200FE000EBC0013B4A02EB811173
:104B80001DF8002002EBC20201EB021101AA42F85B
:104B90002010411CC8B20428EDDB01AA694630464A
:104BA00007F060F83649304607F08CF8012008F02D
:104BB00083F854E003208DF8000002208DF80100F6
:104BC00003208DF8020002208DF8030000200FE082
:104BD00000EBC001244A02EB81111DF8002002EB1A
:104BE000C20201EB021101AA42F82010411CC8B216
:104BF0000428EDDB01AA6946304607F033F8204966
:104C0000304607F05FF802208DF8000003208DF891
:104C1000010002208DF8020003208DF8030000201F
:104C20000FE000EBC001104A02EB81111DF80020DB
:104C300002EBC20201EB021101AA42F82010411C52
:104C4000C8B20428EDDB01AA6946304607F00AF82D
:104C50000B49304607F036F8012008F02DF830787F
:104C60000428A7D005B0F0BD743D002010F5000861
:104C700090F400088CF400087CF400086CF4000840
:104C8000FDBF000810B50E480E49086003204860BB
:104C900000210C488160C1604FF4102101614FF484
:104CA000001141610021017641768176C17601775C
:104CB0004177FCF725FF08B1FCF756FB10BD00005B
:104CC000006400409C0F002010B50E480E4908609B
:104CD0000320486000210C488160C1604FF410211E
:104CE00001614FF400114161002101764176817626
:104CF000C17601774177FCF703FF08B1FCF734FB7D
:104D000010BD000000680040C40F002008B500BFBF
:104D1000002000901A48006840F48000184908609C
:104D20000846006800F48000009000BF00BF00BF8C
:104D3000002000900846006840F400100860084613
:104D4000006800F40010009000BF00BF00220521A1
:104D50002F20FDF777FC2F20FDF760FC00220521B6
:104D60003A20FDF76FFC3A20FDF758FC00220521A0
:104D70004620FDF767FC4620FDF750FC08BD00000B
:104D80003038024000B595B01C2214490EA8FBF73C
:104D9000BAFA00210EA807F0AAFF114908601C22E8
:104DA0000E491C3107A8FBF7AEFA002107A807F04F
:104DB0009EFF0C49086000200B4981F868081C22FE
:104DC000064938316846FBF79EFA0021684607F02D
:104DD0008EFF0649086015B000BD0000ECE7000832
:104DE0001400002008000020D80100200C00002042
:104DF00000B587B0142102A8FBF79EFA00BF00207F
:104E000001902E48006840F080002C490860084658
:104E1000006800F08000019000BF00BF00BF0020CC
:104E200001900846006840F00100086008460068EC
:104E300000F00100019000BF00BF00BF0020019002
:104E40000846006840F0020008600846006800F06C
:104E50000200019000BF00BF00BF00200190084683
:104E6000006840F0040008600846006800F0040094
:104E7000019000BF00BF00BF0020019008460068FD
:104E800040F0080008600846006800F00800019043
:104E900000BF00BF002289150948FDF705FB4FF44C
:104EA000807002900120039000200490059002A9D8
:104EB0000348FDF7F1F907B000BD000030380240AB
:104EC0000000024010B50B480B4908604FF4E13078
:104ED0004860002108488160C16001610C21416186
:104EE00000218161C161FFF71BFA08B1FCF73CFAB0
:104EF00010BD000000500040EC0F002010B50A4823
:104F00000A4908600A484860002108488160C16079
:104F100001610C21416100218161C161FFF700FA4B
:104F200008B1FCF721FA10BD001001403410002038
:104F300000093D0010B50C480C4908604FF4E13001
:104F400048600021094881604FF40051C160C910D8
:104F500001610C21416100218161C161FFF7E0F92C
:104F600008B1FCF701FA10BD004400407C1000209D
:104F700010B50B480B4908604FF4E1304860002140
:104F800008488160C16001610C214161002181619B
:104F9000C161FFF7C5F908B1FCF7E6F910BD0000E3
:104FA00000140140C410002010B500220D490E4825
:104FB00001F025FE08B1FCF7D7F90C490A4802F0C8
:104FC00060F908B1FCF7D0F90949074801F04AFA3D
:104FD00008B1FCF7C9F9044802F056FA08B1FCF729
:104FE000C3F910BDC800002044C1002040010020CA
:104FF0001C01002000BFFEE770B588B006460C46D5
:1050000015460695002003900490059050200290CC
:1050100001AB224602A90248FCF74BFA08B070BD6A
:10502000C40F002000BFFEE710B50248FDF729FDC0
:1050300010BD000020CC0020372834D1364AB2F908
:105040006E2000EE102A344AB2F9702000EE902A49
:10505000314AB2F9722001EE102AF8EEC01A9FED23
:105060002F2AC1EE822ADFED2E1A62EEA11A2D4AF6
:10507000C2ED051AF8EEE01ADFED282A81EEA22A29
:10508000DFED271A62EE211AC2ED061AF8EEC11AF8
:105090009FED222AC1EE822ADFED211A62EEA11ACB
:1050A000C2ED071A00BF3D2834D11B4AB2F97A205D
:1050B00000EE102A184AB2F97C2000EE902A164A17
:1050C000B2F97E2001EE102AB8EEC02ADFED132AD5
:1050D000C2EE221A9FED142A61EE821A114AC2ED25
:1050E000001AB8EEE02ADFED0D2AC2EE221A9FED7B
:1050F0000E2A61EE821AC2ED011AF8EEC11A9FED76
:10510000072AC1EE822ADFED081A62EEA11AC2ED6B
:10511000021A00BF7047000004BF002000000047D3
:105120000000FA44F4800020000034432DE9F047E9
:1051300004460D4626683746D6F8408007F53060AD
:1051400000EB4510D0F80890104880450BD909F4C1
:105150000040B0F5004F06D14FF4004107F5306034
:1051600000EB451081602046FEF746F90748804570
:1051700008D9A079012805D104F29C4201212068B8
:1051800002F03AFE0020BDE8F08700000A30544FDC
:105190002DE9F04705460C46D5F800904E46D9F863
:1051A00040A006F5306000EB4410D0F80880A879E4
:1051B000012855D108F0080008280FD1434882453E
:1051C0000BD908F40040B0F5004F7BD14FF40041FB
:1051D00006F5306000EB4410816073E008F02000B9
:1051E000202806D1202106F5306000EB44108160B4
:1051F00068E008F02800002864D1344882450CD9C2
:1052000008F40040B0F5004F07D14FF4004106F517
:10521000306000EB4410816054E004EBC40105F5FC
:10522000157000EB810706F5306000EB4410396A19
:105230000069C0F31200081A786164B9386930B99E
:1052400005F29C420121286802F0D6FD03E079694D
:10525000F8680844F860E1B22846FDF789FA31E0C1
:105260001B4882451BD108F40040B0F5004F07D120
:105270004FF4004106F5306000EB4410816021E0FE
:1052800008F02000202805D1202106F5306000EB31
:1052900044108160E1B22846FDF76AFA12E06CB969
:1052A00004EBC40105F5157000EB8100006928B915
:1052B00005F29C420021286802F09EFDE1B22846DA
:1052C000FDF756FA0020BDE8F08700000A30544F81
:1052D0000A31544F2DE9F84F07460E46D7F8009093
:1052E000C84606EBC60107F1140000EB8104D4E9BF
:1052F0000410884202D90120BDE8F88FD4E90401E6
:10530000451AA068A84200D2A568E81C4FEA900A96
:1053100017E0D4E90401451AA068A84200D2A568A4
:10532000E81C4FEA900AB879ABB2F2B20090484656
:10533000E16803F029FAE0682844E06060692844E5
:10534000606108F5106000EB4610806980B250453E
:1053500006D3D4E90410884202D220690028D8D1AB
:10536000D4E9040188420ED806F00F01012000FAAA
:1053700001FB40F6340050F8080020EA0B0040F62C
:10538000340141F808000020B6E7000000BF1349CF
:10539000012008F07FFF114890ED000AB5EEC00A29
:1053A000F1EE10FA02DBB6EE000A01E0BEEE000AF2
:1053B0000A48D0ED000A30EE200ABDEEC00A10EE19
:1053C000104A002C01DA002402E0082C00DD082439
:1053D00003490C70012007F06FFCD8E71000002093
:1053E000D80100207CB506460C46002001903046CE
:1053F00007F056FB012211021E48FDF755F8012265
:1054000011021C48FDF750F80A23112231461A48B0
:10541000FFF77AF900224FF480711648FDF744F83F
:1054200000224FF480711348FDF73EF80A2001ABCB
:105430001022214600901048FEF729FDBDF8040017
:1054400008B903207CBDBDF80400102801D001205C
:10545000F8E725462878FD2809D16878EE2806D196
:1054600001202062204606F047FC0020EAE70120E8
:10547000E8E70000000002403410002030B501468B
:105480000A461378521C147843EA042030BD000009
:105490002DED028BFFF788FD06F044FD06220C4936
:1054A0000C48FFF709F900BF0B4890ED000A10EE19
:1054B000101A0846FBF764F841EC180B53EC182B54
:1054C00006A003F0B3FA642007F0F6FBECE7000057
:1054D000680A00207C10002024D3002025660A00E2
:1054E00010B500BF502080F31188BFF34F8FBFF37A
:1054F0006F8F00BF09F054F818B14FF08050044985
:10550000086000BF002080F3118800BF10BD0000BC
:1055100004ED00E000B593B0302107A8FAF70CFFC6
:10552000142102A8FAF708FF00BF002001902448C8
:10553000006840F08050224908600846006800F08A
:105540008050019000BF00BF00BF002001901D48A7
:10555000006840F440401B4908600846006800F4B9
:105560004040019000BF00BF012007900004089058
:1055700002200D9041050E9104210F91A821109158
:10558000022111910721129107A8FEF7E1F808B155
:10559000FBF7EAFE0F200290022003900020049007
:1055A0004FF4A05005904FF480500690052102A8BA
:1055B000FDF76CFF08B1FBF7D7FE13B000BD00008C
:1055C00040380240007000400348006840F470001A
:1055D000014908607047000088ED00E010B50248FE
:1055E000FEF78FFB10BD00002C12002010B50268E2
:1055F0002B4B98420ED0B0F1804F0BD0294B9842E4
:1056000008D0294B984205D0284B984202D0284B0D
:10561000984203D122F070024B681A43204B984203
:1056200020D0B0F1804F1DD01E4B98421AD01E4B97
:10563000984217D01D4B984214D01D4B984211D060
:105640001C4B98420ED01C4B98420BD01B4B9842DF
:1056500008D01B4B984205D01A4B984202D01A4BE7
:10566000984203D122F44072CB681A4322F080039F
:105670004C6943EA04028B68C3620B688362084B7F
:10568000984202D00A4B984201D10B690363036828
:1056900043F00403036001234361026010BD000076
:1056A000000001400004004000080040000C0040E1
:1056B0000004014000400140004401400048014016
:1056C00000180040001C004000200040F0B585B0EC
:1056D000054600262BE0002425E006EBC60707EB75
:1056E0004707DFF844C30CEB871704EBC40C07EB48
:1056F0000C10CE4F07EB8413CD4F07EB4412CD4F68
:10570000395DCD4F07EB840797ED001AF0EE410AA3
:10571000CA4F07EB840797ED001AB0EE410A06F076
:105720006DF9601CC4B20C2CD7DB701CC6B2042E01
:10573000D1DB287802287DD18DF8000001208DF87A
:10574000010003208DF8020000208DF8030000BF47
:1057500011E000EBC00101EB4101B34A02EB811102
:105760001DF8002002EBC20201EB021101AA42F86F
:105770002010411CC8B20428EBDB01AA6946284668
:1057800006F070FAAE49284606F09CFA012007F0B0
:1057900093FA5AE004208DF8000007208DF80100EC
:1057A00005208DF8020006208DF80300002011E08E
:1057B00000EBC00101EB41019B4A02EB81111DF896
:1057C000002002EBC20201EB021101AA42F82010F4
:1057D000411CC8B20428EBDB01AA6946284606F042
:1057E00041FA9749284606F06DFA06208DF8000028
:1057F00005208DF8010007208DF8020004208DF8A7
:105800000300002011E000EBC00101EB4101864ADA
:1058100002EB81111DF8002002EBC20201EB021124
:1058200001AA42F82010411CC8B20428EBDB01AAEF
:10583000694600E03BE0284606F014FA8049284615
:1058400006F040FA012007F037FA28780228A1D0A4
:105850000A208DF8000008208DF801000B208DF83B
:10586000020009208DF80300002011E000EBC001C8
:1058700001EB41016C4A02EB81111DF8002002EBA3
:10588000C20201EB021101AA42F82010411CC8B269
:105890000428EBDB01AA6946284606F0E3F96849CB
:1058A000284606F00FFA012007F006FABAE0287839
:1058B0000328FBD18DF8000000208DF801000220A4
:1058C0008DF8020001208DF80300002011E000EBAC
:1058D000C00101EB4101544A02EB81111DF8002087
:1058E00002EBC20201EB021101AA42F82010411C96
:1058F000C8B20428EBDB01AA6946284606F0B2F9D3
:105900004F49284606F0DEF9012007F0D5F958E0A6
:1059100005208DF8000006208DF8010004208DF888
:10592000020007208DF80300002011E000EBC00109
:1059300001EB41013C4A02EB81111DF8002002EB12
:10594000C20201EB021101AA42F82010411CC8B2A8
:105950000428EBDB01AA6946284606F083F938499A
:10596000284606F0AFF907208DF8000004208DF8D6
:10597000010006208DF8020005208DF803000020AC
:1059800011E000EBC00101EB4101274A02EB81115C
:105990001DF8002002EBC20201EB021101AA42F83D
:1059A0002010411CC8B20428EBDB01AA6946284636
:1059B00006F058F92249284606F084F9012007F03C
:1059C0007BF928780328A3D00B208DF8000009204C
:1059D0008DF801000A208DF8020008208DF80300E0
:1059E000002011E000EBC00101EB41010E4A02EB87
:1059F00081111DF8002002EBC20201EB021101AA85
:105A000042F82010411CC8B20428EBDB01AA694609
:105A1000284606F027F90A49284606F053F90120DE
:105A200007F04AF905B0F0BD742200206CF10008BF
:105A3000ECEF0008E0EF0008B0EF000880EF00088E
:105A4000D1BD000870B50446A56B0020E885284646
:105A5000FEF7B2FA70BD00BF00BF02680C3252E818
:105A6000002F22F4907102680C3242E80013002BE0
:105A7000F3D100BF00BF00BF0268143252E8002F0C
:105A800022F001010268143242E80013002BF3D126
:105A900000BF016B01290ED100BF00BF02680C32AC
:105AA00052E8002F22F0100102680C3242E8001385
:105AB000002BF3D100BF202180F8421000210163A8
:105AC000704710B504462068C06820F04000216887
:105AD000C860202084F841002046FEF774FE0020B4
