:020000040800F2
:100000009874002081020008094000084937000860
:10001000DD3F0008050B0008F56A0008000000003D
:10002000000000000000000000000000C101000806
:100030009D0D0008000000001D020008B5430008E7
:100040009B0200089B0200089B0200089B0200081C
:100050009B0200089B0200089B0200089B0200080C
:100060009B0200089B0200089B0200089B020008FC
:100070009B0200089B0200089B0200089B020008EC
:10008000750C0008810C00089B0200089B02000808
:100090009B0200089B0200089B0200089B020008CC
:1000A0009B0200089B0200089B0200089B020008BC
:1000B0009B0200089B0200089B0200089B020008AC
:1000C0009B0200089B0200089B0200089B0200089C
:1000D0009B020008414C00084D4C00089B020008A0
:1000E0009B0200089B0200089B0200089B0200087C
:1000F0009B020008854400089B0200088D0C000844
:100100009B0200089B0200089B0200089B0200085B
:100110009B0200089B0200089B0200089B0200084B
:100120009B0200089B020008990C00089B02000833
:100130009B0200089B0200089B0200089B0200082B
:10014000090B00089B0200089B0200080D400008F4
:100150009B0200089B0200089B0200089B0200080B
:100160009B0200089B0200089B0200089B020008FB
:100170009B0200089B0200089B0200080000000090
:100180009B0200089B0200089B0200089B020008DB
:100190009B0200089B0200089B0200089B020008CB
:1001A0009B0200089B0200089B020008DFF80CD0AD
:1001B00000F0C4FB00480047DD9700089874002059
:1001C0002C4B19680868B0E8F04F80F30988BFF33A
:1001D0006F8F4FF0000080F311887047000000001F
:1001E00008480068006880F308884FF0000080F33A
:1001F000148862B661B6BFF34F8FBFF36F8F00DF15
:1002000000BF00BF08ED00E0DFF80C00016841F41A
:1002100070010160704700BF88ED00E0EFF30980D6
:10022000BFF36F8F134B1A681EF0100F08BF20ED3D
:10023000108A20E9F04F106009B44FF0500080F3AD
:100240001188BFF34F8FBFF36F8F0AF0C5FA4FF0DD
:10025000000080F3118809BC19680868B0E8F04F05
:100260001EF0100F08BFB0EC108A80F30988BFF3AE
:100270006F8F7047E80D0020EFF305807047000096
:100280000648804706480047FEE7FEE7FEE7FEE730
:10029000FEE7FEE7FEE7FEE7FEE7FEE7754400083F
:1002A000AD0100082DE9F05F0546002092469B460F
:1002B00088460646814640241BE02846414647467C
:1002C000224600F0CFF953465A46C01A914110D346
:1002D00011461846224600F0B6F92D1A67EB0108C0
:1002E0004F4622460120002100F0ADF917EB00092E
:1002F0004E41201EA4F10104DFDC484631462A4667
:100300004346BDE8F09F40EA01039B0703D009E0A4
:1003100008C9121F08C0042AFAD203E011F8013BF1
:1003200000F8013B521EF9D27047D2B201E000F84A
:10033000012B491EFBD270470022F6E710B5134689
:100340000A4604461946FFF7F0FF204610BD2DE986
:10035000FE4F804681EA0300C00F0C46009021F05A
:10036000004123F00045B8EB0200A94105D2404608
:10037000214690461C460B46024623F0004010439F
:1003800047D0270DC7F30A00C3F30A510290401A61
:10039000019040286BDAC3F3130040F4801B0098EF
:1003A000924620B10023D2EB030A63EB0B0B0198BA
:1003B0005946C0F14002504600F045F906460D4648
:1003C00050465946019A00F05DF910EB0800614172
:1003D000002487EA115284EAE7731A4340D0009A56
:1003E00062B3019A012A4FEA075215DC001B61EB48
:1003F00002014FF0004202EA0752CDE90042001C20
:1004000041F5801132462B4600F094F903B0BDE867
:10041000F08F40462146F9E7001B61EB0201001C0A
:1004200041F5801300185B412018A2F5001747EB37
:10043000030140EAD570B6196D4111E06D084FEA2D
:10044000360645EAC0754FEA0752001B61EB020110
:10045000001C41F5801149084FEA30000019514154
:1004600032462B4603B0BDE8F04F00F054B9009877
:10047000012240000023D0EB020263EBE0730098FE
:1004800021464FEAE074B8EB000061EB0401E9E7B4
:1004900083F000435BE781F0004158E72DE9FE4F10
:1004A00081EA030404F0004421F0004100944FF07D
:1004B000000B23F0004350EA01045ED052EA03042B
:1004C0005BD0C3F30A54C1F30A552C44A4F2F334AD
:1004D0000194A0FB0254C1F3130141F48011C3F352
:1004E000130343F4801301FB024400FB034E840A10
:1004F000970A44EA815447EA8357A4FB07680295A8
:100500008D0A05FB07854FEA932C04FB0C54270545
:10051000029D4FEA065847EA1637B5EB08056EEB21
:10052000070C870E920E47EA811742EA8312A7FB57
:100530000201B6EB0B0164EB00042B0D43EA0C3314
:100540005E1844EB1C50DA465146E7FB0201C5F346
:1005500013044FEA0B3343EA14534FEA0432019C6D
:1005600043EA0603A4F10C040294009CCDE900B414
:1005700000F0E0F803B0BDE8F08F00200146F9E795
:100580000EB5C10F80EAE0700844CA07002140F2AE
:1005900033438DE80E000A460B4600F0CBF803B05B
:1005A00000BD0EB540F2334102910021CDE90011AA
:1005B0000A460B4600F0BEF803B000BD00F0004252
:1005C00030F000400AD0C10D01F56071C0F3160093
:1005D00042EA0151C208400711437047002001461A
:1005E000704701F0004330B421F0004150EA0102AD
:1005F00006D00A0DA2F56072C1F31301002A02DCD5
:1006000030BC00207047440F44EAC104C100E01828
:1006100030BC00EBC25000F047B830B50B46014685
:1006200000202022012409E021FA02F59D4205D391
:1006300003FA02F5491B04FA02F52844151EA2F13B
:100640000102F1DC30BD202A04DB203A00FA02F17D
:10065000002070479140C2F1200320FA03F31943B0
:1006600090407047202A04DB203A21FA02F0002152
:10067000704721FA02F3D040C2F1200291400843B2
:1006800019467047202A06DBCB17203A41FA02F0C0
:1006900043EAE07306E041FA02F3D040C2F12002DF
:1006A00091400843194670470029A8BF7047401C75
:1006B000490008BF20F00100704710B4B0FA80FC78
:1006C00000FA0CF050EA010404BF10BC704749B1B5
:1006D000CCF1200421FA04F411FA0CF118BF012125
:1006E00021430843A3EB0C01CB1D4FEA00614FEA05
:1006F000102042BF002010BC704700EBC3501044D4
:100700000029A4BF10BC7047401C490008BF20F05E
:10071000010010BC704710B5141E73F1000408DA14
:10072000401C41F1000192185B411A4301D120F0B5
:10073000010010BD2DE9F04D92469B4611B1B1FA72
:1007400081F202E0B0FA80F220329046FFF77BFFA0
:1007500004460F4640EA0A0041EA0B0153465A4656
:10076000084313D0114653EA010019D0C8F14002E2
:100770005046FFF777FF05460E465046594642461B
:10078000FFF761FF084305D0012004E02046394609
:10079000BDE8F08D0020054346EAE0762C43374360
:1007A0000A986305E40AA0EB08000022FD0A44EA67
:1007B00047540A3002D500200146E9E70105101927
:1007C0006941DDE9084500196941BDE8F04DA2E73E
:1007D0002DE9F04D81EA030404F0004B21F00045BF
:1007E00014464FF0000A23F0004150EA050220D0E1
:1007F00054EA01021DD0C5F30A570246C5F313039C
:10080000C1F31300C1F30A5640F4801543F480137A
:10081000A7EB0608101BD64608F2FD3873EB05005F
:1008200002D308F1010801E092185B41B8F1000F12
:1008300003DA00200146BDE8F08D00204FF480115E
:10084000064684460EE0171B73EB050705D3121B03
:1008500063EB050306434CEA010C49084FEA3000FC
:1008600092185B4150EA0107EDD152EA030012D021
:1008700082EA040083EA0501084305D0101BAB415E
:1008800006D20122002306E000224FF0004302E0DE
:100890006FF0010253101AEB06004CEB085110EBFD
:1008A0000A0041EB0B01BDE8F04DFFF734BF70B516
:1008B00021F0004303430CD0C1F30A550024D5EBCB
:1008C000040564EB0403D617AD1AB34102DB002024
:1008D000014670BD201841EB025170BDC1F30A52B0
:1008E000C1F3130140F2FF3341F480119A4202DA5E
:1008F00000200146704740F233439A42A2F233424D
:1009000002DC5242FFF7AEBEFFF79DBE30B5041EBB
:1009100071F1000404DB4FF00044404264EB01013C
:10092000141E73F1000405DB1C464FF000435242D5
:1009300063EB0403994208BF904230BD064C074D5B
:1009400006E0E06840F0010394E80700984710349F
:10095000AC42F6D3FFF72EFC84B70008A4B700081A
:100960002DE9F04D00231A461B1A8A4103DB0020B3
:100970000146BDE8F08DC1F30A52C1F3130141F401
:1009800080154FF0000BD10702D100186D41521EA7
:100990000027044640F2FF11384601EB620A3E464A
:1009A0008046024600204FF48011FFF75BFEC2191B
:1009B0007141BB1846EB0100B4EB030C75EB000C66
:1009C00004D3E41A65EB000517460E46241908F116
:1009D00001006D4180463428E3DDF91946EB06003D
:1009E000091BA84103D24FF0FF32134601E0002259
:1009F00013461BEB070046EB0A51BDE8F04DFFF72D
:100A00008ABE70B58C1810F8015B15F0070301D190
:100A100010F8013B2A1106D110F8012B03E010F861
:100A2000016B01F8016B5B1EF9D12B0705D4002384
:100A3000521E0DD401F8013BFAE710F8013BCB1A26
:100A4000921C03E013F8015B01F8015B521EF9D51B
:100A5000A142D8D3002070BD2DED028B82B0DFED16
:100A6000210A9FED210A214808F022FB09F025FA0E
:100A700006469FED1F8ADFF87C801F4F09F01DFAA4
:100A8000811B00EE101AB8EE400A20EE080A064656
:100A9000B5EEC00AF1EE10FA0CDD1649134808F065
:100AA00022FC0221114808F0F5FA87EDDD0A09F071
:100AB00004FA0646D7F87403FFF780FD04460D4696
:100AC000D8F80800FFF77AFD41EC100B0BA053ECAF
:100AD000102BCDE9004506F02DF90A2009F0E0F9C8
:100AE000CCE70000CDCCCC3D8FC2F53C10170020E8
:100AF0006F12833A881F00208013002025662C2562
:100B0000660A0000FEE70000014800F08DBB00000F
:100B1000201C002004284FF00000704702480021EC
:100B20000180418000207047CE0E002010B50022C9
:100B30000449054804F0A0FA0449034804F08EFA79
:100B4000002010BD94670020B85E0020946500204E
:100B500070B50B68144A11885488A14206D31188D5
:100B60005488091BA1F2FF11494203E051881488FF
:100B7000091B491E8B420DD800210C4C08E0455C36
:100B80001688A55515886D1CC5F308051580491CE8
:100B90009942F4D30649074804F060FA054804F086
:100BA00031FA002070BD0000CE0E002094630020BA
:100BB00094650020B85E0020002070472DE9F047C2
:100BC0000027002601F1060904255038DFF89C8033
:100BD000102849D2DFE800F01208140D171A1C1E65
:100BE000202224484848482634240325402701264B
:100BF0001AE03D2403252E27012615E0302413E0BA
:100C00003724032210E03A2403220DE041240BE0B4
:100C1000452409E0492407E04D2405E0512403E080
:100C2000552401E0D8F82440032A01D103250026E9
:100C3000DFF83CA04DB16A000AEB4400FFF763FB0C
:100C4000D8F81420294620469047002E0CD0720078
:100C50000AEB47004946FFF756FB31463846D8F8BD
:100C60001420BDE8F0471047BDE8F087500E002083
:100C7000985D0020014800F0A3BD0000281E002060
:100C8000014800F09DBD0000881E0020014800F0D2
:100C900097BD0000681D0020014800F091BD0000D4
:100CA000C81D00200168CAB2103A1823B2FBF3F243
:100CB000064B9B5CC3656FF30901032A02D9091D2A
:100CC000816500E08165806D70470000C4AD00085B
:100CD00010B5014600208A6A8B694FF0C074002B62
:100CE0000ED0B3F5005F1AD062B3012A2AD0022ACF
:100CF00028D0032A03D1C96AC90100D5012010BD3B
:100D00001AB1012A06D0022AF9D1C96AC901F6D559
:100D1000012010BDC96AA142FBD1012010BD52B112
:100D2000012A0AD0022A06D0032AF7D1C96AA142B1
:100D3000F4D1012010BD012010BDC96AC901FBD545
:100D4000012010BD012010BD70B50546002404EB44
:100D50008400C0EB841005EBC00008300E4A00216F
:100D600008F0B5FB641CE4B2042CF0D3002404EBBF
:100D70008400C0EB841005EBC000083009F0D5F802
:100D8000641CE4B2042CF2D302E0642009F088F879
:100D900028780828F9D070BD040D002070470000A5
:100DA000F0B5F7B006464FF4EC6106F10800FFF726
:100DB000C3FA00203070C6F86C07C6F87007C6F892
:100DC0007407142106F5EF60FFF7B6FA00244FF41C
:100DD000EC773A4619496846FFF795FA601C0546D4
:100DE0008DF8000004EB8400C0EB841006EBC0001B
:100DF00008303A466946FFF786FAECB2042CE8D38D
:100E00000024671E04EB8400C0EB841006EBC005D1
:100E1000287A07EB4000C1B205F1400000F030F83D
:100E2000287A4006010E05F1E00000F029F8641C64
:100E3000E4B2042CE6D377B0F0BD0000E8AF0008C0
:100E400072B6FEE790F881200284418490ED210A79
:100E500080ED0C0A90ED220A80ED0D0A90ED230A38
:100E600080ED0B0A90ED240A80ED0A0A9FED030A3B
:100E700080ED090A00F1400103F044BA00000000CF
:100E800010B5044684F881102184002060849FED11
:100E90000C0A84ED0C0A84ED0D0A84ED0B0A84ED36
:100EA0000A0A84ED090A04F14001204603F02AFAF7
:100EB000002803D194ED1E0A84ED260A10BD00001F
:100EC0000000000010B50B480168001D0468001DFB
:100ED0000068084400280BD00822074902F002FDF0
:100EE000054920460422BDE81040103102F0FABC4A
:100EF00010BD0000107AFF1FB60E002090F82020D1
:100F0000012A07D0022A05D0416A41F480214162BA
:100F100001207047006842690A434261002070471F
:100F2000F0B590F820500468A468012D07D0022D78
:100F300005D0416A41F4802141620120F0BD04F0F6
:100F4000806504F00066354301D1E50053D5C4F354
:100F500001640125A5401D608B684FF4C0759BB1ED
:100F6000CE6805EB041733434E6843EAC6030668B0
:100F7000F3514FF4C273076803EB04130E69FE507C
:100F8000097D012909D00DE00E88CB6805EB041717
:100F900043EA46530668F351EBE70168CE5846F43E
:100FA0008076CE501179D379567941EA03619379ED
:100FB0001B0443EA062319434FF4C676036806EB85
:100FC000041699511178D37841EA036193785278E5
:100FD0001B0443EA022211434FF4C473026803EB7B
:100FE0000413D150006805EB0411425842F001028D
:100FF00042500020F0BD416A41F4001141620120DD
:10100000F0BD000010B590F82020012A07D0022A78
:1010100005D0416A41F480214162012010BD3C4865
:1010200000F50070026842F001020260026822F4DA
:101030007C52026002684B6A42EA032202600A7D27
:1010400002F01F0301229A40C3699343C361A0F5D4
:101050000070CB69B3B9D0F80C329343C0F80C32AE
:101060008C894B6864F31F434C6900EBC404C4F8DB
:1010700040320C890B6864F31F434C6900EBC404D5
:10108000C4F84432CB69012B16D1D0F80C3213438B
:10109000C0F80C320C884B6864F31F434C6900EBBA
:1010A000C404C4F840320C89CB6864F31F434C6914
:1010B00000EBC404C4F844328B697BB1D0F804322D
:1010C0001343C0F804320B6973B1D0F814321343E0
:1010D000C0F81432096A01290CD010E0D0F80432AB
:1010E0009343C0F80432EEE7D0F814329343C0F8CB
:1010F0001432EFE7D0F81C121143C0F81C12D0F8DC
:10110000001221F00101C0F80012002010BD000003
:1011100000640040704770B590F82040012C07D063
:10112000022C05D0416A41F480214162012070BD4A
:1011300021B104682469A4072AD003E00468E468A4
:10114000A4071FD04FF4D874056804EB01142D597F
:1011500005F0040595600DB305682D59ED0855603F
:1011600005682C5904F00204D4604FF4DA74056861
:1011700004EB01142E5906F00F06082E13D3082590
:10118000156114E0416A41F400114162012070BD13
:10119000416A41F400114162012070BD05682D597A
:1011A0006D0D1560DCE72D5905F00F05156105681B
:1011B0002D59C5F30725956105682C59240C5461F8
:1011C0004FF4DC72046802EB0112A4581C7004682E
:1011D000A458240A5C700468A458240C9C70046809
:1011E000A258120EDA704FF4DE72046802EB01129C
:1011F000A4581C710468A458240A5C710468A4589B
:10120000240C9C710468A258120EDA7131B1006886
:10121000016941F020010161002070BD0068C168D2
:1012200041F02001C160F7E72DE9F05F0546002499
:1012300028684669D0F804908768D0F80CA0D0F8E8
:1012400010B0D0F81880F10748D0F90714D0012168
:101250008160B80703D5284600F052FA0CE0780701
:1012600002D54FF4006407E0380702D54FF48054EC
:1012700002E0284600F043FAF80516D529684FF435
:1012800080708860B80503D5284600F03BFA0CE072
:10129000780502D544F4005407E0380502D544F43B
:1012A000804402E0284600F02CFAF80316D529689D
:1012B0004FF480308860B80303D5284600F024FA44
:1012C0000CE0780302D544F4004407E0380302D56B
:1012D00044F4803402E0284600F015FA300707D5C0
:1012E0005FEACA6004D544F4007429681020C8601D
:1012F00070074FF0080707D55FEA0A7004D5286821
:10130000C760284600F0B0F9B00706D52868C06865
:10131000800702D0284600F0A9F9700607D55FEAD9
:10132000CB6004D544F48064296810200861B006BD
:1013300007D55FEA0B7004D528680761284600F0DE
:10134000AFF9F00606D528680069800702D0284664
:1013500000F0A7F9B00308D55FEAC96005D5296890
:1013600010204860284600F09DF9F00307D55FEA99
:10137000097004D528684760284600F0C6F9300493
:1013800046D55FEA497040D5F00504D55FEAC870DC
:1013900001D044F00104B00504D55FEA887001D59E
:1013A00044F00204700504D55FEA487001D544F0AA
:1013B0000404300529D518F0700F26D008F070000D
:1013C000402815D006DC102809D020280AD0302863
:1013D00016D10AE050280ED0602811D10EE044F05A
:1013E00008040DE044F010040AE044F0200407E093
:1013F00044F0400404E044F0800401E044F48074CC
:101400002868816921F070018161296804204860A1
:10141000002C05D0686A204368622846FFF77AFEF0
:10142000BDE8F09F70B50446002C03D094F820006E
:1014300010B104E0012070BD204600F09DF8206846
:10144000016841F00101016000F01CFC0546052621
:101450000CE000F017FC401B0A2807D9606A40F432
:101460000030606284F82060012070BD2068406810
:10147000C007EED02068016821F00201016000F091
:1014800001FC05460CE000F0FDFB401B0A2807D9D3
:10149000606A40F40030606284F82060012070BD12
:1014A000206840688007EED4207E01283FD0206865
:1014B000016821F080010160607E01283DD0206834
:1014C000016821F040010160A07E01283BD0206826
:1014D000016821F020010160E07E012839D02068F8
:1014E000016841F010010160207F012837D0206899
:1014F000016821F008010160607F012835D0206873
:10150000016821F004010160D4E902010843D4E933
:101510000412114308436168491E08432168C861E9
:1015200000206062012084F82000002070BD206847
:10153000016841F080010160BEE72068016841F068
:1015400040010160C0E72068016841F020010160AE
:10155000C2E72068016821F010010160C4E720683B
:10156000016841F008010160C6E72068016841F0A8
:1015700004010160C8E700002DE9F04186B004468F
:10158000142101A8FEF7D8FE324B334ADFF8C080A1
:1015900018682168304C03260227401C10320025B1
:1015A0004FF0090C41451FD11860012807D1106880
:1015B00040F000701060106800F00070009020682B
:1015C00040F008002060206800F0080000900196BC
:1015D000029703950496CDF814C001A91F4800F0A6
:1015E00053FA06B0BDE8F081DFF874804145F8D1C8
:1015F000116841F080611160116801F08061009113
:101600001860012807D1106840F000701060106861
:1016100000F000700090206840F002002060206818
:1016200000F00200009042F2200001900297039522
:101630000496CDF814C001A90A4800F025FA00224A
:101640000521402000F0BCFB402000F0ABFBC8E7C8
:10165000006400401000002030380240000C0240BE
:1016600000680040000402407047000010B50949BE
:1016700088420ED1084B094A00210648FFF74BFD6E
:10168000002806D10548017CBDE81040024805F05D
:10169000FFBA10BD201C0020780E0020DC1B0020AB
:1016A00070477047704770B5044694F820000128D1
:1016B00005D0606A40F400206062012070BD022005
:1016C00084F820002068016821F00101016000F029
:1016D000D9FA05460DE000F0D5FA401B0A2808D9D2
:1016E000606A40F400306062052084F82000012028
:1016F00070BD20684068C007EDD1606270BD704762
:101700007047704770477047704770472DE9F04148
:101710000446A76D00F0B6FA054694F83500002699
:10172000022806D08020606584F834600120BDE87E
:10173000F0812068016821F016010160206841698C
:1017400021F080014161206C08B9A06C20B12068B3
:10175000016821F0080101602068016821F00101A1
:1017600001600BE000F08EFA401B052806D920200E
:1017700034342062032060702670D8E72068006847
:10178000C007EFD134343F2094F828108840B86067
:101790000120607026700020C9E790F835100229FA
:1017A00003D08021416501207047052180F8351064
:1017B0000068016821F0010101600020704700000D
:1017C0002DE9F84304464FF00009CDF800906F482A
:1017D0004FF416510068B0FBF1F7A56D2E6894F830
:1017E0005C00082202FA00F1314210D02068016842
:1017F00049070CD5016821F00401016094F85C00F0
:1018000002FA00F1A960606D40F00100606594F893
:101810005C104FF0010808FA01F0304208D021684E
:101820004969090604D5A860606D40F00200606552
:1018300094F85C1004208840304208D02168096880
:10184000890704D5A860606D40F00400606594F8D5
:101850005C1010208840304220D0216809680907B8
:101860001CD5A8602068016849030CD500680003F6
:1018700004D4216C91B1204688470FE0A16C69B176
:10188000204688470AE00168C90503D4016821F0B1
:1018900008010160216C09B12046884794F85C106A
:1018A0002020884030424CD021680968C90648D5BC
:1018B000A86094F8350005280BD02068016849031A
:1018C00030D50068000328D4616C51B320468847A6
:1018D00037E02068016821F0160101602068416945
:1018E00021F080014161206C08B9A06C20B1206812
:1018F000016821F00801016094F85C103F208840E5
:10190000A86084F8358084F83490216D00293BD09C
:1019100001B02046BDE8F0430847E16B09B120461D
:1019200088470EE00168C90507D4016821F010015D
:10193000016084F8358084F83490E16B09B1204669
:101940008847606D00281FD0606DC00714D0052047
:1019500084F835002068016821F0010101600098D9
:10196000401C0090B84203D820680068C007F6D138
:1019700084F8358084F83490E16C002904D001B0FB
:101980002046BDE8F0430847BDE8F883200000206A
:101990002DE9F041044600F075F905465CB10220DE
:1019A00084F83500002684F834602068016821F04E
:1019B000010101600DE00120BDE8F08100F062F955
:1019C000401B052805D920206065032084F83500D8
:1019D000F2E720680068C007F0D121680A68204853
:1019E0000240D4E901031843D4E903352B431843DB
:1019F00063691843A3691843E3691843236A1843CA
:101A00001043626A042A03D1D4E90B231A4310431A
:101A100008602068406920F00700656A2946054390
:101A2000012704290DD1A06A0543E06A48B1204688
:101A3000FFF74EF928B14020606584F83570012029
:101A4000BAE7206845612046FFF72CF994F85C203E
:101A50003F2191408160666584F835700020ABE7D6
:101A60003F8010F070B5044600F00CF90546601C8C
:101A700002D004480078044400F004F9401BA0425E
:101A8000FAD370BD140000202DE9F84F0022DFF8D2
:101A9000B0914FF0010803274FF00F0C09F1040A31
:101AA000A9F1040B08FA02F50B682B40AB426ED18A
:101AB0000C7904F00304012C01D0022C15D18668A6
:101AC000540007FA04FE26EA0E06D1F80CE00EFADE
:101AD00004FE4EEA060EC0F808E04468AC430D79F7
:101AE000C5F300159540254345600C79E443A407F0
:101AF00008D0C568540007FA04F6B5438E68A640BE
:101B00002E43C6600C7904F00304022C11D1D408D2
:101B100000EB8406356A5407E40E0CFA04FE25EA4D
:101B20000E05D1F810E00EFA04FE4EEA050EC6F8D6
:101B300020E00568540007FA04F6B5430E7906F074
:101B40000306A6402E4306604C6814F4403F71D053
:101B50003C4C256845F480452560246804F48044A5
:101B60000094394C22F003052E19D6F80858940732
:101B70004FEA147E0CFA0EF4A543344CA04201D176
:101B800000242EE0324CA04202D1012429E051E091
:101B9000304CA04201D1022423E02F4CA04201D1BD
:101BA00003241EE02D4CA04201D1042419E02C4C4A
:101BB000A04201D1052414E02A4CA04201D1062400
:101BC0000FE0294CA04201D107240AE0274CA04293
:101BD00001D1082405E0264CA04201D1092400E0EF
:101BE0000A2404FA0EF42C43C6F80848D9F8004039
:101BF0009C434D68ED0200D51C43C9F80040DAF85B
:101C000000409C434D68AD0200D51C43CAF800401B
:101C1000DBF800409C434D68AD0300D51C43CBF876
:101C20000040074D083D2C689C434E68F60300D5E4
:101C30001C432C60521C102AFFF434AFBDE8F88F0F
:101C4000083C01404438024000300140000002409E
:101C50000004024000080240000C02400010024054
:101C60000014024000180240001C02400020024004
:101C700000240240002A01D081617047090481617B
:101C80007047000001488068704700001400002081
:101C90000248816802781144816070471400002076
:101CA00010B50B48016841F400710160016841F40E
:101CB00080610160016841F480710160032000F0DF
:101CC0009FF80F2000F006F800F050F8002010BD3B
:101CD000003C024030B587B0054600241E4801682C
:101CE00041F480710160006800F48070009001A9E7
:101CF00002A800F02BFE0598A8B100F04BFE4000B2
:101D00001649B0FBF1F1491E1648154A026040F22F
:101D1000E732C260416004618460846101F070F860
:101D200004461CB115E000F035FEE9E70D4801F06E
:101D30008DF804466CB92D2000F034F8102D07D230
:101D4000002229462D2000F03BF80748056000E0FE
:101D5000012407B0204630BD4038024040420F0009
:101D600000200040E81E00201800002082B00C482F
:101D7000016841F480410160006800F480400190F6
:101D80000748001F016841F080510160006800F0C1
:101D90008050019000220F21901E02B000F010B878
:101DA00044380240002809DB00F01F020121914065
:101DB0004009800000F1E020C0F8001170470000E9
:101DC000F0B40D460D4B1B68C3F30223C3F10704A7
:101DD000042C00D90424191D072901D2002300E096
:101DE000DB1E012606FA04F1491E294099409E4057
:101DF000761E16403143F0BC04F0C4BF0CED00E089
:101E000000F00701054A10684FF6FF03184040EA4A
:101E10000120034908431060704700000CED00E00A
:101E20000000FA057047006841620020704770B5F5
:101E30000368586A002907D09C6A00EB144400200C
:101E40004FF48275491E0AE040EA024098620DE0B4
:101E500005EB80069E5904EB1644401CC0B2884234
:101E6000F6D305EB810144EA02405850002070BDD2
:101E7000D0F8E00403F0FCBC01EBC10200EB8202ED
:101E8000D0F8E004126A03F01ABC01EBC10200EBC7
:101E90008202D0F8E004D2F8602203F081BCD0F8CE
:101EA000E00403F0E7BC0A0601F00F0101EBC101F9
:101EB00000EB810101D5143101E001F515710068D5
:101EC00004F04ABC70B504460B0601F00F0000EBAD
:101ED000C00104EB81014FF001024FF0000502D573
:101EE00014314A7002E001F515714D70087094F8D4
:101EF0009404012808D084F89424206804F040F960
:101F000084F89454002070BD022070BD70B5044662
:101F100001F00F002279904201D9012070BD0B061B
:101F200001F00F0101EBC10104EB81014FF001024F
:101F30004FF0000502D514314A7002E001F5157129
:101F40004D708D70087094F89404012808D084F8BE
:101F50009424206804F07EFA84F89454002070BD24
:101F6000022070BD01F00F0101EBC10100EB810007
:101F7000D0F8680270472DE9F04104460F0601F0E1
:101F80000F0000EBC00104EB81014FF001064FF0A0
:101F9000000502D514314E7002E001F515714D7047
:101FA0000870C2F30A028A600B714A7802B1488352
:101FB000022B00D14D7194F89404012809D084F8C3
:101FC0009464206804F01EF8284684F89454BDE810
:101FD000F0810220FBE710B501F00F0404EBC4010F
:101FE00000EB810101F51571CA600B6100234B61A3
:101FF0004B700C708379012B00D1CA618279006823
:1020000004F080FA002010BD70B504460D46217919
:1020100005F00F00884201D9012070BD29064FF05C
:1020200000064FF0010206D500EBC00104EB810170
:1020300014314A7006E005EBC50104EB810101F59E
:1020400015714E708A70087094F89404012807D0B6
:1020500084F89424206804F029FA280702D007E0C5
:10206000022070BDA17904F29C42206804F0C8F9F6
:1020700084F89464002070BD10B501F00F0404EBE7
:10208000C40100EB81011431CA600B6100234B6174
:1020900001234B700C708379012B00D1CA618279C6
:1020A000006804F02FFA002010BD2DE9F84F044617
:1020B0002568284604F0FAFB00287ED1206804F049
:1020C00021FC002879D0D5F80808C0F30D20C4F809
:1020D000D404206804F016FC800704D52068416908
:1020E00001F002014161206804F00CFCC10604F219
:1020F0009C40009035D52068816921F010018161F4
:102100002F6A07F00F0000EBC00004EB800606F515
:102110001576C7F34340022802D0062812D01BE0F0
:1021200047F6F070074217D0C7F30A121746284641
:10213000F16804F0EBFBF0683844F06070693844F3
:10214000706109E008222846009904F0DFFB7069FD
:10215000C7F30A11084470612068816941F01001D9
:102160008161206804F0CEFB00034FF0080B4FF0B4
:1021700000094FF001085ED50026206804F0A1FB9D
:10218000824655E05FEACA704FD0F1B2206804F091
:10219000B1FB0746F80707D005EB4610C0F8088BDF
:1021A0003146204601F0BEFF380709D505EB461041
:1021B000C0F808BB3146204600E0F8E101F08EFF90
:1021C000F80604D505EB46111020C1F8080BB80736
:1021D0001CD56869000605D5D5F8040840F480616F
:1021E000C5F8041806EBC60004EB800000F5157076
:1021F000C178012905D180F80390F1B2204600F0A2
:10220000DCF905EB46110220C1F8080BB80604D52D
:1022100005EB46102021C0F8081BB80405D505EBD6
:1022200046104FF40051C0F8081B761C4FEA5A0ABA
:10223000BAF1000FA6D1206804F064FB40036CD50E
:10224000206804F037FB8246002663E05FEACA702C
:102250005DD0F1B2206804F03BFB0746F80723D0BD
:1022600006F00F0108FA01F0D5F834188143C5F8DB
:10227000341805EB4610C0F80889A07901280FD161
:1022800006EBC60004EB8000D0E90721114401628F
:1022900036B9606A20B920680121009A04F0B0F8CC
:1022A000F1B22046FFF7E8FD380703D505EB4610ED
:1022B000C0F808B9F80604D505EB46111020C1F89E
:1022C0000809780604D505EB46104021C0F8081926
:1022D000B80716D53146284604F0B6FA06EBC60014
:1022E00004EB80001430C178012905D180F80390F7
:1022F000F1B2204600F05DF905EB46110220C1F86D
:102300000809380603D53146204601F07DFF761CCA
:102310004FEA5A0ABAF1000F98D1206804F0F2FA95
:10232000002811DAD5F8040820F00101C5F80418D6
:1023300094F8CC04012829D0204600F006FA206841
:10234000416901F000414161206804F0DBFA0005B9
:102350000BD5D5F80808C00702D0204600F038FA9F
:102360002068416901F400614161206804F0CAFA03
:10237000C00461D5D5F8040820F00101C5F804189F
:102380001021206804F060FA002120E084F8CC9449
:1023900000212046FFF746FDD1E705EB411000F58F
:1023A00010604FF67F328260036823F400130360ED
:1023B000C0F80822D0F8002222F40012C0F800224F
:1023C000D0F8002242F00062C0F80022491C2079B7
:1023D0008842E2D8D5F81C0840F00111C5F81C1855
:1023E000E07B60B1D5F8840840F00B01C5F8841893
:1023F000D5F8440840F00B01C5F844180CE0D5F8B6
:10240000140842F22B010843C5F81408D5F8100847
:1024100040F00B01C5F81018D5F8000820F4FE6153
:10242000C5F80018A1792068009A03F0E9FF206838
:10243000416901F480514161206804F063FA80042D
:1024400015D5206803F020FE206804F01FFAE07123
:1024500000F09AFA0146E279206804F0BDFA2046BD
:1024600000F05CF92068416901F400514161206885
:1024700004F048FA000707D5204600F06AF9206802
:10248000416901F008014161206804F03BFA00064F
:1024900015D5A86920F08001A96101260CE006EBA2
:1024A000C60004EB800090F85702012803D1F1B276
:1024B0002046FFF7F8FC761C2079B042EFD8206860
:1024C00004F020FAC0021FD5012615E005EB4610E6
:1024D000D0F8001906EBC60004EB8000027E012A4A
:1024E00009D1002907DA80F81780F0B240F08001A6
:1024F0002046FFF7D8FC761C2079B042E6D8206849
:10250000416901F480114161206804F0FBF9800207
:1025100030D5012026E005EB4011D1F8001B00EB7F
:10252000C00204EB820292F85832012B19D1002923
:1025300017DA94F8D434C1F3004103F001038B425D
:102540000FD182F85782A96941F08002AA616969B6
:10255000090606D4D5F8040840F40070C5F804084C
:1025600003E0401C21798142D5D82068416901F4FB
:1025700000114161206804F0C5F9400007D52046EC
:10258000FFF776FC2068416901F0804141612068D5
:1025900004F0B8F940070AD520684568680702D5F5
:1025A0002046FFF77CFC2068416829434160BDE874
:1025B000F88FD0F8E00403F0B0B9D0F8E00403F0ED
:1025C000C1B9F8B50446002C05D0266894F89504E6
:1025D000002510B106E00120F8BD84F8945420468F
:1025E00000F05AF8032084F89504B6F1A04F00D10A
:1025F000A571206803F0FEFE207C8DF8000094E8B1
:102600000F0003F04FFD022618B184F895640120F5
:10261000F8BD0021206804F098F918B184F8956499
:102620000120F8BD002101270CE001EBC10004EB03
:10263000800047750175C1850576C56105624562F3
:10264000491CC9B220798842EFD800210DE001EB86
:10265000C10004EB800000F5157045700170057134
:102660008560C5600561491CC9B220798842EED8F1
:10267000207C8DF8000094E80F0003F001FE18B1F3
:1026800084F895640120F8BD657484F89574206819
:1026900003F0E8FD0020F8BD10B586B00446142113
:1026A00001A8FDF749FE2068B0F1A04F2FD100210D
:1026B0001848026842F001020260006800F0010060
:1026C00000904FF4C050019002200290039103202B
:1026D00004900A20059001A90F48FFF7D5F90D488D
:1026E000001D016841F0800101600A481430016852
:1026F00041F480410160006800F4804000900022B5
:102700000F214320FFF75CFB4320FFF74BFB06B094
:1027100010BD0000303802400000024070B5044691
:102720000125E07900280ED0022801D0FEF788FBB1
:102730002946D4F8E00403F077F9D4F8E004BDE8C2
:10274000704003F029B90025F2E7D0F8E00403F067
:1027500054B9D0F8E00403F05AB910B5044694F81F
:10276000940401280AD0012084F89404617420683C
:1027700004F01BF9002084F8940410BD022010BD61
:10278000D0F8E02400F29C41104603F059B910B58E
:102790000446206894F89414012909D0012184F892
:1027A0009414C168490609D5617B012902D005E06E
:1027B000022010BD816B41F480318163206804F0F8
:1027C0001DF8206803F040FD002084F8940410BD3B
:1027D00010B50446D4F8E00403F074F92068D0F88A
:1027E000001E41F00101C0F8001EE07A002804D06C
:1027F0000248016841F00601016010BD10ED00E0E3
:102800002DE9F04704460D46002C13D0DFF828913F
:10281000D9F80000EFB200F00F00A8420CD289F8FE
:102820000070D9F8000000F00F00A84204D0012089
:10283000BDE8F0870120FBE72068404E810712D5F4
:10284000400703D5306840F4E0503060207800073E
:1028500003D5306840F4604030603068A16820F0F3
:10286000F000084330602078C00731D033496068F9
:102870000839012808D002280BD0032809D009689C
:1028800089070BD40120D3E70968890306D4012006
:10289000CEE70968890101D40120C9E7316821F038
:1028A000030101433160FFF7EDF9804641F2883AB8
:1028B00007E0FFF7E7F9A0EB0800504501D9032036
:1028C000B6E73068616800F00C00B0EB810FF0D122
:1028D000D9F8000000F00F00A84209D989F800706B
:1028E000D9F8000000F00F00A84201D001209FE7B6
:1028F0002078400705D53068E16820F4E0500843AF
:1029000030602078000706D53068216920F46040E7
:1029100040EAC100306000F05DF83168084AC1F358
:102920000311515CC8400749086007480068FFF779
:10293000D1F900207CE70000003C0240083802404A
:10294000CCAD000820000020180000200F220260FB
:102950000B4A136803F003034360136803F0F003AA
:102960008360136803F4E053C360126802F46042AA
:10297000D20802610348006800F00F000860704749
:1029800008380240003C02400148006870470000DF
:102990002000002000B5FFF7F7FF04490968044A4A
:1029A000C1F38221515CC84000BD000008380240DC
:1029B000DCAD000800B5FFF7E7FF04490968044AE9
:1029C000C1F34231515CC84000BD000008380240EC
:1029D000DCAD000810B51748006810F00C0116486F
:1029E00016D04310042912D0082911D1114C241FEC
:1029F000216801F03F02216849020AD52068C0F32E
:102A00008810A0FB03010023FDF74CFC09E01846E9
:102A100010BD21680023C1F38811A1FB0001FDF75F
:102A200041FC2168C1F30141491C4900B0FBF1F0B0
:102A300010BD0000083802400024F4002DE9F84FD2
:102A40000446002C13D02078DFF8A083C007A8F13B
:102A5000040556D008F104000168C1F38101012981
:102A60000CD00068C0F38100022803D00DE00120E3
:102A7000BDE8F88FD8F80000400206D5286880032A
:102A80003FD5606870BB0120F2E76068B0F5803F19
:102A900010D0B0F5A02F12D0286820F48030286024
:102AA000286820F4802028606068E0B1FFF7EAF829
:102AB000064614E0286840F480302860F4E728686F
:102AC00040F480202860286840F480302860EBE7DC
:102AD000FFF7D8F8801B642801D90320C8E72868CD
:102AE0008003F5D50DE0FFF7CDF8064606E0FFF7C9
:102AF000C9F8801B642801D90320B9E7286880033E
:102B0000F5D42078BA4F80074FF0000948D5B74870
:102B1000001D016811F00C0F08D00068C0F381009F
:102B2000022813D1D8F8000040020FD4286880078B
:102B300004D5E068012801D0012099E728682169BF
:102B400020F0F80040EAC100286029E0E068B8B150
:102B500001203860FFF796F8064606E0FFF792F886
:102B6000801B022801D9032082E728688007F5D559
:102B70002868216920F0F80040EAC10028600FE0D1
:102B8000C7F80090FFF77EF8064606E0FFF77AF8F0
:102B9000801B022801D903206AE728688007F5D442
:102BA0002078000729D5DFF844A2924861690AF12C
:102BB000700A89B101210160FFF764F8064606E05A
:102BC000FFF760F8801B022801D9032050E7DAF8EC
:102BD00000008007F4D510E0C0F80090FFF752F82D
:102BE000064606E0FFF74EF8801B022801D90320B5
:102BF0003EE7DAF800008007F4D42078400778D563
:102C00004FF0000A79483C300068C0000BD4774888
:102C10003C30016841F080510160006800F0805054
:102C200000904FF0010ADFF8D0B1DBF80000C005DA
:102C300014D4DBF8000040F48070CBF80000FFF7FC
:102C400021F8064606E0FFF71DF8801B022801D98F
:102C500003200DE7DBF80000C005F4D5634EA06843
:102C60006C3601280FD0052812D0306820F0010002
:102C70003060306820F004003060A068F8B1FFF7E1
:102C800001F8834617E0306840F001003060F4E757
:102C9000306840F004003060306840F0010030607F
:102CA000EBE7FEF7EFFFA0EB0B0141F2883081422A
:102CB00001D90320DCE630688007F2D510E0FEF78A
:102CC000E1FF834609E0FEF7DDFFA0EB0B0141F2D7
:102CD0008830814201D90320CAE630688007F2D4E7
:102CE000BAF1010F05D141483C30016821F0805113
:102CF0000160A069C0B33D49091D09684FF0FF3666
:102D0000C1F38101022946D0022805D0C7F860909E
:102D1000FEF7B8FF04463AE0C7F86090FEF7B2FF4E
:102D2000814607E0FEF7AEFFA0EB0900022801D9BB
:102D300003209DE628688001F4D4D4E90701084304
:102D4000616AA26A890106EB520241EA0241084324
:102D500094F82C1040EA0160C8F8000001203866A1
:102D6000FEF790FF044607E03DE0FEF78BFF001BF7
:102D7000022801D903207BE628688001F5D532E0DE
:102D8000FEF780FF001B022801D9032070E62868A7
:102D90008001F5D427E0012823D0D8F80000E269AB
:102DA00000F4800191421AD1226A00F03F01914261
:102DB00015D147F6C071626A0140B1EB821F0ED196
:102DC000A26A00F4403106EB5202B1EB024F06D189
:102DD00094F82C1000F07060B0EB016F03D001206C
:102DE00046E6012044E6002042E6000004380240A6
:102DF00000004742800E4742007000407047704715
:102E000010B50446002C03D094F83D0010B107E043
:102E1000012010BD002084F83C00204600F015F889
:102E2000022084F83D00211D206801F031FB0120C3
:102E30003D3460726070A070E07020716071A071AC
:102E4000E07120722070002010BD704790F83D1096
:102E5000012901D001207047022180F83D1001684E
:102E6000CA6842F00102CA6000681449884214D05E
:102E7000B0F1804F11D0124988420ED011498842DA
:102E80000BD01149884208D01049884205D010491A
:102E9000884202D00F49884209D1816801F00701B8
:102EA000062908D0016841F00101016003E00168D2
:102EB00041F0010101600020704700000000014066
:102EC0000004004000080040000C004000040140E5
:102ED000004001400018004070472DE9F0410446D1
:102EE0002068C56806694FF00007B10714D5A90727
:102EF00012D5F91E016101202077206880698007C2
:102F000003D02046FFF7E8FF05E0204600F081F8F7
:102F1000204600F07FF82777700717D5680715D58A
:102F200021686FF004000861022020772068806922
:102F300010F4407F03D02046FFF7CEFF05E0204687
:102F400000F067F8204600F065F82777300716D5BF
:102F5000280714D521686FF0080008610420207745
:102F60002068C069800703D02046FFF7B5FF05E061
:102F7000204600F04EF8204600F04CF82777F00687
:102F800017D5E80615D521686FF0100008610820F4
:102F900020772068C06910F4407F03D02046FFF7F7
:102FA0009BFF05E0204600F034F8204600F032F8A0
:102FB0002777F00708D0E80706D021686FF00100F6
:102FC0000861204600F028F8300608D5280606D506
:102FD00021686FF0800008612046FFF70FFF700640
:102FE00008D5680606D521686FF0400008612046C4
:102FF00000F01CF8B0060AD5A80608D521686FF0C5
:10300000200008612046BDE8F041FFF7F8BEBDE8AA
:10301000F08170477047000000680349884201D181
:10302000FEF736BE704700000020004070472DE9D3
:10303000F84F0446DDF828800E4615461F4694F8E2
:103040004200202802D00220BDE8F88FF6B1EDB191
:103050004FF0000AC4F844A0222084F84200012066
:103060002063C4F834A0FEF70DFE8146A585E585F2
:10307000A0684FF4805B584501D1206940B13546C6
:103080000026A7F800A04FF0200A3AE00120DBE775
:103090000025F6E720680168C9060AD5016841687D
:1030A0000091398829B10220606384F842A0002091
:1030B000CAE70168890618D525B1A16859452BD002
:1030C00031B107E04068C0F3080026F8020B06E0C3
:1030D000216909B3406800F07F0028706D1C3888B2
:1030E000401C3880E08D401EE085B8F1FF3F08D0DD
:1030F000FEF7C8FDA0EB0900404510D8B8F1000F5D
:103100000DD0E08D0028C5D1A08DE18D401A38800A
:1031100084F842A0002097E740682870DEE784F832
:1031200042A0032090E7704770470000F8B50446BE
:1031300022681068D168536900F00F06002E08D18C
:10314000850606D58D0604D52046BDE8F84001F079
:1031500002BC0025002E66D003F0010601F4907732
:10316000374360D0C20705D0CA0503D5626C42F070
:1031700001026264420705D5DA0703D0626C42F0AF
:1031800002026264820705D5DA0703D0626C42F05E
:1031900004026264020707D501F02002324303D023
:1031A000626C42F008026264626C002A31D08006D0
:1031B00004D5880602D5204601F0CDFB2068406981
:1031C000C0F38010616C090700D438B3204601F0C9
:1031D0008EFB2068406940061CD52068143050E8FA
:1031E000001F21F0400140E80012002AF5D1E06BF9
:1031F00060B15F490165E06BFEF7CFFA002808D0A7
:10320000E06B016D01B0BDE8F04008472046FFF7D4
:103210008BFFF8BD2046FFF787FFF8BD2046FFF77C
:1032200083FF6564F8BD236B012B7DD1C3067BD57D
:10323000CB0679D510685068009050694FF0200394
:1032400040064FF002064FD5E26B1068406880B22E
:10325000DF00E8B3A18D81423BD9E085D069B84257
:103260002DD020680C3050E8001F21F4807140E818
:103270000012002AF5D12068143050E8001F21F018
:10328000010140E80012002AF5D12068143050E80E
:10329000001F21F0400140E80012002AF5D184F817
:1032A0004230256320680C3050E8001F21F01001E7
:1032B00040E80012002AF5D1E06BFEF727FA6663BA
:1032C000A08DE18D401A81B22046FFF72CFFF8BD9A
:1032D000FFE7A18D8142FAD1D069B842F7D1666388
:1032E0002046FFF720FFF2E7A08DE18D401A81B262
:1032F000E08D0028EBD00029E9D020680C3050E8A0
:10330000002F22F4907240E80027002FF5D12068AA
:10331000143050E8002F22F0010240E80027002F6F
:10332000F5D184F8423000E00FE0256320680C30CE
:1033300050E8002F22F0100240E80023002BF5D1C6
:1033400066632046FFF7EFFEC1E7020606D50A06D0
:1033500004D52046BDE8F84001F008BC4006B6D5CB
:103360004806B4D52046BDE8F84001F0E7BA0000B1
:10337000E148000870B50446002C04D094F84100E0
:10338000002510B106E0012070BD84F840502046B1
:1033900000F024F8242084F841002068C16821F45A
:1033A0000051C160204601F03BFB2068016921F417
:1033B000904101612068416921F02A014161206842
:1033C000C16841F40051C1606564202084F8410067
:1033D00084F842006563002070BD00002DE9F04FC5
:1033E00087B00446142102A8FCF7A6FF8E488D4A38
:1033F00023688D4910380225032700264FF0080B5B
:103400004FF000684FF48069934247D10A6842F454
:1034100080120A60096801F480110191016841F08D
:1034200004010160016801F004010191016841F0AB
:1034300008010160006800F00800019098140290F3
:10344000039504960597CDF818B002A97748FEF7C2
:103450001BFB04200290039504960597CDF818B045
:1034600002A97348FEF710FB734D72482860C5F837
:1034700004804020A860EE60C5F810906E61AE61D7
:10348000EE612E626E622846FEF782FA08B1FDF701
:10349000D7FCA563AC6307B0BDE8F08FDFF89CE113
:1034A000DFF884C107220CF1040C4FF4807A7345D5
:1034B0003ED1DCF8001041F01001CCF80010DCF82F
:1034C000001001F010010191016841F0010101605B
:1034D000006800F0010001904FF4C0600290039575
:1034E00004960597069202A95548FEF7CDFA524D6B
:1034F000544860352860C5F80480AE60EE60C5F8B9
:1035000010906E61AE61C5F81CA02E626E622846F6
:10351000FEF73EFA08B1FDF793FCE563AC630022C9
:1035200005212520FEF74CFC2520FEF73BFCB2E7E9
:10353000DFF814E1734553D10B6843F400330B609B
:10354000096801F400310191016841F00101016055
:10355000006800F0010001900C2002900395049691
:103560000597069202A93648FEF78EFA3148324D89
:103570003038C0352860C5F80480AE60EE60C5F80C
:1035800010906E61AE61C5F81CA02E626E62284676
:10359000FEF7FEF908B1FDF753FCE563AC6325487F
:1035A0002A4D18382860C5F804804020A860EE60D5
:1035B000C5F810906E61AE61EE612E626E622846B3
:1035C000FEF7E6F908B1FDF73BFCA563AC6300220A
:1035D00005212620FEF7F4FB2620FEF7E3FB5AE741
:1035E0001B498B42A3D1DCF8001041F02001CCF83C
:1035F0000010DCF8001001F020010191016841F099
:1036000004010160006800F004000190C0200290F5
:10361000039504960597CDF818B002A90348FEF764
:1036200033FA38E7005000404038024000080240BA
:10363000000C0240B8600240681D002000100140EC
:10364000000002404064024000440040881E002008
:103650000014014090F84230202B01D00220704726
:1036600021B11AB10023036301F064BA012070474D
:1036700010B5074988420AD10648007800F012FECA
:10368000BDE81040012203490148FFF7E3BF10BD28
:10369000D81C0020000000202DE9F84304460E4607
:1036A00015461F4694F84100202802D00220BDE8AC
:1036B000F8837EB175B100206064212084F8410058
:1036C000FEF7E0FA8146A584E584A068B0F5805F46
:1036D00002D003E00120EAE7206920B13546002648
:1036E0004FF0200815E00025FAE74B460022802124
:1036F0002046009701F069FA18B184F84180032050
:10370000D5E7ADB1216815F8010B4860E08C401E8B
:10371000E084E08C0028E8D14B460022402120467E
:10372000009701F052FA50B184F841800320BEE7BF
:1037300036F8020B2168C0F308004860E6E784F819
:1037400041800020B3E77047FEE700002DE9F04715
:1037500004460025614E624F05EB450007EB401023
:1037600006EB451128302022FCF7CDFD6D1CEDB293
:10377000032DF1D304F10800594A0021064605F053
:10378000A6FE04F5F070564A0021074605F09FFE9C
:1037900004F56E70524A0021804605F098FE04F54B
:1037A000B2604F4A0021814605F091FE0DE00025F0
:1037B00005EB8500C0EB851004EBC000083005F078
:1037C00065FE6D1CEDB2032DF2D994F8A501002819
:1037D000EDD094F87D030028E9D094F85505002831
:1037E000E5D094F82D070028E1D04FF4967006F04C
:1037F00057FB3B4A012160321546304605F067FE13
:103800002A460121384605F062FE2A46012140463B
:1038100005F05DFE2A460121484605F058FE0DE000
:10382000002505EB8500C0EB851004EBC0000830D7
:1038300005F02CFE6D1CEDB2032DF2D994F8A50114
:103840000028EDD094F87D030028E9D094F85505C0
:103850000028E5D094F82D070028E1D04FF4FA7045
:1038600006F01EFB1E4A0221C0321546304605F006
:103870002EFE2A460221384605F029FE2A4602215C
:10388000404605F024FE2A460221484605F01FFE68
:103890000DE0002505EB8500C0EB851004EBC000B2
:1038A000083005F0F3FD6D1CEDB2032DF2D994F84C
:1038B000A5010028EDD094F87D030028E9D094F804
:1038C00055050028E5D094F82D070028E1D0BDE883
:1038D000F0474FF47A7006F0E3BA000000B5000834
:1038E000640A0020F0B500230A253026372700247B
:1038F00012E0B5EB107F04D906EB107C01F813C081
:1039000003E007EB107C01F813C0000101EB430C4E
:103910008CF801405B1CDBB29342EAD3F0BD00009F
:103920002DE9F047044600257C4E7D4F05EB450010
:1039300007EB401006EB451128302022FCF7E3FC92
:103940006D1CEDB2042DF1D304F10800744A00217E
:10395000064605F0BCFD04F5F070714A00210746EB
:1039600005F0B5FD04F56E706D4A0021804605F046
:10397000AEFD04F5B2606A4A0021814605F0A7FD5C
:103980000DE0002505EB8500C0EB851004EBC000C1
:10399000083005F07BFD6D1CEDB2042DF2D394F8D8
:1039A000A5010028EDD094F87D030028E9D094F813
:1039B00055050028E5D094F82D070028E1D04FF4F4
:1039C0007A7A504606F06CFA554A01216032154663
:1039D000304605F07CFD2A460121384605F077FD8A
:1039E0002A460121404605F072FD2A46012148463B
:1039F00005F06DFD0DE0002505EB8500C0EB8510A1
:103A000004EBC000083005F041FD6D1CEDB2042D43
:103A1000F2D394F8A5010028EDD094F87D03002896
:103A2000E9D094F855050028E5D094F82D07002832
:103A3000E1D0C82006F034FA394A0221C0321546D6
:103A4000304605F044FD2A460221384605F03FFD88
:103A50002A460221404605F03AFD2A460221484600
:103A600005F035FD0DE0002505EB8500C0EB851068
:103A700004EBC000083005F009FD6D1CEDB2042D0B
:103A8000F2D394F8A5010028EDD094F87D03002826
:103A9000E9D094F855050028E5D094F82D070028C2
:103AA000E1D0642006F0FCF91E4A03211546304699
:103AB00005F00DFD2A460321384605F008FD2A468B
:103AC0000321404605F003FD2A460321484605F040
:103AD000FEFC0DE0002505EB8500C0EB851004EB36
:103AE000C000083005F0D2FC6D1CEDB2042DF2D3FD
:103AF00094F8A5010028EDD094F87D030028E9D0C2
:103B000094F855050028E5D094F82D070028E1D059
:103B10005046BDE8F04706F0C3B9000080B4000885
:103B2000E4080020040A00202DE9F05F0446002587
:103B3000614E624F05EB450007EB401006EB451167
:103B400028302022FCF7DFFB6D1CEDB2042DF1D3F1
:103B500004F10800594A0021804605F0B8FC574A94
:103B600004F5F070603215460121814605F0AFFC86
:103B700004F56E70514A0021824605F0A8FC04F558
:103B8000B2602A460121834605F0A1FC0DE0002524
:103B900005EB8500C0EB851004EBC000083005F094
:103BA00075FC6D1CEDB2032DF2D994F8A501002827
:103BB000EDD094F87D030028E9D094F8550500284D
:103BC000E5D094F82D070028E1D0012006F068F92F
:103BD0003A4F07F1C00607F5907768E03A460321AF
:103BE000404605F074FC32460221484605F06FFC61
:103BF0003A460321504605F06AFC324602215846F7
:103C000005F065FC0DE0002505EB8500C0EB851097
:103C100004EBC000083005F039FC6D1CEDB2032D3B
:103C2000F2D994F8A5010028EDD094F87D0300287E
:103C3000E9D094F855050028E5D094F82D07002820
:103C4000E1D032460221404605F041FC3A460321CC
:103C5000484605F03CFC32460221504605F037FC50
:103C60003A460321584605F032FC0DE0002505EBED
:103C70008500C0EB851004EBC000083005F006FCA1
:103C80006D1CEDB2032DF2D994F8A5010028EDD0FA
:103C900094F87D030028E9D094F855050028E5D074
:103CA00094F82D070028E1D0012006F0F9F82078DB
:103CB000042893D0BDE8F09F00B4000864070020FA
:103CC00010B50F480D49016003214160002181605A
:103CD000C1604FF4102202614FF40012426101767C
:103CE00041768176C17601774177FDF79BFB00280D
:103CF00003D0BDE81040FDF7A3B810BD006400403C
:103D0000F81B002010B50F480D49016003214160E8
:103D100000218160C1604FF4102202614FF4001253
:103D20004261017641768176C17601774177FDF770
:103D300079FB002803D0BDE81040FDF781B810BD25
:103D400000680040201C002008B51948016841F4B3
:103D500000110160016801F400110091016841F453
:103D600080010160006800F48000009000220521BD
:103D70001020FEF725F81020FEF714F80022052188
:103D80001120FEF71DF81120FEF70CF80022052186
:103D90002F20FEF715F82F20FEF704F8002205214A
:103DA0003A20FEF70DF8BDE808403A20FDF7FABFCB
:103DB0003038024010B596B01C2213490FA8FCF70A
:103DC000A2FA00210FA806F084F8104CE0601C2233
:103DD0000D491C3108A8FCF796FA002108A806F046
:103DE00078F8A0600A49012081F868071C2206497A
:103DF000383101A8FCF787FA002101A806F069F81C
:103E0000606016B010BD000070AD0008000000201A
:103E1000800F002070B586B0142101A8FCF78CFA41
:103E200000251E48016841F080010160016801F031
:103E300080010091016841F001010160016801F019
:103E400001010091016841F002010160016801F087
:103E500002010091016841F004010160016801F074
:103E600004010091016841F008010160006800F060
:103E7000080000900A4E4FF480740022214630461C
:103E8000FDF7F8FE0194012102910395049501A923
:103E90003046FDF7F9FD06B070BD00003038024035
:103EA0000000024010B50C480A4901604FF4E131AE
:103EB000416000218160C16001610C224261816129
:103EC000C161FFF757FA002803D0BDE81040FCF7A6
:103ED000B7BF10BD00500040481C002010B50C4872
:103EE0000A4901600B49416000218160C1600161A4
:103EF0000C2242618161C161FFF73CFA002803D0C6
:103F0000BDE81040FCF79CBF10BD00000010014050
:103F1000901C002000093D0010B50C480A490160C2
:103F20004FF4E131416000218160C16001610C22E8
:103F300042618161C161FFF71DFA002803D0BDE82D
:103F40001040FCF77DBF10BD00440040D81C00208D
:103F500010B50C480A4901604FF4E131416000217D
:103F60008160C16001610C2242618161C161FFF722
:103F700001FA002803D0BDE81040FCF761BF10BD76
:103F800000140140201D002010B500220F491048E8
:103F900001F06FFB08B1FCF753FF0E490C4801F02C
:103FA000C0FD08B1FCF74CFF0B49094801F04AF885
:103FB00008B1FCF745FF064801F088FE002803D051
:103FC000BDE81040FCF73CBF10BD0000800E002093
:103FD000B85E0020400F0020D40E0020FEE7000055
:103FE00000B587B005920020029003900490502005
:103FF00001900A466B4601A90248FCF791FF07B001
:1040000000BD0000201C0020FEE700000148FEF774
:104010004CB80000B46B002030B52B4A9FED2B0A42
:104020002B49372826D132F96E4FB2F90230B2F956
:1040300004506E3A00EE904AF8EEE00A20EE801A44
:10404000DFED240A21EE201A81ED051A01EE103A67
:10405000B8EEC11A21EE001A21EE201A81ED061ADF
:1040600001EE105AB8EEC11A21EE001A61EE200AD4
:10407000C1ED070A3D2825D132F97A3FB2F9020095
:10408000B2F9042000EE903AF8EEE00A20EE801A31
:10409000DFED110A21EE201A81ED001A01EE100A5F
:1040A000B8EEC11A21EE001A21EE201A81ED011A94
:1040B00001EE102AB8EEC11A21EE000A20EE200A05
:1040C00081ED020A30BD0000985D0020000000383C
:1040D000881F00200000FA440000344370B50446F5
:1040E0002068056C00EB4110D0F8081B0C4EB5425F
:1040F00005D9090403D54FF40041C0F8081B204638
:10410000FEF73EFBB54208D9A079012805D104F29B
:104110009C420121206802F073F9002070BD00006C
:104120000A30544F2DE9F04105460C462E68306C9C
:1041300006EB4411D1F8083B95F806804FF4004790
:104140004FF0200C05F29C42B8F1010F08D0DFF8C7
:10415000B080404545D118043AD5C1F8087B4CE001
:10416000284E5FEA037806D5B04246D9180444D5F4
:10417000C1F8087B41E05FEA836802D5C1F808CB4B
:104180003BE013F0280F38D1B04204D9180402D50F
:10419000C1F8087B31E004EBC40005EB800000F5BA
:1041A0001570D1F8101B036AC1F31201591A41614D
:1041B00024B903693BB1C2681144C160E1B2284629
:1041C000FDF763FE19E00121286802F019F9F5E70F
:1041D000980601D5C1F808CBE1B22846FDF755FE97
:1041E0000BE034B9D5F8640218B90021304602F06A
:1041F00007F9E1B22846FDF748FE0020BDE8F0814E
:104200000A31544F0A30544F2DE9F84F80460E467C
:10421000D8F8007006EBC60008EB80041434D4E92B
:104220000410884202D90120BDE8F88F081AA1685D
:10423000814200D20846C01C4FEA900A07EB46199B
:1042400016E0151AA268AA4200D21546E81C4FEAE9
:10425000900A98F806000090ABB2F2B23846E168D6
:1042600002F034FCE0682844E06060692844606142
:10427000D9F8180980B2504505D3D4E904209042FA
:1042800001D2002ADDD1D4E90401884208D806F021
:104290000F0101208840D7F834188143C7F834183B
:1042A0000020C1E770B5154C002301252178144A80
:1042B000002901D10F280AD021B16178491CC9B267
:1042C000617050546078182808D3012007E02570E9
:1042D000A37063701070FF201076F3E70020217840
:1042E000084209D02370107E30B90549192201F126
:1042F0001900FCF708F8A570A07870BDE40D002047
:10430000301F00202DE9FC4107460C46002001909B
:10431000384605F0EDFC01221D4E150229463046B7
:10432000FDF7A8FC012229463046FDF7A3FC0A232D
:10433000112239461748FFF7AFF9002229463046C7
:10434000FDF798FC002229463046FDF793FC0A2031
:10435000009001AB102221460E48FEF768FEBDF822
:10436000040020B1102804D00120BDE8FC81032006
:10437000FBE72078FD2802D16078EE2801D00120EB
:10438000F3E701202062204604F0E8FD0020ECE77E
:1043900000000240901C00200178407841EA002093
:1043A0007047FFF7F1FD04F049FE642005F078FD49
:1043B000FBE7000010B5502080F31188BFF34F8F4A
:1043C000BFF36F8F06F006FC18B104494FF0805020
:1043D0000860002080F3118810BD000004ED00E0AB
:1043E00030B593B0302107A8FBF7A6FF142102A82F
:1043F000FBF7A2FF00251D48016841F080510160D4
:10440000006800F0805001901948016841F4404173
:104410000160006800F44040019001200790000412
:10442000089002240D9480010E9004200F90A82083
:10443000109011940720129007A8FEF7FFFA08B118
:10444000FCF7FEFC0F200290039404954FF4A0505B
:1044500005904FF480500690052102A8FEF7D0F990
:10446000002801D0FCF7ECFC13B030BD403802400E
:10447000007000400248016841F47001016070471B
:1044800088ED00E00148FEF728BD0000E81E00208E
:104490002DE9F0410268284D284E294FDFF8A4C0CD
:1044A000294B4FF08048A84209D0404507D0B04280
:1044B00005D0B84203D0604501D0984203D122F024
:1044C00070044A682243A8421BD0404519D0B0422C
:1044D00017D0B84215D0604513D0984211D01B4C6C
:1044E000A0420ED01A4CA0420BD01A4CA04208D0C9
:1044F000194CA04205D0194CA04202D0184CA04241
:1045000003D122F44074CA6822434C6922F080022D
:1045100022438C68C4620C688462A84201D098422D
:1045200001D109690163016841F0040101600121C1
:1045300041610260BDE8F0810000014000040040DC
:1045400000080040000C0040000401400040014011
:10455000004401400048014000180040001C004099
:10456000002000402DE9F04F89B004460025DA4EC6
:10457000DA4F05EB450007EB401006EB45112830FC
:104580002022FBF7C0FE6D1CEDB20C2DF1D3DFF83D
:104590004C93207809F58461089104F5F071079136
:1045A00004F5B261069104F10801059104F56E71FC
:1045B000049109F52871039160390291C03909F11C
:1045C000600509F1C00A09F5907B09F5407609F507
:1045D000587709F5707809F5F0790191022816D01D
:1045E00003287DD1BD4A0021079804F070FF2A46B8
:1045F0000121069804F06BFF5A460321059804F048
:1046000066FF52460221049804F061FFC9E02A4681
:104610000121079804F05BFFB04A0021069804F0DE
:1046200056FF52460221059804F051FF5A460321D5
:10463000049804F04CFF0DE0002505EB8500C0EB6D
:10464000851004EBC000083004F020FF6D1CEDB2B3
:10465000032DF2D994F8A5010028EDD094F87D033C
:104660000028E9D094F855050028E5D094F82D07E6
:104670000028E1D0012005F013FC6AE00721039A2D
:10468000079804F024FF0621029A069804F01FFF01
:104690000421019A059804F01AFF4A46052104985E
:1046A00004F015FF0DE0002505EB8500C0EB85103B
:1046B00004EBC000083004F0E9FE6D1CEDB2032DE0
:1046C000F2D994F8A5010028EDD094F87D030028D4
:1046D000E9D094F855050028E5D094F82D0700E0BE
:1046E000F6E00028DFD04A460521079804F0EFFEE7
:1046F0000421019A069804F0EAFE0621029A059820
:1047000004F0E5FEDDE90320072104F0E0FE0DE002
:10471000002505EB8500C0EB851004EBC0000830D8
:1047200004F0B4FE6D1CEDB2032DF2D994F8A5018E
:104730000028EDD094F87D030028E9D094F85505C1
:104740000028E5D094F82D070028E1D0012005F0DD
:10475000A7FB2078022891D032460821079804F060
:10476000B6FE3A460921069804F0B1FE42460A21F7
:10477000059804F0ACFE089A049809B00B21BDE836
:10478000F04F04F0A4BE002505EB8500C0EB8510BA
:1047900004EBC000083004F079FE6D1CEDB2032D6F
:1047A000F2D994F8A5010028EDD094F87D030028F3
:1047B000E9D094F855050028E5D094F82D07002895
:1047C000E1D0012005F06CFB68E00621029A079811
:1047D00004F07DFE0721039A069804F078FE4A460D
:1047E0000521059804F073FE0421019A049804F051
:1047F0006EFE0DE0002505EB8500C0EB851004EB97
:10480000C000083004F042FE6D1CEDB2032DF2D959
:1048100094F8A5010028EDD094F87D030028E9D094
:1048200094F855050028E5D094F82D070028E1D02C
:104830000421019A079804F04AFE4A460521069889
:1048400004F045FE0721039A059804F040FE062176
:10485000029A049804F03BFE0DE0002505EB85006C
:10486000C0EB851004EBC000083004F00FFE6D1C97
:10487000EDB2032DF2D994F8A5010028EDD094F8FB
:104880007D030028E9D094F855050028E5D094F878
:104890002D070028E1D0012005F002FB2078032835
:1048A00093D03A460921079804F011FE32460821B8
:1048B000069804F00CFE0B21089A059804F007FEF8
:1048C000049809B04246BDE8F04F0A2104F0FFBD4C
:1048D00009B0BDE8F08F000080B20008E4020020BB
:1048E00010B5806B0021C185FEF71EFC10BD01686C
:1048F0000C3151E8002F22F4907241E80023002B84
:10490000F5D10168143151E8002F22F0010241E88D
:104910000023002BF5D1016B012909D101680C316D
:1049200051E8002F22F0100241E80023002BF5D1BE
:10493000202180F8421000210163704710B5016802
:10494000CA6822F04002CA60202180F84110FEF7B8
:10495000FAFE002010BD08B590F84210222901D0BF
:10496000022008BD82684FF480539A4201D1016948
:1049700021B1816A9A421DD052B10BE0816A02686E
:104980005268C2F308020A80816A891C816209E0C8
:1049900002697AB10268526802F07F020A70816A85
:1049A000491C8162C18D491E0904090CC18505D0CD
:1049B000002008BD026852680A70F0E70168CA6802
:1049C00022F02002CA600168CA6822F48072CA60BC
:1049D00001684A6922F001024A61202180F84210F0
:1049E00000214163026B012A03D0FEF741FE002043
:1049F00008BD016301680C3151E8002F22F010025C
:104A000041E80023002BF5D101680A68D20602D5DF
:104A10000A6849680091818DFEF785FBE7E7000091
:104A20002DE9F041044620680169E26821F4405113
:104A300011430161A1682069E26901436069104383
:104A400001432068C26849F20C639A430A43C2607A
:104A500020684169A26921F44071114341613349E1
:104A60002068884202D03249884202D1FDF7A2FF75
:104A700001E0FDF78FFFE169002319276425322645
:104A8000B1F5004F28D061688B0F8A00A0FB0701A9
:104A9000FBF708FC0146B0FBF5F07A42504301EB0E
:104AA000800006EB0010B0FBF5F000F0F002B1FB67
:104AB000F5F002EB0012B1FBF5F07B42584301EB3D
:104AC000800006EB0010B0FBF5F0216800F00F004D
:104AD00010448860BDE8F08161684A18A0FB0701B6
:104AE0005B41FBF7DFFB0146B0FBF5F00201B1FBD8
:104AF000F5F06FF01803584301EB800006EBC0009F
:104B0000B0FBF5F000F0F80002EB4002B1FBF5F06D
:104B1000584301EB800006EBC000B0FBF5F02168C4
:104B200000F0070010448860D4E700000010014046
:104B30000014014081628285C285002141642221E6
:104B400080F842100169002904D00168CA6842F463
:104B50008072CA6001684A6942F001024A610068D5
:104B6000C16841F02001C1600020704790F84110F9
:104B7000212901D0022070478168B1F5805F01D101
:104B8000016961B1016A4A1C0262026809785160D8
:104B9000C18C491E0904090CC1840AD013E0016AC2
:104BA00002680988C1F308015160016A891C016229
:104BB000EEE70168CA6822F08002CA600068C16836
:104BC00041F04001C160002070472DE9F8430446E0
:104BD0000D4617469846089E25E0701C23D0FDF729
:104BE00051F8A0EB0800B0421BD8D6B12068C168CC
:104BF000490718D5802D16D0402D14D00168C9431F
:104C0000090710D4002521680968406800902046F3
:104C1000FFF76DFE0820606484F840500120BDE875
:104C2000F8830320FBE72068006835EA000004D021
:104C30000020B842D1D00020F1E70120F9E70000C0
:104C40000148FEF773BA0000901C00200148FEF7EF
:104C50006DBA0000D81C00202DE9F0410E46D0F8B6
:104C6000C822D0F8D41200EB8101D1F8C01200297B
:104C700025D006F00F0303EB830400EB8404002728
:104C800065694DB103EBC30302EB8302D369B5FB46
:104C9000F3F203FB1252A2B1C1F81472D0F8D4227D
:104CA00000EB8200D0F8C40203692BB1D1F80802EE
:104CB000324601F5047198470020BDE8F0810320D9
:104CC000FBE7676100231A46314600F008FFF3E76F
:104CD00070B50546D5F8D40205EB8000D0F8C04287
:104CE000002C12D0284600F0D5FDC4F80C02D5F8EF
:104CF000D412D4F8040205EB8101D1F8C412CA68B9
:104D000004F503719047002070BD032070BD0000C2
:104D100070B50446234D2046297800F0C7FC28785A
:104D2000002600F00F0000EB800004EB800080F80C
:104D300023606978204600F0B9FC687800F00F0025
:104D400000EB800004EB800080F86361A9782046C6
:104D500000F0ACFCA87800F00F0000EB800004EB42
:104D6000800080F82360C661D4F8D40204EB800090
:104D7000D0F8C01299B1D0F8C40240688047D4F886
:104D8000D40204EB8000D0F8C00201F036F9D4F868
:104D9000D40204EB8000C0F8C062C4F8BC620020FA
:104DA00070BD0000EC0E002010B5D0F8D41200EB5E
:104DB0008100D0F8C042002C10D0D0F8C41259B1F4
:104DC00094F80002FF2807D08B6894F8012221464E
:104DD0009847FF2084F80002002010BD032010BD7A
:104DE0000A21018000487047F00E002070B5064689
:104DF00082210C4800F0B7FB05460121094800F06C
:104E0000B2FB04468121074800F0ADFB0DB1102133
:104E1000A971402104B1A18000B18180432030807C
:104E2000004870BDFC0E002070B5064682210D487A
:104E300000F099FB054601210A4800F094FB044666
:104E40008121084800F08FFB0DB11021A9714FF4AA
:104E5000007104B1A18000B18180432030800148FD
:104E600070BD0000FC0E002070B5064682210C4883
:104E700000F079FB05460121094800F074FB044667
:104E80008121074800F06FFB0DB11021A97140216D
:104E900004B1A18000B1818043203080004870BD02
:104EA000FC0E00202DE9F04704464FF4077630460B
:104EB00001F0A4F805464FF00008002D66D03146F9
:104EC0002846FBF739FAD4F8D40204EB8000C0F886
:104ED000C052C4F8BC52207C494E4FF010094FF428
:104EE000007A0127F0B3402302223178204600F0F7
:104EF0003EFD307800F00F0000EB800004EB8000F6
:104F000080F82370402302227178204600F02FFDA4
:104F1000707800F00F0000EB800004EB800080F858
:104F20006371B07800F00F0000EB800004EB8000AC
:104F3000C0F81C9008230322B178204600F017FD2A
:104F4000B07800F00F0000EB800004EB800080F8E8
:104F50002370C5F80482D4F8D40204EB8000D0F8A2
:104F6000C40200E01AE000688047C5F81482C5F862
:104F70001882D5F80422CAB3207CC0B340237178CC
:104F8000204600F000FD0020BDE8F087D4F8D402F0
:104F900004EB8000C0F8C0820220F5E753460222ED
:104FA0003178204600F0E3FC307800F00F0000EB91
:104FB000800004EB800080F8237053460222717851
:104FC000204600F0D4FC707800F00F0000EB800069
:104FD00004EB800080F86371B07800F00F0000EB04
:104FE000800004EB8000C0F81C90A3E700E001E023
:104FF0000220C9E753467178204600F0C4FCC2E79E
:10500000EC0E002010B5D0F8D41200EB8101D1F8DD
:10501000C01200290AD0027C094C4AB1D1F80422FE
:105020004023617800F0AFFC002010BD032010BDCC
:10503000D1F804224FF40073617800F0A4FCF3E788
:10504000EC0E0020002907D0D0F8D42200EB82001B
:10505000C0F8C4120020704703207047D0F8D42253
:1050600000EB8200D0F8C002002803D0C0F8041280
:105070000020704703207047D0F8D43200EB830043
:10508000D0F8C002002805D0C0F80812C0F81022DD
:1050900000207047032070472DE9FC4106460C466E
:1050A000D6F8D40206EB8000D0F8C072002101913E
:1050B00000910025002F0DD0217811F0600238D02A
:1050C000202A09D02146304600F09CF803252846C6
:1050D000BDE8FC810320FBE7E2880AB3090610D58E
:1050E000D0F8C40294F801C03946836860469847F6
:1050F000E288072A00D907223946304600F0AAF88C
:10510000E5E7607887F80002E088402800D3402077
:10511000C2B287F801223946304600F07FF8D6E760
:10512000D0F8C40263780022866821461846B0474A
:10513000CDE7607858B10128C9D00A2817D00B28CC
:1051400025D02146304600F05DF80325BFE796F8EC
:105150009C02032805D02146304600F053F8032571
:10516000B5E702226946304600F074F8AFE796F8DA
:105170009C02032805D02146304600F043F8032561
:10518000A5E7012201A9304600F064F89FE796F8F0
:105190009C0203289BD02146304600F033F80325BB
:1051A00095E710B50024D0F8B8225268904700B1B6
:1051B0000324204610BD90F89C22012A05D0022A23
:1051C00003D0032A01D000F01DB84988012904D179
:1051D0000021C0F8A41200F04BB8704700207047BF
:1051E0000020704710B513460A46002100F0CBFBA3
:1051F000002010BD10B513460A46002100F06FFCD8
:10520000002010BD10B504468021204600F048FC67
:105210002046BDE81040002100F042BC10B5032339
:10522000C0F89432C0F85421C0F86411C0F8582175
:1052300013460A46002100F0A6FB002010BD10B561
:105240000521C0F8941200231A46194600F09BFB72
:10525000002010BD10B50223C0F8943242614162B3
:10526000826113460A46002100F039FC002010BD7F
:1052700010B50421C0F8941200231A46194600F014
:105280002EFC002010BD000010B5002806D00A46F4
:10529000054906A000F0B3F9034810BD0A460249CB
:1052A00002A000F0ACF9F7E79461002043444320EA
:1052B000436F6E66696700001220088000487047DF
:1052C000A00E002010B5002806D00A46054906A009
:1052D00000F095F9034810BD0A46024902A000F00B
:1052E0008EF9F7E79461002043444320496E7465CA
:1052F0007266616365000000042008800048704702
:105300009C0E002010B50A46024903A000F077F970
:10531000004810BD9461002053544D6963726F655D
:105320006C656374726F6E696373000010B500285A
:1053300006D00A46054906A000F061F9034810BDF1
:105340000A46024902A000F05AF9F7E794610020EA
:1053500053544D3332205669727475616C20436F1B
:105360006D506F727400000010B51A200880FBF7B2
:10537000A9FD014810BD0000B40E00200A46D188E6
:10538000012902D01146FFF73DBF90F89C12012978
:1053900006D0022904D0032909D01146FFF732BFF5
:1053A00000218160012200F10801FFF753BF0122B3
:1053B000011DFFF74FBF2DE9F84304460F460020BB
:1053C0000090002600257888010A082970D2DFE8BD
:1053D00001F0AB040C22ABAB8B9AD4F8B412207C56
:1053E0000A68694690470646A3E0207C4FF0020811
:1053F00040B1D4F8B802C16A68468847064686F8C4
:10540000018096E0D4F8B802816A6846884706466B
:1054100086F801808DE0C0B206285FD2DFE800F098
:10542000031221303F4FD4F8B402426822B1207CED
:105430006946904706467CE039462046FFF7E2FE83
:10544000012576E0D4F8B402826822B1207C694656
:10545000904706466DE039462046FFF7D3FE01250A
:1054600067E0D4F8B402C26822B1207C6946904754
:1054700006465EE039462046FFF7C4FE012558E0A7
:10548000D4F8B402026922B1207C694690470646EE
:105490004FE039462046FFF7B5FE012549E0D4F834
:1054A000B40242692AB1207C69469047064640E032
:1054B0003AE039462046FFF7A5FE012539E0D4F849
:1054C000B402826922B1207C69469047064630E0EA
:1054D00039462046FFF796FE01252AE03946204648
:1054E000FFF790FE012524E0207C28B139462046B4
:1054F000FFF788FE01251CE0D4F8B802416B68462E
:105500008847064615E0207C28B139462046FFF73B
:1055100079FE01250DE0D4F8B802016B6846884792
:1055200006460721717004E039462046FFF76AFEFF
:105530000125002D0CD1FA888AB1BDF8000048B1D0
:10554000824200D90246009231462046FFF782FE91
:10555000BDE8F88339462046FFF754FEF8E72046B9
:10556000FFF786FEF4E778B50E46054600246A8804
:10557000297828468A4211D900910AE0694600F04C
:1055800019F84178052904D10446A178B14205D023
:1055900000246988BDF800209142EFD8204678BDEC
:1055A000002102E0491CC9B2401C0278002AF9D14E
:1055B000084670470A8803781A440A80017808442C
:1055C00070470A4690F89C12012906D0022904D09F
:1055D000032902D01146FFF715BED188022902D057
:1055E0001146FFF70FBE0121C160D0F8A41209B126
:1055F0000321C160022200F10C01FFF72BBE70B540
:105600000D461646002821D004462046FFF7C8FF65
:10561000022101EB40014FF40070814204D8204682
:10562000FFF7BEFF4000801C3080307828700320D8
:1056300068700220002206E02954641C401CC0B29D
:105640002A54401CC0B221780029F5D170BD014612
:105650000020002906D0012905D0022905D0032900
:1056600005D00320704703207047012070470320B6
:10567000704700280FD00023C0F8B832C0F8C432F9
:10568000C0F8D03209B1C0F8B412012180F89C12E0
:10569000027000F003B90320704710B5D0F8C802BB
:1056A000FCF734FCBDE81040FFF7D1BF10B5D0F8CF
:1056B000C802FCF707FCBDE81040FFF7C8BF70B593
:1056C00004460B46002B08D043F080012046FFF72C
:1056D00085FDFF2862D098B360E004F11400D4F88F
:1056E00094120025022940D1818942688A4210D94A
:1056F000511A416082890169114401614268204662
:10570000FFF778FD00231A461946204600F03BF9C2
:105710002BE0914215D10068884212D3D4F8981238
:1057200088420ED2002211462046FFF763FDC4F8DE
:10573000985200231A461946204600F024F914E036
:105740001CE094F89C02032808D1D4F8B802C16880
:1057500021B1C4F8D452C168204688478021204630
:1057600000F09EF92046FFF76AFD94F8A002A8B168
:10577000204600F0F3F984F8A0520FE094F89C1250
:1057800003290BD1D4F8B822516939B1C4F8D40235
:105790005269194620469047002800D1002070BD6C
:1057A00070B504460D460023002D08D005F07F019A
:1057B0002046FFF713FDFF2858D098B356E004F5B4
:1057C000AA70D4F89412032950D1818942688A4280
:1057D0000ED9511A41608289016911440161426800
:1057E0008089824200D802462046FFF7FBFC3DE05C
:1057F00094F8AA0210F01F0006D0012806D0022853
:105800000AD0002078B11BE00020FBE794F8AE122C
:105810002046FFF7E5FCF5E794F8AE122046FFF7C7
:10582000DDFCEFE710E094F89C12032908D1D4F8CE
:10583000B8120A6922B1C4F8D4020969204688471F
:105840002046FFF715FD11E094F89C1203290AD1B8
:10585000D4F8B822916931B1C4F8D40292692946CA
:105860002046904703460BB1184670BD002070BD1E
:105870000020704710B50024012180F89C12D0F858
:10588000B822002A04D052680179904700B103245D
:10589000204610BDD0F8C802FCF764BB10B50178F3
:1058A000002927D11449C1F8E004C0F8C8124FF00C
:1058B000A0400860042008710222CA71002088718B
:1058C0004A728872C87208738873C8730846FCF7F6
:1058D00078FE08B1FBF7B4FA80210748FCF7A3FA79
:1058E000402200210448FCF7A2FA8022012102484C
:1058F000FCF79DFA002010BDB46B00200A0601F0F1
:105900007F01D0F8C80201EBC10100EB810001D595
:10591000807D704790F85602704710B5D0F8D422B9
:1059200000EB8202D2F8B822002A04D090F89C3210
:10593000032B02D004E0032010BD126A02B190478D
:10594000002010BD10B5D0F8D42200EB8202D2F8AE
:10595000B822002A04D090F89C32032B02D004E035
:10596000032010BD526A02B19047002010BD10B54F
:1059700014461A46D0F8C8022346FCF7FCFABDE8E4
:105980001040FFF764BE10B5D0F8C802FCF723FB47
:10599000BDE81040FFF75BBE2DE9F041044600254D
:1059A000012684F89C620020C4F894026060C4F868
:1059B000A40284F8A002D4F8B802002806D04268F5
:1059C00022B100212046904700B103250022402348
:1059D00011462046FFF7CBFF84F863614027A4F807
:1059E00060714023002280212046FFF7C0FF84F829
:1059F000236027842846BDE8F08190F89C12042992
:105A000003D190F89D1280F89C120020704710B5C9
:105A100090F89C12032905D1D0F8B81211B1C969C8
:105A200001B18847002010BD01740020704710B5F7
:105A3000D0F8C802FCF791FEBDE81040FFF707BEA2
:105A400070B5044604F2AA20054600F051F8012082
:105A5000C4F89402B4F8B002C4F8980294F8AA22E8
:105A600012F01F000AD001280ED0022812D02046C2
:105A7000BDE8704002F0800100F012B829462046CF
:105A8000BDE8704000F024B929462046BDE87040CA
:105A900000F06CBA29462046BDE8704000F053B9CA
:105AA00010B5D0F8C802FCF7AFFABDE81040FFF718
:105AB000CEBD10B5D0F8C802FCF769FEBDE81040B5
:105AC000FFF7C5BD90F89C12042903D090F89C12F2
:105AD00080F89D12042180F89C120020704710B5B8
